{
	"EthSaving/Bank.sol": {
		"Bank": {
			"abi": [
				{
					"inputs": [],
					"stateMutability": "payable",
					"type": "constructor"
				},
				{
					"inputs": [],
					"name": "withdrawWithCall",
					"outputs": [],
					"stateMutability": "nonpayable",
					"type": "function"
				},
				{
					"inputs": [],
					"name": "withdrawWithSend",
					"outputs": [],
					"stateMutability": "nonpayable",
					"type": "function"
				},
				{
					"inputs": [],
					"name": "withdrwaWithTran",
					"outputs": [],
					"stateMutability": "nonpayable",
					"type": "function"
				},
				{
					"stateMutability": "payable",
					"type": "receive"
				}
			],
			"devdoc": {
				"kind": "dev",
				"methods": {},
				"version": 1
			},
			"evm": {
				"assembly": "    /* \"EthSaving/Bank.sol\":55:600  contract Bank {... */\n  mstore(0x40, 0x80)\n  dataSize(sub_0)\n  dup1\n  dataOffset(sub_0)\n  0x00\n  codecopy\n  0x00\n  return\nstop\n\nsub_0: assembly {\n        /* \"EthSaving/Bank.sol\":55:600  contract Bank {... */\n      mstore(0x40, 0x80)\n      jumpi(tag_1, lt(calldatasize, 0x04))\n      shr(0xe0, calldataload(0x00))\n      dup1\n      0x2f364213\n      eq\n      tag_3\n      jumpi\n      dup1\n      0x3e86a44d\n      eq\n      tag_4\n      jumpi\n      dup1\n      0xcd3228eb\n      eq\n      tag_5\n      jumpi\n      jump(tag_2)\n    tag_1:\n      jumpi(tag_2, calldatasize)\n      stop\n    tag_2:\n      0x00\n      dup1\n      revert\n        /* \"EthSaving/Bank.sol\":291:434  function withdrawWithSend() external {... */\n    tag_3:\n      callvalue\n      dup1\n      iszero\n      tag_8\n      jumpi\n      0x00\n      dup1\n      revert\n    tag_8:\n      pop\n      tag_9\n      tag_10\n      jump\t// in\n    tag_9:\n      stop\n        /* \"EthSaving/Bank.sol\":194:285  function withdrwaWithTran() external {... */\n    tag_4:\n      callvalue\n      dup1\n      iszero\n      tag_11\n      jumpi\n      0x00\n      dup1\n      revert\n    tag_11:\n      pop\n      tag_12\n      tag_13\n      jump\t// in\n    tag_12:\n      stop\n        /* \"EthSaving/Bank.sol\":440:598  function withdrawWithCall() external {... */\n    tag_5:\n      callvalue\n      dup1\n      iszero\n      tag_14\n      jumpi\n      0x00\n      dup1\n      revert\n    tag_14:\n      pop\n      tag_15\n      tag_16\n      jump\t// in\n    tag_15:\n      stop\n        /* \"EthSaving/Bank.sol\":291:434  function withdrawWithSend() external {... */\n    tag_10:\n        /* \"EthSaving/Bank.sol\":338:350  bool success */\n      0x00\n        /* \"EthSaving/Bank.sol\":361:371  msg.sender */\n      caller\n        /* \"EthSaving/Bank.sol\":353:377  payable(msg.sender).send */\n      0xffffffffffffffffffffffffffffffffffffffff\n      and\n        /* \"EthSaving/Bank.sol\":353:386  payable(msg.sender).send(1 ether) */\n      0x08fc\n        /* \"EthSaving/Bank.sol\":378:385  1 ether */\n      0x0de0b6b3a7640000\n        /* \"EthSaving/Bank.sol\":353:386  payable(msg.sender).send(1 ether) */\n      swap1\n      dup2\n      iszero\n      mul\n      swap1\n      mload(0x40)\n      0x00\n      mload(0x40)\n      dup1\n      dup4\n      sub\n      dup2\n      dup6\n      dup9\n      dup9\n      call\n      swap4\n      pop\n      pop\n      pop\n      pop\n        /* \"EthSaving/Bank.sol\":338:386  bool success = payable(msg.sender).send(1 ether) */\n      swap1\n      pop\n        /* \"EthSaving/Bank.sol\":404:411  success */\n      dup1\n        /* \"EthSaving/Bank.sol\":396:427  require(success, \"Send failed\") */\n      tag_19\n      jumpi\n      mload(0x40)\n      0x08c379a000000000000000000000000000000000000000000000000000000000\n      dup2\n      mstore\n      0x04\n      add\n      tag_20\n      swap1\n      tag_21\n      jump\t// in\n    tag_20:\n      mload(0x40)\n      dup1\n      swap2\n      sub\n      swap1\n      revert\n    tag_19:\n        /* \"EthSaving/Bank.sol\":328:434  {... */\n      pop\n        /* \"EthSaving/Bank.sol\":291:434  function withdrawWithSend() external {... */\n      jump\t// out\n        /* \"EthSaving/Bank.sol\":194:285  function withdrwaWithTran() external {... */\n    tag_13:\n        /* \"EthSaving/Bank.sol\":249:259  msg.sender */\n      caller\n        /* \"EthSaving/Bank.sol\":241:269  payable(msg.sender).transfer */\n      0xffffffffffffffffffffffffffffffffffffffff\n      and\n        /* \"EthSaving/Bank.sol\":241:278  payable(msg.sender).transfer(1 ether) */\n      0x08fc\n        /* \"EthSaving/Bank.sol\":270:277  1 ether */\n      0x0de0b6b3a7640000\n        /* \"EthSaving/Bank.sol\":241:278  payable(msg.sender).transfer(1 ether) */\n      swap1\n      dup2\n      iszero\n      mul\n      swap1\n      mload(0x40)\n      0x00\n      mload(0x40)\n      dup1\n      dup4\n      sub\n      dup2\n      dup6\n      dup9\n      dup9\n      call\n      swap4\n      pop\n      pop\n      pop\n      pop\n      iszero\n      dup1\n      iszero\n      tag_24\n      jumpi\n      returndatasize\n      0x00\n      dup1\n      returndatacopy\n      revert(0x00, returndatasize)\n    tag_24:\n      pop\n        /* \"EthSaving/Bank.sol\":194:285  function withdrwaWithTran() external {... */\n      jump\t// out\n        /* \"EthSaving/Bank.sol\":440:598  function withdrawWithCall() external {... */\n    tag_16:\n        /* \"EthSaving/Bank.sol\":488:500  bool success */\n      0x00\n        /* \"EthSaving/Bank.sol\":514:524  msg.sender */\n      caller\n        /* \"EthSaving/Bank.sol\":506:530  payable(msg.sender).call */\n      0xffffffffffffffffffffffffffffffffffffffff\n      and\n        /* \"EthSaving/Bank.sol\":538:545  1 ether */\n      0x0de0b6b3a7640000\n        /* \"EthSaving/Bank.sol\":506:550  payable(msg.sender).call{value: 1 ether}(\"\") */\n      mload(0x40)\n      tag_26\n      swap1\n      tag_27\n      jump\t// in\n    tag_26:\n      0x00\n      mload(0x40)\n      dup1\n      dup4\n      sub\n      dup2\n      dup6\n      dup8\n      gas\n      call\n      swap3\n      pop\n      pop\n      pop\n      returndatasize\n      dup1\n      0x00\n      dup2\n      eq\n      tag_30\n      jumpi\n      mload(0x40)\n      swap2\n      pop\n      and(add(returndatasize, 0x3f), not(0x1f))\n      dup3\n      add\n      0x40\n      mstore\n      returndatasize\n      dup3\n      mstore\n      returndatasize\n      0x00\n      0x20\n      dup5\n      add\n      returndatacopy\n      jump(tag_29)\n    tag_30:\n      0x60\n      swap2\n      pop\n    tag_29:\n      pop\n        /* \"EthSaving/Bank.sol\":487:550  (bool success, ) = payable(msg.sender).call{value: 1 ether}(\"\") */\n      pop\n      swap1\n      pop\n        /* \"EthSaving/Bank.sol\":568:575  success */\n      dup1\n        /* \"EthSaving/Bank.sol\":560:591  require(success, \"Call failed\") */\n      tag_31\n      jumpi\n      mload(0x40)\n      0x08c379a000000000000000000000000000000000000000000000000000000000\n      dup2\n      mstore\n      0x04\n      add\n      tag_32\n      swap1\n      tag_33\n      jump\t// in\n    tag_32:\n      mload(0x40)\n      dup1\n      swap2\n      sub\n      swap1\n      revert\n    tag_31:\n        /* \"EthSaving/Bank.sol\":477:598  {... */\n      pop\n        /* \"EthSaving/Bank.sol\":440:598  function withdrawWithCall() external {... */\n      jump\t// out\n        /* \"#utility.yul\":7:176   */\n    tag_34:\n        /* \"#utility.yul\":91:102   */\n      0x00\n        /* \"#utility.yul\":125:131   */\n      dup3\n        /* \"#utility.yul\":120:123   */\n      dup3\n        /* \"#utility.yul\":113:132   */\n      mstore\n        /* \"#utility.yul\":165:169   */\n      0x20\n        /* \"#utility.yul\":160:163   */\n      dup3\n        /* \"#utility.yul\":156:170   */\n      add\n        /* \"#utility.yul\":141:170   */\n      swap1\n      pop\n        /* \"#utility.yul\":7:176   */\n      swap3\n      swap2\n      pop\n      pop\n      jump\t// out\n        /* \"#utility.yul\":182:343   */\n    tag_35:\n        /* \"#utility.yul\":322:335   */\n      0x53656e64206661696c6564000000000000000000000000000000000000000000\n        /* \"#utility.yul\":318:319   */\n      0x00\n        /* \"#utility.yul\":310:316   */\n      dup3\n        /* \"#utility.yul\":306:320   */\n      add\n        /* \"#utility.yul\":299:336   */\n      mstore\n        /* \"#utility.yul\":182:343   */\n      pop\n      jump\t// out\n        /* \"#utility.yul\":349:715   */\n    tag_36:\n        /* \"#utility.yul\":491:494   */\n      0x00\n        /* \"#utility.yul\":512:579   */\n      tag_46\n        /* \"#utility.yul\":576:578   */\n      0x0b\n        /* \"#utility.yul\":571:574   */\n      dup4\n        /* \"#utility.yul\":512:579   */\n      tag_34\n      jump\t// in\n    tag_46:\n        /* \"#utility.yul\":505:579   */\n      swap2\n      pop\n        /* \"#utility.yul\":588:681   */\n      tag_47\n        /* \"#utility.yul\":677:680   */\n      dup3\n        /* \"#utility.yul\":588:681   */\n      tag_35\n      jump\t// in\n    tag_47:\n        /* \"#utility.yul\":706:708   */\n      0x20\n        /* \"#utility.yul\":701:704   */\n      dup3\n        /* \"#utility.yul\":697:709   */\n      add\n        /* \"#utility.yul\":690:709   */\n      swap1\n      pop\n        /* \"#utility.yul\":349:715   */\n      swap2\n      swap1\n      pop\n      jump\t// out\n        /* \"#utility.yul\":721:1140   */\n    tag_21:\n        /* \"#utility.yul\":887:891   */\n      0x00\n        /* \"#utility.yul\":925:927   */\n      0x20\n        /* \"#utility.yul\":914:923   */\n      dup3\n        /* \"#utility.yul\":910:928   */\n      add\n        /* \"#utility.yul\":902:928   */\n      swap1\n      pop\n        /* \"#utility.yul\":974:983   */\n      dup2\n        /* \"#utility.yul\":968:972   */\n      dup2\n        /* \"#utility.yul\":964:984   */\n      sub\n        /* \"#utility.yul\":960:961   */\n      0x00\n        /* \"#utility.yul\":949:958   */\n      dup4\n        /* \"#utility.yul\":945:962   */\n      add\n        /* \"#utility.yul\":938:985   */\n      mstore\n        /* \"#utility.yul\":1002:1133   */\n      tag_49\n        /* \"#utility.yul\":1128:1132   */\n      dup2\n        /* \"#utility.yul\":1002:1133   */\n      tag_36\n      jump\t// in\n    tag_49:\n        /* \"#utility.yul\":994:1133   */\n      swap1\n      pop\n        /* \"#utility.yul\":721:1140   */\n      swap2\n      swap1\n      pop\n      jump\t// out\n        /* \"#utility.yul\":1146:1293   */\n    tag_37:\n        /* \"#utility.yul\":1247:1258   */\n      0x00\n        /* \"#utility.yul\":1284:1287   */\n      dup2\n        /* \"#utility.yul\":1269:1287   */\n      swap1\n      pop\n        /* \"#utility.yul\":1146:1293   */\n      swap3\n      swap2\n      pop\n      pop\n      jump\t// out\n        /* \"#utility.yul\":1299:1413   */\n    tag_38:\n      pop\n      jump\t// out\n        /* \"#utility.yul\":1419:1817   */\n    tag_39:\n        /* \"#utility.yul\":1578:1581   */\n      0x00\n        /* \"#utility.yul\":1599:1682   */\n      tag_53\n        /* \"#utility.yul\":1680:1681   */\n      0x00\n        /* \"#utility.yul\":1675:1678   */\n      dup4\n        /* \"#utility.yul\":1599:1682   */\n      tag_37\n      jump\t// in\n    tag_53:\n        /* \"#utility.yul\":1592:1682   */\n      swap2\n      pop\n        /* \"#utility.yul\":1691:1784   */\n      tag_54\n        /* \"#utility.yul\":1780:1783   */\n      dup3\n        /* \"#utility.yul\":1691:1784   */\n      tag_38\n      jump\t// in\n    tag_54:\n        /* \"#utility.yul\":1809:1810   */\n      0x00\n        /* \"#utility.yul\":1804:1807   */\n      dup3\n        /* \"#utility.yul\":1800:1811   */\n      add\n        /* \"#utility.yul\":1793:1811   */\n      swap1\n      pop\n        /* \"#utility.yul\":1419:1817   */\n      swap2\n      swap1\n      pop\n      jump\t// out\n        /* \"#utility.yul\":1823:2202   */\n    tag_27:\n        /* \"#utility.yul\":2007:2010   */\n      0x00\n        /* \"#utility.yul\":2029:2176   */\n      tag_56\n        /* \"#utility.yul\":2172:2175   */\n      dup3\n        /* \"#utility.yul\":2029:2176   */\n      tag_39\n      jump\t// in\n    tag_56:\n        /* \"#utility.yul\":2022:2176   */\n      swap2\n      pop\n        /* \"#utility.yul\":2193:2196   */\n      dup2\n        /* \"#utility.yul\":2186:2196   */\n      swap1\n      pop\n        /* \"#utility.yul\":1823:2202   */\n      swap2\n      swap1\n      pop\n      jump\t// out\n        /* \"#utility.yul\":2208:2369   */\n    tag_40:\n        /* \"#utility.yul\":2348:2361   */\n      0x43616c6c206661696c6564000000000000000000000000000000000000000000\n        /* \"#utility.yul\":2344:2345   */\n      0x00\n        /* \"#utility.yul\":2336:2342   */\n      dup3\n        /* \"#utility.yul\":2332:2346   */\n      add\n        /* \"#utility.yul\":2325:2362   */\n      mstore\n        /* \"#utility.yul\":2208:2369   */\n      pop\n      jump\t// out\n        /* \"#utility.yul\":2375:2741   */\n    tag_41:\n        /* \"#utility.yul\":2517:2520   */\n      0x00\n        /* \"#utility.yul\":2538:2605   */\n      tag_59\n        /* \"#utility.yul\":2602:2604   */\n      0x0b\n        /* \"#utility.yul\":2597:2600   */\n      dup4\n        /* \"#utility.yul\":2538:2605   */\n      tag_34\n      jump\t// in\n    tag_59:\n        /* \"#utility.yul\":2531:2605   */\n      swap2\n      pop\n        /* \"#utility.yul\":2614:2707   */\n      tag_60\n        /* \"#utility.yul\":2703:2706   */\n      dup3\n        /* \"#utility.yul\":2614:2707   */\n      tag_40\n      jump\t// in\n    tag_60:\n        /* \"#utility.yul\":2732:2734   */\n      0x20\n        /* \"#utility.yul\":2727:2730   */\n      dup3\n        /* \"#utility.yul\":2723:2735   */\n      add\n        /* \"#utility.yul\":2716:2735   */\n      swap1\n      pop\n        /* \"#utility.yul\":2375:2741   */\n      swap2\n      swap1\n      pop\n      jump\t// out\n        /* \"#utility.yul\":2747:3166   */\n    tag_33:\n        /* \"#utility.yul\":2913:2917   */\n      0x00\n        /* \"#utility.yul\":2951:2953   */\n      0x20\n        /* \"#utility.yul\":2940:2949   */\n      dup3\n        /* \"#utility.yul\":2936:2954   */\n      add\n        /* \"#utility.yul\":2928:2954   */\n      swap1\n      pop\n        /* \"#utility.yul\":3000:3009   */\n      dup2\n        /* \"#utility.yul\":2994:2998   */\n      dup2\n        /* \"#utility.yul\":2990:3010   */\n      sub\n        /* \"#utility.yul\":2986:2987   */\n      0x00\n        /* \"#utility.yul\":2975:2984   */\n      dup4\n        /* \"#utility.yul\":2971:2988   */\n      add\n        /* \"#utility.yul\":2964:3011   */\n      mstore\n        /* \"#utility.yul\":3028:3159   */\n      tag_62\n        /* \"#utility.yul\":3154:3158   */\n      dup2\n        /* \"#utility.yul\":3028:3159   */\n      tag_41\n      jump\t// in\n    tag_62:\n        /* \"#utility.yul\":3020:3159   */\n      swap1\n      pop\n        /* \"#utility.yul\":2747:3166   */\n      swap2\n      swap1\n      pop\n      jump\t// out\n\n    auxdata: 0xa264697066735822122082ad99cf9737d73d18d27f4dd309491727523d563bd1902a1e321bbef65cd02264736f6c63430008190033\n}\n",
				"bytecode": {
					"linkReferences": {},
					"object": "608060405261035e806100115f395ff3fe608060405260043610610037575f3560e01c80632f364213146100425780633e86a44d14610058578063cd3228eb1461006e5761003e565b3661003e57005b5f80fd5b34801561004d575f80fd5b50610056610084565b005b348015610063575f80fd5b5061006c610106565b005b348015610079575f80fd5b50610082610154565b005b5f3373ffffffffffffffffffffffffffffffffffffffff166108fc670de0b6b3a764000090811502906040515f60405180830381858888f19350505050905080610103576040517f08c379a00000000000000000000000000000000000000000000000000000000081526004016100fa90610261565b60405180910390fd5b50565b3373ffffffffffffffffffffffffffffffffffffffff166108fc670de0b6b3a764000090811502906040515f60405180830381858888f19350505050158015610151573d5f803e3d5ffd5b50565b5f3373ffffffffffffffffffffffffffffffffffffffff16670de0b6b3a7640000604051610181906102ac565b5f6040518083038185875af1925050503d805f81146101bb576040519150601f19603f3d011682016040523d82523d5f602084013e6101c0565b606091505b5050905080610204576040517f08c379a00000000000000000000000000000000000000000000000000000000081526004016101fb9061030a565b60405180910390fd5b50565b5f82825260208201905092915050565b7f53656e64206661696c65640000000000000000000000000000000000000000005f82015250565b5f61024b600b83610207565b915061025682610217565b602082019050919050565b5f6020820190508181035f8301526102788161023f565b9050919050565b5f81905092915050565b50565b5f6102975f8361027f565b91506102a282610289565b5f82019050919050565b5f6102b68261028c565b9150819050919050565b7f43616c6c206661696c65640000000000000000000000000000000000000000005f82015250565b5f6102f4600b83610207565b91506102ff826102c0565b602082019050919050565b5f6020820190508181035f830152610321816102e8565b905091905056fea264697066735822122082ad99cf9737d73d18d27f4dd309491727523d563bd1902a1e321bbef65cd02264736f6c63430008190033",
					"opcodes": "PUSH1 0x80 PUSH1 0x40 MSTORE PUSH2 0x35E DUP1 PUSH2 0x11 PUSH0 CODECOPY PUSH0 RETURN INVALID PUSH1 0x80 PUSH1 0x40 MSTORE PUSH1 0x4 CALLDATASIZE LT PUSH2 0x37 JUMPI PUSH0 CALLDATALOAD PUSH1 0xE0 SHR DUP1 PUSH4 0x2F364213 EQ PUSH2 0x42 JUMPI DUP1 PUSH4 0x3E86A44D EQ PUSH2 0x58 JUMPI DUP1 PUSH4 0xCD3228EB EQ PUSH2 0x6E JUMPI PUSH2 0x3E JUMP JUMPDEST CALLDATASIZE PUSH2 0x3E JUMPI STOP JUMPDEST PUSH0 DUP1 REVERT JUMPDEST CALLVALUE DUP1 ISZERO PUSH2 0x4D JUMPI PUSH0 DUP1 REVERT JUMPDEST POP PUSH2 0x56 PUSH2 0x84 JUMP JUMPDEST STOP JUMPDEST CALLVALUE DUP1 ISZERO PUSH2 0x63 JUMPI PUSH0 DUP1 REVERT JUMPDEST POP PUSH2 0x6C PUSH2 0x106 JUMP JUMPDEST STOP JUMPDEST CALLVALUE DUP1 ISZERO PUSH2 0x79 JUMPI PUSH0 DUP1 REVERT JUMPDEST POP PUSH2 0x82 PUSH2 0x154 JUMP JUMPDEST STOP JUMPDEST PUSH0 CALLER PUSH20 0xFFFFFFFFFFFFFFFFFFFFFFFFFFFFFFFFFFFFFFFF AND PUSH2 0x8FC PUSH8 0xDE0B6B3A7640000 SWAP1 DUP2 ISZERO MUL SWAP1 PUSH1 0x40 MLOAD PUSH0 PUSH1 0x40 MLOAD DUP1 DUP4 SUB DUP2 DUP6 DUP9 DUP9 CALL SWAP4 POP POP POP POP SWAP1 POP DUP1 PUSH2 0x103 JUMPI PUSH1 0x40 MLOAD PUSH32 0x8C379A000000000000000000000000000000000000000000000000000000000 DUP2 MSTORE PUSH1 0x4 ADD PUSH2 0xFA SWAP1 PUSH2 0x261 JUMP JUMPDEST PUSH1 0x40 MLOAD DUP1 SWAP2 SUB SWAP1 REVERT JUMPDEST POP JUMP JUMPDEST CALLER PUSH20 0xFFFFFFFFFFFFFFFFFFFFFFFFFFFFFFFFFFFFFFFF AND PUSH2 0x8FC PUSH8 0xDE0B6B3A7640000 SWAP1 DUP2 ISZERO MUL SWAP1 PUSH1 0x40 MLOAD PUSH0 PUSH1 0x40 MLOAD DUP1 DUP4 SUB DUP2 DUP6 DUP9 DUP9 CALL SWAP4 POP POP POP POP ISZERO DUP1 ISZERO PUSH2 0x151 JUMPI RETURNDATASIZE PUSH0 DUP1 RETURNDATACOPY RETURNDATASIZE PUSH0 REVERT JUMPDEST POP JUMP JUMPDEST PUSH0 CALLER PUSH20 0xFFFFFFFFFFFFFFFFFFFFFFFFFFFFFFFFFFFFFFFF AND PUSH8 0xDE0B6B3A7640000 PUSH1 0x40 MLOAD PUSH2 0x181 SWAP1 PUSH2 0x2AC JUMP JUMPDEST PUSH0 PUSH1 0x40 MLOAD DUP1 DUP4 SUB DUP2 DUP6 DUP8 GAS CALL SWAP3 POP POP POP RETURNDATASIZE DUP1 PUSH0 DUP2 EQ PUSH2 0x1BB JUMPI PUSH1 0x40 MLOAD SWAP2 POP PUSH1 0x1F NOT PUSH1 0x3F RETURNDATASIZE ADD AND DUP3 ADD PUSH1 0x40 MSTORE RETURNDATASIZE DUP3 MSTORE RETURNDATASIZE PUSH0 PUSH1 0x20 DUP5 ADD RETURNDATACOPY PUSH2 0x1C0 JUMP JUMPDEST PUSH1 0x60 SWAP2 POP JUMPDEST POP POP SWAP1 POP DUP1 PUSH2 0x204 JUMPI PUSH1 0x40 MLOAD PUSH32 0x8C379A000000000000000000000000000000000000000000000000000000000 DUP2 MSTORE PUSH1 0x4 ADD PUSH2 0x1FB SWAP1 PUSH2 0x30A JUMP JUMPDEST PUSH1 0x40 MLOAD DUP1 SWAP2 SUB SWAP1 REVERT JUMPDEST POP JUMP JUMPDEST PUSH0 DUP3 DUP3 MSTORE PUSH1 0x20 DUP3 ADD SWAP1 POP SWAP3 SWAP2 POP POP JUMP JUMPDEST PUSH32 0x53656E64206661696C6564000000000000000000000000000000000000000000 PUSH0 DUP3 ADD MSTORE POP JUMP JUMPDEST PUSH0 PUSH2 0x24B PUSH1 0xB DUP4 PUSH2 0x207 JUMP JUMPDEST SWAP2 POP PUSH2 0x256 DUP3 PUSH2 0x217 JUMP JUMPDEST PUSH1 0x20 DUP3 ADD SWAP1 POP SWAP2 SWAP1 POP JUMP JUMPDEST PUSH0 PUSH1 0x20 DUP3 ADD SWAP1 POP DUP2 DUP2 SUB PUSH0 DUP4 ADD MSTORE PUSH2 0x278 DUP2 PUSH2 0x23F JUMP JUMPDEST SWAP1 POP SWAP2 SWAP1 POP JUMP JUMPDEST PUSH0 DUP2 SWAP1 POP SWAP3 SWAP2 POP POP JUMP JUMPDEST POP JUMP JUMPDEST PUSH0 PUSH2 0x297 PUSH0 DUP4 PUSH2 0x27F JUMP JUMPDEST SWAP2 POP PUSH2 0x2A2 DUP3 PUSH2 0x289 JUMP JUMPDEST PUSH0 DUP3 ADD SWAP1 POP SWAP2 SWAP1 POP JUMP JUMPDEST PUSH0 PUSH2 0x2B6 DUP3 PUSH2 0x28C JUMP JUMPDEST SWAP2 POP DUP2 SWAP1 POP SWAP2 SWAP1 POP JUMP JUMPDEST PUSH32 0x43616C6C206661696C6564000000000000000000000000000000000000000000 PUSH0 DUP3 ADD MSTORE POP JUMP JUMPDEST PUSH0 PUSH2 0x2F4 PUSH1 0xB DUP4 PUSH2 0x207 JUMP JUMPDEST SWAP2 POP PUSH2 0x2FF DUP3 PUSH2 0x2C0 JUMP JUMPDEST PUSH1 0x20 DUP3 ADD SWAP1 POP SWAP2 SWAP1 POP JUMP JUMPDEST PUSH0 PUSH1 0x20 DUP3 ADD SWAP1 POP DUP2 DUP2 SUB PUSH0 DUP4 ADD MSTORE PUSH2 0x321 DUP2 PUSH2 0x2E8 JUMP JUMPDEST SWAP1 POP SWAP2 SWAP1 POP JUMP INVALID LOG2 PUSH5 0x6970667358 0x22 SLT KECCAK256 DUP3 0xAD SWAP10 0xCF SWAP8 CALLDATACOPY 0xD7 RETURNDATASIZE XOR 0xD2 PUSH32 0x4DD309491727523D563BD1902A1E321BBEF65CD02264736F6C63430008190033 "
				},
				"gasEstimates": {
					"creation": {
						"codeDepositCost": "172400",
						"executionCost": "188",
						"totalCost": "172588"
					},
					"external": {
						"withdrawWithCall()": "infinite",
						"withdrawWithSend()": "infinite",
						"withdrwaWithTran()": "infinite"
					}
				},
				"methodIdentifiers": {
					"withdrawWithCall()": "cd3228eb",
					"withdrawWithSend()": "2f364213",
					"withdrwaWithTran()": "3e86a44d"
				}
			},
			"storageLayout": {
				"storage": [],
				"types": null
			},
			"userdoc": {
				"kind": "user",
				"methods": {},
				"version": 1
			}
		}
	}
}