{
	"AddressExample.sol": {
		"AddressExample": {
			"abi": [
				{
					"inputs": [],
					"name": "clller",
					"outputs": [
						{
							"internalType": "address",
							"name": "",
							"type": "address"
						}
					],
					"stateMutability": "view",
					"type": "function"
				},
				{
					"inputs": [
						{
							"internalType": "address",
							"name": "addr1",
							"type": "address"
						},
						{
							"internalType": "address",
							"name": "addr2",
							"type": "address"
						}
					],
					"name": "compareAddress",
					"outputs": [
						{
							"internalType": "bool",
							"name": "",
							"type": "bool"
						}
					],
					"stateMutability": "pure",
					"type": "function"
				},
				{
					"inputs": [],
					"name": "myaddress",
					"outputs": [
						{
							"internalType": "address",
							"name": "",
							"type": "address"
						}
					],
					"stateMutability": "view",
					"type": "function"
				},
				{
					"inputs": [
						{
							"internalType": "address",
							"name": "addr",
							"type": "address"
						}
					],
					"name": "toBytes",
					"outputs": [
						{
							"internalType": "bytes",
							"name": "",
							"type": "bytes"
						}
					],
					"stateMutability": "pure",
					"type": "function"
				}
			],
			"devdoc": {
				"kind": "dev",
				"methods": {},
				"version": 1
			},
			"evm": {
				"assembly": "    /* \"AddressExample.sol\":55:400  contract AddressExample {... */\n  mstore(0x40, 0x80)\n    /* \"AddressExample.sol\":141:151  msg.sender */\n  caller\n    /* \"AddressExample.sol\":117:151  address public clller = msg.sender */\n  0x01\n  exp(0x0100, 0x00)\n  dup2\n  sload\n  dup2\n  0xffffffffffffffffffffffffffffffffffffffff\n  mul\n  not\n  and\n  swap1\n  dup4\n  0xffffffffffffffffffffffffffffffffffffffff\n  and\n  mul\n  or\n  swap1\n  sstore\n  pop\n    /* \"AddressExample.sol\":55:400  contract AddressExample {... */\n  callvalue\n  dup1\n  iszero\n  tag_1\n  jumpi\n  revert(0x00, 0x00)\ntag_1:\n  pop\n  dataSize(sub_0)\n  dup1\n  dataOffset(sub_0)\n  0x00\n  codecopy\n  0x00\n  return\nstop\n\nsub_0: assembly {\n        /* \"AddressExample.sol\":55:400  contract AddressExample {... */\n      mstore(0x40, 0x80)\n      callvalue\n      dup1\n      iszero\n      tag_1\n      jumpi\n      revert(0x00, 0x00)\n    tag_1:\n      pop\n      jumpi(tag_2, lt(calldatasize, 0x04))\n      shr(0xe0, calldataload(0x00))\n      dup1\n      0x29b32697\n      eq\n      tag_3\n      jumpi\n      dup1\n      0x593b79fe\n      eq\n      tag_4\n      jumpi\n      dup1\n      0x95e885c0\n      eq\n      tag_5\n      jumpi\n      dup1\n      0xfcf814c3\n      eq\n      tag_6\n      jumpi\n    tag_2:\n      revert(0x00, 0x00)\n        /* \"AddressExample.sol\":117:151  address public clller = msg.sender */\n    tag_3:\n      tag_7\n      tag_8\n      jump\t// in\n    tag_7:\n      mload(0x40)\n      tag_9\n      swap2\n      swap1\n      tag_10\n      jump\t// in\n    tag_9:\n      mload(0x40)\n      dup1\n      swap2\n      sub\n      swap1\n      return\n        /* \"AddressExample.sol\":281:393  function toBytes(address addr) public pure returns (bytes memory) {... */\n    tag_4:\n      tag_11\n      0x04\n      dup1\n      calldatasize\n      sub\n      dup2\n      add\n      swap1\n      tag_12\n      swap2\n      swap1\n      tag_13\n      jump\t// in\n    tag_12:\n      tag_14\n      jump\t// in\n    tag_11:\n      mload(0x40)\n      tag_15\n      swap2\n      swap1\n      tag_16\n      jump\t// in\n    tag_15:\n      mload(0x40)\n      dup1\n      swap2\n      sub\n      swap1\n      return\n        /* \"AddressExample.sol\":158:275  function compareAddress(address addr1, address addr2) public pure returns(bool){... */\n    tag_5:\n      tag_17\n      0x04\n      dup1\n      calldatasize\n      sub\n      dup2\n      add\n      swap1\n      tag_18\n      swap2\n      swap1\n      tag_19\n      jump\t// in\n    tag_18:\n      tag_20\n      jump\t// in\n    tag_17:\n      mload(0x40)\n      tag_21\n      swap2\n      swap1\n      tag_22\n      jump\t// in\n    tag_21:\n      mload(0x40)\n      dup1\n      swap2\n      sub\n      swap1\n      return\n        /* \"AddressExample.sol\":86:110  address public myaddress */\n    tag_6:\n      tag_23\n      tag_24\n      jump\t// in\n    tag_23:\n      mload(0x40)\n      tag_25\n      swap2\n      swap1\n      tag_10\n      jump\t// in\n    tag_25:\n      mload(0x40)\n      dup1\n      swap2\n      sub\n      swap1\n      return\n        /* \"AddressExample.sol\":117:151  address public clller = msg.sender */\n    tag_8:\n      0x01\n      0x00\n      swap1\n      sload\n      swap1\n      0x0100\n      exp\n      swap1\n      div\n      0xffffffffffffffffffffffffffffffffffffffff\n      and\n      dup2\n      jump\t// out\n        /* \"AddressExample.sol\":281:393  function toBytes(address addr) public pure returns (bytes memory) {... */\n    tag_14:\n        /* \"AddressExample.sol\":333:345  bytes memory */\n      0x60\n        /* \"AddressExample.sol\":381:385  addr */\n      dup2\n        /* \"AddressExample.sol\":364:386  abi.encodePacked(addr) */\n      add(0x20, mload(0x40))\n      tag_27\n      swap2\n      swap1\n      tag_28\n      jump\t// in\n    tag_27:\n      mload(0x40)\n      0x20\n      dup2\n      dup4\n      sub\n      sub\n      dup2\n      mstore\n      swap1\n      0x40\n      mstore\n        /* \"AddressExample.sol\":357:386  return abi.encodePacked(addr) */\n      swap1\n      pop\n        /* \"AddressExample.sol\":281:393  function toBytes(address addr) public pure returns (bytes memory) {... */\n      swap2\n      swap1\n      pop\n      jump\t// out\n        /* \"AddressExample.sol\":158:275  function compareAddress(address addr1, address addr2) public pure returns(bool){... */\n    tag_20:\n        /* \"AddressExample.sol\":232:236  bool */\n      0x00\n        /* \"AddressExample.sol\":263:268  addr2 */\n      dup2\n        /* \"AddressExample.sol\":254:268  addr1 == addr2 */\n      0xffffffffffffffffffffffffffffffffffffffff\n      and\n        /* \"AddressExample.sol\":254:259  addr1 */\n      dup4\n        /* \"AddressExample.sol\":254:268  addr1 == addr2 */\n      0xffffffffffffffffffffffffffffffffffffffff\n      and\n      eq\n        /* \"AddressExample.sol\":247:268  return addr1 == addr2 */\n      swap1\n      pop\n        /* \"AddressExample.sol\":158:275  function compareAddress(address addr1, address addr2) public pure returns(bool){... */\n      swap3\n      swap2\n      pop\n      pop\n      jump\t// out\n        /* \"AddressExample.sol\":86:110  address public myaddress */\n    tag_24:\n      0x00\n      0x00\n      swap1\n      sload\n      swap1\n      0x0100\n      exp\n      swap1\n      div\n      0xffffffffffffffffffffffffffffffffffffffff\n      and\n      dup2\n      jump\t// out\n        /* \"#utility.yul\":7:133   */\n    tag_30:\n        /* \"#utility.yul\":44:51   */\n      0x00\n        /* \"#utility.yul\":84:126   */\n      0xffffffffffffffffffffffffffffffffffffffff\n        /* \"#utility.yul\":77:82   */\n      dup3\n        /* \"#utility.yul\":73:127   */\n      and\n        /* \"#utility.yul\":62:127   */\n      swap1\n      pop\n        /* \"#utility.yul\":7:133   */\n      swap2\n      swap1\n      pop\n      jump\t// out\n        /* \"#utility.yul\":139:235   */\n    tag_31:\n        /* \"#utility.yul\":176:183   */\n      0x00\n        /* \"#utility.yul\":205:229   */\n      tag_52\n        /* \"#utility.yul\":223:228   */\n      dup3\n        /* \"#utility.yul\":205:229   */\n      tag_30\n      jump\t// in\n    tag_52:\n        /* \"#utility.yul\":194:229   */\n      swap1\n      pop\n        /* \"#utility.yul\":139:235   */\n      swap2\n      swap1\n      pop\n      jump\t// out\n        /* \"#utility.yul\":241:359   */\n    tag_32:\n        /* \"#utility.yul\":328:352   */\n      tag_54\n        /* \"#utility.yul\":346:351   */\n      dup2\n        /* \"#utility.yul\":328:352   */\n      tag_31\n      jump\t// in\n    tag_54:\n        /* \"#utility.yul\":323:326   */\n      dup3\n        /* \"#utility.yul\":316:353   */\n      mstore\n        /* \"#utility.yul\":241:359   */\n      pop\n      pop\n      jump\t// out\n        /* \"#utility.yul\":365:587   */\n    tag_10:\n        /* \"#utility.yul\":458:462   */\n      0x00\n        /* \"#utility.yul\":496:498   */\n      0x20\n        /* \"#utility.yul\":485:494   */\n      dup3\n        /* \"#utility.yul\":481:499   */\n      add\n        /* \"#utility.yul\":473:499   */\n      swap1\n      pop\n        /* \"#utility.yul\":509:580   */\n      tag_56\n        /* \"#utility.yul\":577:578   */\n      0x00\n        /* \"#utility.yul\":566:575   */\n      dup4\n        /* \"#utility.yul\":562:579   */\n      add\n        /* \"#utility.yul\":553:559   */\n      dup5\n        /* \"#utility.yul\":509:580   */\n      tag_32\n      jump\t// in\n    tag_56:\n        /* \"#utility.yul\":365:587   */\n      swap3\n      swap2\n      pop\n      pop\n      jump\t// out\n        /* \"#utility.yul\":674:791   */\n    tag_34:\n        /* \"#utility.yul\":783:784   */\n      0x00\n        /* \"#utility.yul\":780:781   */\n      0x00\n        /* \"#utility.yul\":773:785   */\n      revert\n        /* \"#utility.yul\":920:1042   */\n    tag_36:\n        /* \"#utility.yul\":993:1017   */\n      tag_61\n        /* \"#utility.yul\":1011:1016   */\n      dup2\n        /* \"#utility.yul\":993:1017   */\n      tag_31\n      jump\t// in\n    tag_61:\n        /* \"#utility.yul\":986:991   */\n      dup2\n        /* \"#utility.yul\":983:1018   */\n      eq\n        /* \"#utility.yul\":973:1036   */\n      tag_62\n      jumpi\n        /* \"#utility.yul\":1032:1033   */\n      0x00\n        /* \"#utility.yul\":1029:1030   */\n      0x00\n        /* \"#utility.yul\":1022:1034   */\n      revert\n        /* \"#utility.yul\":973:1036   */\n    tag_62:\n        /* \"#utility.yul\":920:1042   */\n      pop\n      jump\t// out\n        /* \"#utility.yul\":1048:1187   */\n    tag_37:\n        /* \"#utility.yul\":1094:1099   */\n      0x00\n        /* \"#utility.yul\":1132:1138   */\n      dup2\n        /* \"#utility.yul\":1119:1139   */\n      calldataload\n        /* \"#utility.yul\":1110:1139   */\n      swap1\n      pop\n        /* \"#utility.yul\":1148:1181   */\n      tag_64\n        /* \"#utility.yul\":1175:1180   */\n      dup2\n        /* \"#utility.yul\":1148:1181   */\n      tag_36\n      jump\t// in\n    tag_64:\n        /* \"#utility.yul\":1048:1187   */\n      swap3\n      swap2\n      pop\n      pop\n      jump\t// out\n        /* \"#utility.yul\":1193:1522   */\n    tag_13:\n        /* \"#utility.yul\":1252:1258   */\n      0x00\n        /* \"#utility.yul\":1301:1303   */\n      0x20\n        /* \"#utility.yul\":1289:1298   */\n      dup3\n        /* \"#utility.yul\":1280:1287   */\n      dup5\n        /* \"#utility.yul\":1276:1299   */\n      sub\n        /* \"#utility.yul\":1272:1304   */\n      slt\n        /* \"#utility.yul\":1269:1388   */\n      iszero\n      tag_66\n      jumpi\n        /* \"#utility.yul\":1307:1386   */\n      tag_67\n      tag_34\n      jump\t// in\n    tag_67:\n        /* \"#utility.yul\":1269:1388   */\n    tag_66:\n        /* \"#utility.yul\":1427:1428   */\n      0x00\n        /* \"#utility.yul\":1452:1505   */\n      tag_68\n        /* \"#utility.yul\":1497:1504   */\n      dup5\n        /* \"#utility.yul\":1488:1494   */\n      dup3\n        /* \"#utility.yul\":1477:1486   */\n      dup6\n        /* \"#utility.yul\":1473:1495   */\n      add\n        /* \"#utility.yul\":1452:1505   */\n      tag_37\n      jump\t// in\n    tag_68:\n        /* \"#utility.yul\":1442:1505   */\n      swap2\n      pop\n        /* \"#utility.yul\":1398:1515   */\n      pop\n        /* \"#utility.yul\":1193:1522   */\n      swap3\n      swap2\n      pop\n      pop\n      jump\t// out\n        /* \"#utility.yul\":1528:1626   */\n    tag_38:\n        /* \"#utility.yul\":1579:1585   */\n      0x00\n        /* \"#utility.yul\":1613:1618   */\n      dup2\n        /* \"#utility.yul\":1607:1619   */\n      mload\n        /* \"#utility.yul\":1597:1619   */\n      swap1\n      pop\n        /* \"#utility.yul\":1528:1626   */\n      swap2\n      swap1\n      pop\n      jump\t// out\n        /* \"#utility.yul\":1632:1800   */\n    tag_39:\n        /* \"#utility.yul\":1715:1726   */\n      0x00\n        /* \"#utility.yul\":1749:1755   */\n      dup3\n        /* \"#utility.yul\":1744:1747   */\n      dup3\n        /* \"#utility.yul\":1737:1756   */\n      mstore\n        /* \"#utility.yul\":1789:1793   */\n      0x20\n        /* \"#utility.yul\":1784:1787   */\n      dup3\n        /* \"#utility.yul\":1780:1794   */\n      add\n        /* \"#utility.yul\":1765:1794   */\n      swap1\n      pop\n        /* \"#utility.yul\":1632:1800   */\n      swap3\n      swap2\n      pop\n      pop\n      jump\t// out\n        /* \"#utility.yul\":1806:1945   */\n    tag_40:\n        /* \"#utility.yul\":1895:1901   */\n      dup3\n        /* \"#utility.yul\":1890:1893   */\n      dup2\n        /* \"#utility.yul\":1885:1888   */\n      dup4\n        /* \"#utility.yul\":1879:1902   */\n      mcopy\n        /* \"#utility.yul\":1936:1937   */\n      0x00\n        /* \"#utility.yul\":1927:1933   */\n      dup4\n        /* \"#utility.yul\":1922:1925   */\n      dup4\n        /* \"#utility.yul\":1918:1934   */\n      add\n        /* \"#utility.yul\":1911:1938   */\n      mstore\n        /* \"#utility.yul\":1806:1945   */\n      pop\n      pop\n      pop\n      jump\t// out\n        /* \"#utility.yul\":1951:2053   */\n    tag_41:\n        /* \"#utility.yul\":1992:1998   */\n      0x00\n        /* \"#utility.yul\":2043:2045   */\n      0x1f\n        /* \"#utility.yul\":2039:2046   */\n      not\n        /* \"#utility.yul\":2034:2036   */\n      0x1f\n        /* \"#utility.yul\":2027:2032   */\n      dup4\n        /* \"#utility.yul\":2023:2037   */\n      add\n        /* \"#utility.yul\":2019:2047   */\n      and\n        /* \"#utility.yul\":2009:2047   */\n      swap1\n      pop\n        /* \"#utility.yul\":1951:2053   */\n      swap2\n      swap1\n      pop\n      jump\t// out\n        /* \"#utility.yul\":2059:2432   */\n    tag_42:\n        /* \"#utility.yul\":2145:2148   */\n      0x00\n        /* \"#utility.yul\":2173:2211   */\n      tag_74\n        /* \"#utility.yul\":2205:2210   */\n      dup3\n        /* \"#utility.yul\":2173:2211   */\n      tag_38\n      jump\t// in\n    tag_74:\n        /* \"#utility.yul\":2227:2297   */\n      tag_75\n        /* \"#utility.yul\":2290:2296   */\n      dup2\n        /* \"#utility.yul\":2285:2288   */\n      dup6\n        /* \"#utility.yul\":2227:2297   */\n      tag_39\n      jump\t// in\n    tag_75:\n        /* \"#utility.yul\":2220:2297   */\n      swap4\n      pop\n        /* \"#utility.yul\":2306:2371   */\n      tag_76\n        /* \"#utility.yul\":2364:2370   */\n      dup2\n        /* \"#utility.yul\":2359:2362   */\n      dup6\n        /* \"#utility.yul\":2352:2356   */\n      0x20\n        /* \"#utility.yul\":2345:2350   */\n      dup7\n        /* \"#utility.yul\":2341:2357   */\n      add\n        /* \"#utility.yul\":2306:2371   */\n      tag_40\n      jump\t// in\n    tag_76:\n        /* \"#utility.yul\":2396:2425   */\n      tag_77\n        /* \"#utility.yul\":2418:2424   */\n      dup2\n        /* \"#utility.yul\":2396:2425   */\n      tag_41\n      jump\t// in\n    tag_77:\n        /* \"#utility.yul\":2391:2394   */\n      dup5\n        /* \"#utility.yul\":2387:2426   */\n      add\n        /* \"#utility.yul\":2380:2426   */\n      swap2\n      pop\n        /* \"#utility.yul\":2149:2432   */\n      pop\n        /* \"#utility.yul\":2059:2432   */\n      swap3\n      swap2\n      pop\n      pop\n      jump\t// out\n        /* \"#utility.yul\":2438:2747   */\n    tag_16:\n        /* \"#utility.yul\":2549:2553   */\n      0x00\n        /* \"#utility.yul\":2587:2589   */\n      0x20\n        /* \"#utility.yul\":2576:2585   */\n      dup3\n        /* \"#utility.yul\":2572:2590   */\n      add\n        /* \"#utility.yul\":2564:2590   */\n      swap1\n      pop\n        /* \"#utility.yul\":2636:2645   */\n      dup2\n        /* \"#utility.yul\":2630:2634   */\n      dup2\n        /* \"#utility.yul\":2626:2646   */\n      sub\n        /* \"#utility.yul\":2622:2623   */\n      0x00\n        /* \"#utility.yul\":2611:2620   */\n      dup4\n        /* \"#utility.yul\":2607:2624   */\n      add\n        /* \"#utility.yul\":2600:2647   */\n      mstore\n        /* \"#utility.yul\":2664:2740   */\n      tag_79\n        /* \"#utility.yul\":2735:2739   */\n      dup2\n        /* \"#utility.yul\":2726:2732   */\n      dup5\n        /* \"#utility.yul\":2664:2740   */\n      tag_42\n      jump\t// in\n    tag_79:\n        /* \"#utility.yul\":2656:2740   */\n      swap1\n      pop\n        /* \"#utility.yul\":2438:2747   */\n      swap3\n      swap2\n      pop\n      pop\n      jump\t// out\n        /* \"#utility.yul\":2753:3227   */\n    tag_19:\n        /* \"#utility.yul\":2821:2827   */\n      0x00\n        /* \"#utility.yul\":2829:2835   */\n      0x00\n        /* \"#utility.yul\":2878:2880   */\n      0x40\n        /* \"#utility.yul\":2866:2875   */\n      dup4\n        /* \"#utility.yul\":2857:2864   */\n      dup6\n        /* \"#utility.yul\":2853:2876   */\n      sub\n        /* \"#utility.yul\":2849:2881   */\n      slt\n        /* \"#utility.yul\":2846:2965   */\n      iszero\n      tag_81\n      jumpi\n        /* \"#utility.yul\":2884:2963   */\n      tag_82\n      tag_34\n      jump\t// in\n    tag_82:\n        /* \"#utility.yul\":2846:2965   */\n    tag_81:\n        /* \"#utility.yul\":3004:3005   */\n      0x00\n        /* \"#utility.yul\":3029:3082   */\n      tag_83\n        /* \"#utility.yul\":3074:3081   */\n      dup6\n        /* \"#utility.yul\":3065:3071   */\n      dup3\n        /* \"#utility.yul\":3054:3063   */\n      dup7\n        /* \"#utility.yul\":3050:3072   */\n      add\n        /* \"#utility.yul\":3029:3082   */\n      tag_37\n      jump\t// in\n    tag_83:\n        /* \"#utility.yul\":3019:3082   */\n      swap3\n      pop\n        /* \"#utility.yul\":2975:3092   */\n      pop\n        /* \"#utility.yul\":3131:3133   */\n      0x20\n        /* \"#utility.yul\":3157:3210   */\n      tag_84\n        /* \"#utility.yul\":3202:3209   */\n      dup6\n        /* \"#utility.yul\":3193:3199   */\n      dup3\n        /* \"#utility.yul\":3182:3191   */\n      dup7\n        /* \"#utility.yul\":3178:3200   */\n      add\n        /* \"#utility.yul\":3157:3210   */\n      tag_37\n      jump\t// in\n    tag_84:\n        /* \"#utility.yul\":3147:3210   */\n      swap2\n      pop\n        /* \"#utility.yul\":3102:3220   */\n      pop\n        /* \"#utility.yul\":2753:3227   */\n      swap3\n      pop\n      swap3\n      swap1\n      pop\n      jump\t// out\n        /* \"#utility.yul\":3233:3323   */\n    tag_43:\n        /* \"#utility.yul\":3267:3274   */\n      0x00\n        /* \"#utility.yul\":3310:3315   */\n      dup2\n        /* \"#utility.yul\":3303:3316   */\n      iszero\n        /* \"#utility.yul\":3296:3317   */\n      iszero\n        /* \"#utility.yul\":3285:3317   */\n      swap1\n      pop\n        /* \"#utility.yul\":3233:3323   */\n      swap2\n      swap1\n      pop\n      jump\t// out\n        /* \"#utility.yul\":3329:3438   */\n    tag_44:\n        /* \"#utility.yul\":3410:3431   */\n      tag_87\n        /* \"#utility.yul\":3425:3430   */\n      dup2\n        /* \"#utility.yul\":3410:3431   */\n      tag_43\n      jump\t// in\n    tag_87:\n        /* \"#utility.yul\":3405:3408   */\n      dup3\n        /* \"#utility.yul\":3398:3432   */\n      mstore\n        /* \"#utility.yul\":3329:3438   */\n      pop\n      pop\n      jump\t// out\n        /* \"#utility.yul\":3444:3654   */\n    tag_22:\n        /* \"#utility.yul\":3531:3535   */\n      0x00\n        /* \"#utility.yul\":3569:3571   */\n      0x20\n        /* \"#utility.yul\":3558:3567   */\n      dup3\n        /* \"#utility.yul\":3554:3572   */\n      add\n        /* \"#utility.yul\":3546:3572   */\n      swap1\n      pop\n        /* \"#utility.yul\":3582:3647   */\n      tag_89\n        /* \"#utility.yul\":3644:3645   */\n      0x00\n        /* \"#utility.yul\":3633:3642   */\n      dup4\n        /* \"#utility.yul\":3629:3646   */\n      add\n        /* \"#utility.yul\":3620:3626   */\n      dup5\n        /* \"#utility.yul\":3582:3647   */\n      tag_44\n      jump\t// in\n    tag_89:\n        /* \"#utility.yul\":3444:3654   */\n      swap3\n      swap2\n      pop\n      pop\n      jump\t// out\n        /* \"#utility.yul\":3660:3754   */\n    tag_45:\n        /* \"#utility.yul\":3693:3701   */\n      0x00\n        /* \"#utility.yul\":3741:3746   */\n      dup2\n        /* \"#utility.yul\":3737:3739   */\n      0x60\n        /* \"#utility.yul\":3733:3747   */\n      shl\n        /* \"#utility.yul\":3712:3747   */\n      swap1\n      pop\n        /* \"#utility.yul\":3660:3754   */\n      swap2\n      swap1\n      pop\n      jump\t// out\n        /* \"#utility.yul\":3760:3854   */\n    tag_46:\n        /* \"#utility.yul\":3799:3806   */\n      0x00\n        /* \"#utility.yul\":3828:3848   */\n      tag_92\n        /* \"#utility.yul\":3842:3847   */\n      dup3\n        /* \"#utility.yul\":3828:3848   */\n      tag_45\n      jump\t// in\n    tag_92:\n        /* \"#utility.yul\":3817:3848   */\n      swap1\n      pop\n        /* \"#utility.yul\":3760:3854   */\n      swap2\n      swap1\n      pop\n      jump\t// out\n        /* \"#utility.yul\":3860:3960   */\n    tag_47:\n        /* \"#utility.yul\":3899:3906   */\n      0x00\n        /* \"#utility.yul\":3928:3954   */\n      tag_94\n        /* \"#utility.yul\":3948:3953   */\n      dup3\n        /* \"#utility.yul\":3928:3954   */\n      tag_46\n      jump\t// in\n    tag_94:\n        /* \"#utility.yul\":3917:3954   */\n      swap1\n      pop\n        /* \"#utility.yul\":3860:3960   */\n      swap2\n      swap1\n      pop\n      jump\t// out\n        /* \"#utility.yul\":3966:4123   */\n    tag_48:\n        /* \"#utility.yul\":4071:4116   */\n      tag_96\n        /* \"#utility.yul\":4091:4115   */\n      tag_97\n        /* \"#utility.yul\":4109:4114   */\n      dup3\n        /* \"#utility.yul\":4091:4115   */\n      tag_31\n      jump\t// in\n    tag_97:\n        /* \"#utility.yul\":4071:4116   */\n      tag_47\n      jump\t// in\n    tag_96:\n        /* \"#utility.yul\":4066:4069   */\n      dup3\n        /* \"#utility.yul\":4059:4117   */\n      mstore\n        /* \"#utility.yul\":3966:4123   */\n      pop\n      pop\n      jump\t// out\n        /* \"#utility.yul\":4129:4385   */\n    tag_28:\n        /* \"#utility.yul\":4241:4244   */\n      0x00\n        /* \"#utility.yul\":4256:4331   */\n      tag_99\n        /* \"#utility.yul\":4327:4330   */\n      dup3\n        /* \"#utility.yul\":4318:4324   */\n      dup5\n        /* \"#utility.yul\":4256:4331   */\n      tag_48\n      jump\t// in\n    tag_99:\n        /* \"#utility.yul\":4356:4358   */\n      0x14\n        /* \"#utility.yul\":4351:4354   */\n      dup3\n        /* \"#utility.yul\":4347:4359   */\n      add\n        /* \"#utility.yul\":4340:4359   */\n      swap2\n      pop\n        /* \"#utility.yul\":4376:4379   */\n      dup2\n        /* \"#utility.yul\":4369:4379   */\n      swap1\n      pop\n        /* \"#utility.yul\":4129:4385   */\n      swap3\n      swap2\n      pop\n      pop\n      jump\t// out\n\n    auxdata: 0xa26469706673582212205655fab928b5f709fb3d6099e2d2873245daf4b3a85a603ffeb9ce1623a2817f64736f6c634300081e0033\n}\n",
				"bytecode": {
					"linkReferences": {},
					"object": "60806040523360015f6101000a81548173ffffffffffffffffffffffffffffffffffffffff021916908373ffffffffffffffffffffffffffffffffffffffff160217905550348015604e575f5ffd5b506103db8061005c5f395ff3fe608060405234801561000f575f5ffd5b506004361061004a575f3560e01c806329b326971461004e578063593b79fe1461006c57806395e885c01461009c578063fcf814c3146100cc575b5f5ffd5b6100566100ea565b60405161006391906101d3565b60405180910390f35b6100866004803603810190610081919061021a565b61010f565b60405161009391906102b5565b60405180910390f35b6100b660048036038101906100b191906102d5565b610138565b6040516100c3919061032d565b60405180910390f35b6100d4610170565b6040516100e191906101d3565b60405180910390f35b60015f9054906101000a900473ffffffffffffffffffffffffffffffffffffffff1681565b606081604051602001610122919061038b565b6040516020818303038152906040529050919050565b5f8173ffffffffffffffffffffffffffffffffffffffff168373ffffffffffffffffffffffffffffffffffffffff1614905092915050565b5f5f9054906101000a900473ffffffffffffffffffffffffffffffffffffffff1681565b5f73ffffffffffffffffffffffffffffffffffffffff82169050919050565b5f6101bd82610194565b9050919050565b6101cd816101b3565b82525050565b5f6020820190506101e65f8301846101c4565b92915050565b5f5ffd5b6101f9816101b3565b8114610203575f5ffd5b50565b5f81359050610214816101f0565b92915050565b5f6020828403121561022f5761022e6101ec565b5b5f61023c84828501610206565b91505092915050565b5f81519050919050565b5f82825260208201905092915050565b8281835e5f83830152505050565b5f601f19601f8301169050919050565b5f61028782610245565b610291818561024f565b93506102a181856020860161025f565b6102aa8161026d565b840191505092915050565b5f6020820190508181035f8301526102cd818461027d565b905092915050565b5f5f604083850312156102eb576102ea6101ec565b5b5f6102f885828601610206565b925050602061030985828601610206565b9150509250929050565b5f8115159050919050565b61032781610313565b82525050565b5f6020820190506103405f83018461031e565b92915050565b5f8160601b9050919050565b5f61035c82610346565b9050919050565b5f61036d82610352565b9050919050565b610385610380826101b3565b610363565b82525050565b5f6103968284610374565b6014820191508190509291505056fea26469706673582212205655fab928b5f709fb3d6099e2d2873245daf4b3a85a603ffeb9ce1623a2817f64736f6c634300081e0033",
					"opcodes": "PUSH1 0x80 PUSH1 0x40 MSTORE CALLER PUSH1 0x1 PUSH0 PUSH2 0x100 EXP DUP2 SLOAD DUP2 PUSH20 0xFFFFFFFFFFFFFFFFFFFFFFFFFFFFFFFFFFFFFFFF MUL NOT AND SWAP1 DUP4 PUSH20 0xFFFFFFFFFFFFFFFFFFFFFFFFFFFFFFFFFFFFFFFF AND MUL OR SWAP1 SSTORE POP CALLVALUE DUP1 ISZERO PUSH1 0x4E JUMPI PUSH0 PUSH0 REVERT JUMPDEST POP PUSH2 0x3DB DUP1 PUSH2 0x5C PUSH0 CODECOPY PUSH0 RETURN INVALID PUSH1 0x80 PUSH1 0x40 MSTORE CALLVALUE DUP1 ISZERO PUSH2 0xF JUMPI PUSH0 PUSH0 REVERT JUMPDEST POP PUSH1 0x4 CALLDATASIZE LT PUSH2 0x4A JUMPI PUSH0 CALLDATALOAD PUSH1 0xE0 SHR DUP1 PUSH4 0x29B32697 EQ PUSH2 0x4E JUMPI DUP1 PUSH4 0x593B79FE EQ PUSH2 0x6C JUMPI DUP1 PUSH4 0x95E885C0 EQ PUSH2 0x9C JUMPI DUP1 PUSH4 0xFCF814C3 EQ PUSH2 0xCC JUMPI JUMPDEST PUSH0 PUSH0 REVERT JUMPDEST PUSH2 0x56 PUSH2 0xEA JUMP JUMPDEST PUSH1 0x40 MLOAD PUSH2 0x63 SWAP2 SWAP1 PUSH2 0x1D3 JUMP JUMPDEST PUSH1 0x40 MLOAD DUP1 SWAP2 SUB SWAP1 RETURN JUMPDEST PUSH2 0x86 PUSH1 0x4 DUP1 CALLDATASIZE SUB DUP2 ADD SWAP1 PUSH2 0x81 SWAP2 SWAP1 PUSH2 0x21A JUMP JUMPDEST PUSH2 0x10F JUMP JUMPDEST PUSH1 0x40 MLOAD PUSH2 0x93 SWAP2 SWAP1 PUSH2 0x2B5 JUMP JUMPDEST PUSH1 0x40 MLOAD DUP1 SWAP2 SUB SWAP1 RETURN JUMPDEST PUSH2 0xB6 PUSH1 0x4 DUP1 CALLDATASIZE SUB DUP2 ADD SWAP1 PUSH2 0xB1 SWAP2 SWAP1 PUSH2 0x2D5 JUMP JUMPDEST PUSH2 0x138 JUMP JUMPDEST PUSH1 0x40 MLOAD PUSH2 0xC3 SWAP2 SWAP1 PUSH2 0x32D JUMP JUMPDEST PUSH1 0x40 MLOAD DUP1 SWAP2 SUB SWAP1 RETURN JUMPDEST PUSH2 0xD4 PUSH2 0x170 JUMP JUMPDEST PUSH1 0x40 MLOAD PUSH2 0xE1 SWAP2 SWAP1 PUSH2 0x1D3 JUMP JUMPDEST PUSH1 0x40 MLOAD DUP1 SWAP2 SUB SWAP1 RETURN JUMPDEST PUSH1 0x1 PUSH0 SWAP1 SLOAD SWAP1 PUSH2 0x100 EXP SWAP1 DIV PUSH20 0xFFFFFFFFFFFFFFFFFFFFFFFFFFFFFFFFFFFFFFFF AND DUP2 JUMP JUMPDEST PUSH1 0x60 DUP2 PUSH1 0x40 MLOAD PUSH1 0x20 ADD PUSH2 0x122 SWAP2 SWAP1 PUSH2 0x38B JUMP JUMPDEST PUSH1 0x40 MLOAD PUSH1 0x20 DUP2 DUP4 SUB SUB DUP2 MSTORE SWAP1 PUSH1 0x40 MSTORE SWAP1 POP SWAP2 SWAP1 POP JUMP JUMPDEST PUSH0 DUP2 PUSH20 0xFFFFFFFFFFFFFFFFFFFFFFFFFFFFFFFFFFFFFFFF AND DUP4 PUSH20 0xFFFFFFFFFFFFFFFFFFFFFFFFFFFFFFFFFFFFFFFF AND EQ SWAP1 POP SWAP3 SWAP2 POP POP JUMP JUMPDEST PUSH0 PUSH0 SWAP1 SLOAD SWAP1 PUSH2 0x100 EXP SWAP1 DIV PUSH20 0xFFFFFFFFFFFFFFFFFFFFFFFFFFFFFFFFFFFFFFFF AND DUP2 JUMP JUMPDEST PUSH0 PUSH20 0xFFFFFFFFFFFFFFFFFFFFFFFFFFFFFFFFFFFFFFFF DUP3 AND SWAP1 POP SWAP2 SWAP1 POP JUMP JUMPDEST PUSH0 PUSH2 0x1BD DUP3 PUSH2 0x194 JUMP JUMPDEST SWAP1 POP SWAP2 SWAP1 POP JUMP JUMPDEST PUSH2 0x1CD DUP2 PUSH2 0x1B3 JUMP JUMPDEST DUP3 MSTORE POP POP JUMP JUMPDEST PUSH0 PUSH1 0x20 DUP3 ADD SWAP1 POP PUSH2 0x1E6 PUSH0 DUP4 ADD DUP5 PUSH2 0x1C4 JUMP JUMPDEST SWAP3 SWAP2 POP POP JUMP JUMPDEST PUSH0 PUSH0 REVERT JUMPDEST PUSH2 0x1F9 DUP2 PUSH2 0x1B3 JUMP JUMPDEST DUP2 EQ PUSH2 0x203 JUMPI PUSH0 PUSH0 REVERT JUMPDEST POP JUMP JUMPDEST PUSH0 DUP2 CALLDATALOAD SWAP1 POP PUSH2 0x214 DUP2 PUSH2 0x1F0 JUMP JUMPDEST SWAP3 SWAP2 POP POP JUMP JUMPDEST PUSH0 PUSH1 0x20 DUP3 DUP5 SUB SLT ISZERO PUSH2 0x22F JUMPI PUSH2 0x22E PUSH2 0x1EC JUMP JUMPDEST JUMPDEST PUSH0 PUSH2 0x23C DUP5 DUP3 DUP6 ADD PUSH2 0x206 JUMP JUMPDEST SWAP2 POP POP SWAP3 SWAP2 POP POP JUMP JUMPDEST PUSH0 DUP2 MLOAD SWAP1 POP SWAP2 SWAP1 POP JUMP JUMPDEST PUSH0 DUP3 DUP3 MSTORE PUSH1 0x20 DUP3 ADD SWAP1 POP SWAP3 SWAP2 POP POP JUMP JUMPDEST DUP3 DUP2 DUP4 MCOPY PUSH0 DUP4 DUP4 ADD MSTORE POP POP POP JUMP JUMPDEST PUSH0 PUSH1 0x1F NOT PUSH1 0x1F DUP4 ADD AND SWAP1 POP SWAP2 SWAP1 POP JUMP JUMPDEST PUSH0 PUSH2 0x287 DUP3 PUSH2 0x245 JUMP JUMPDEST PUSH2 0x291 DUP2 DUP6 PUSH2 0x24F JUMP JUMPDEST SWAP4 POP PUSH2 0x2A1 DUP2 DUP6 PUSH1 0x20 DUP7 ADD PUSH2 0x25F JUMP JUMPDEST PUSH2 0x2AA DUP2 PUSH2 0x26D JUMP JUMPDEST DUP5 ADD SWAP2 POP POP SWAP3 SWAP2 POP POP JUMP JUMPDEST PUSH0 PUSH1 0x20 DUP3 ADD SWAP1 POP DUP2 DUP2 SUB PUSH0 DUP4 ADD MSTORE PUSH2 0x2CD DUP2 DUP5 PUSH2 0x27D JUMP JUMPDEST SWAP1 POP SWAP3 SWAP2 POP POP JUMP JUMPDEST PUSH0 PUSH0 PUSH1 0x40 DUP4 DUP6 SUB SLT ISZERO PUSH2 0x2EB JUMPI PUSH2 0x2EA PUSH2 0x1EC JUMP JUMPDEST JUMPDEST PUSH0 PUSH2 0x2F8 DUP6 DUP3 DUP7 ADD PUSH2 0x206 JUMP JUMPDEST SWAP3 POP POP PUSH1 0x20 PUSH2 0x309 DUP6 DUP3 DUP7 ADD PUSH2 0x206 JUMP JUMPDEST SWAP2 POP POP SWAP3 POP SWAP3 SWAP1 POP JUMP JUMPDEST PUSH0 DUP2 ISZERO ISZERO SWAP1 POP SWAP2 SWAP1 POP JUMP JUMPDEST PUSH2 0x327 DUP2 PUSH2 0x313 JUMP JUMPDEST DUP3 MSTORE POP POP JUMP JUMPDEST PUSH0 PUSH1 0x20 DUP3 ADD SWAP1 POP PUSH2 0x340 PUSH0 DUP4 ADD DUP5 PUSH2 0x31E JUMP JUMPDEST SWAP3 SWAP2 POP POP JUMP JUMPDEST PUSH0 DUP2 PUSH1 0x60 SHL SWAP1 POP SWAP2 SWAP1 POP JUMP JUMPDEST PUSH0 PUSH2 0x35C DUP3 PUSH2 0x346 JUMP JUMPDEST SWAP1 POP SWAP2 SWAP1 POP JUMP JUMPDEST PUSH0 PUSH2 0x36D DUP3 PUSH2 0x352 JUMP JUMPDEST SWAP1 POP SWAP2 SWAP1 POP JUMP JUMPDEST PUSH2 0x385 PUSH2 0x380 DUP3 PUSH2 0x1B3 JUMP JUMPDEST PUSH2 0x363 JUMP JUMPDEST DUP3 MSTORE POP POP JUMP JUMPDEST PUSH0 PUSH2 0x396 DUP3 DUP5 PUSH2 0x374 JUMP JUMPDEST PUSH1 0x14 DUP3 ADD SWAP2 POP DUP2 SWAP1 POP SWAP3 SWAP2 POP POP JUMP INVALID LOG2 PUSH5 0x6970667358 0x22 SLT KECCAK256 JUMP SSTORE STATICCALL 0xB9 0x28 0xB5 0xF7 MULMOD EXTSTATICCALL RETURNDATASIZE PUSH1 0x99 0xE2 0xD2 DUP8 ORIGIN GASLIMIT 0xDA DELEGATECALL 0xB3 0xA8 GAS PUSH1 0x3F INVALID 0xB9 0xCE AND 0x23 LOG2 DUP2 PUSH32 0x64736F6C634300081E0033000000000000000000000000000000000000000000 "
				},
				"gasEstimates": {
					"creation": {
						"codeDepositCost": "197400",
						"executionCost": "24501",
						"totalCost": "221901"
					},
					"external": {
						"clller()": "2486",
						"compareAddress(address,address)": "infinite",
						"myaddress()": "2551",
						"toBytes(address)": "infinite"
					}
				},
				"methodIdentifiers": {
					"clller()": "29b32697",
					"compareAddress(address,address)": "95e885c0",
					"myaddress()": "fcf814c3",
					"toBytes(address)": "593b79fe"
				}
			},
			"storageLayout": {
				"storage": [
					{
						"astId": 3,
						"contract": "AddressExample.sol:AddressExample",
						"label": "myaddress",
						"offset": 0,
						"slot": "0",
						"type": "t_address"
					},
					{
						"astId": 7,
						"contract": "AddressExample.sol:AddressExample",
						"label": "clller",
						"offset": 0,
						"slot": "1",
						"type": "t_address"
					}
				],
				"types": {
					"t_address": {
						"encoding": "inplace",
						"label": "address",
						"numberOfBytes": "20"
					}
				}
			},
			"userdoc": {
				"kind": "user",
				"methods": {},
				"version": 1
			}
		}
	}
}