{
	"EthSaving/comment.sol": {
		"CommentLikeContract": {
			"abi": [
				{
					"anonymous": false,
					"inputs": [
						{
							"indexed": true,
							"internalType": "uint256",
							"name": "id",
							"type": "uint256"
						},
						{
							"indexed": true,
							"internalType": "address",
							"name": "liker",
							"type": "address"
						}
					],
					"name": "CommentLiked",
					"type": "event"
				},
				{
					"anonymous": false,
					"inputs": [
						{
							"indexed": true,
							"internalType": "uint256",
							"name": "id",
							"type": "uint256"
						},
						{
							"indexed": true,
							"internalType": "address",
							"name": "author",
							"type": "address"
						},
						{
							"indexed": false,
							"internalType": "string",
							"name": "comment",
							"type": "string"
						}
					],
					"name": "CommentPosted",
					"type": "event"
				},
				{
					"inputs": [
						{
							"internalType": "uint256",
							"name": "",
							"type": "uint256"
						}
					],
					"name": "comments",
					"outputs": [
						{
							"internalType": "uint256",
							"name": "id",
							"type": "uint256"
						},
						{
							"internalType": "address",
							"name": "author",
							"type": "address"
						},
						{
							"internalType": "string",
							"name": "comment",
							"type": "string"
						},
						{
							"internalType": "uint256",
							"name": "count",
							"type": "uint256"
						}
					],
					"stateMutability": "view",
					"type": "function"
				},
				{
					"inputs": [
						{
							"internalType": "uint256",
							"name": "_commentId",
							"type": "uint256"
						}
					],
					"name": "likeComment",
					"outputs": [],
					"stateMutability": "nonpayable",
					"type": "function"
				},
				{
					"inputs": [
						{
							"internalType": "uint256",
							"name": "",
							"type": "uint256"
						},
						{
							"internalType": "address",
							"name": "",
							"type": "address"
						}
					],
					"name": "liked",
					"outputs": [
						{
							"internalType": "bool",
							"name": "",
							"type": "bool"
						}
					],
					"stateMutability": "view",
					"type": "function"
				},
				{
					"inputs": [],
					"name": "nextId",
					"outputs": [
						{
							"internalType": "uint256",
							"name": "",
							"type": "uint256"
						}
					],
					"stateMutability": "view",
					"type": "function"
				},
				{
					"inputs": [
						{
							"internalType": "string",
							"name": "_comment",
							"type": "string"
						}
					],
					"name": "postComment",
					"outputs": [],
					"stateMutability": "nonpayable",
					"type": "function"
				}
			],
			"devdoc": {
				"kind": "dev",
				"methods": {},
				"version": 1
			},
			"evm": {
				"assembly": "    /* \"EthSaving/comment.sol\":58:1400  contract CommentLikeContract {... */\n  mstore(0x40, 0x80)\n    /* \"EthSaving/comment.sol\":228:229  1 */\n  0x01\n    /* \"EthSaving/comment.sol\":207:229  uint public nextId = 1 */\n  0x00\n  sstore\n    /* \"EthSaving/comment.sol\":58:1400  contract CommentLikeContract {... */\n  callvalue\n  dup1\n  iszero\n  tag_1\n  jumpi\n  revert(0x00, 0x00)\ntag_1:\n  pop\n  dataSize(sub_0)\n  dup1\n  dataOffset(sub_0)\n  0x00\n  codecopy\n  0x00\n  return\nstop\n\nsub_0: assembly {\n        /* \"EthSaving/comment.sol\":58:1400  contract CommentLikeContract {... */\n      mstore(0x40, 0x80)\n      callvalue\n      dup1\n      iszero\n      tag_1\n      jumpi\n      revert(0x00, 0x00)\n    tag_1:\n      pop\n      jumpi(tag_2, lt(calldatasize, 0x04))\n      shr(0xe0, calldataload(0x00))\n      dup1\n      0x012cc1e2\n      eq\n      tag_3\n      jumpi\n      dup1\n      0x02c42787\n      eq\n      tag_4\n      jumpi\n      dup1\n      0x61b8ce8c\n      eq\n      tag_5\n      jumpi\n      dup1\n      0x8cb7b351\n      eq\n      tag_6\n      jumpi\n      dup1\n      0x8ebb4c15\n      eq\n      tag_7\n      jumpi\n    tag_2:\n      revert(0x00, 0x00)\n        /* \"EthSaving/comment.sol\":1025:1397  function likeComment(uint _commentId) external {... */\n    tag_3:\n      tag_8\n      0x04\n      dup1\n      calldatasize\n      sub\n      dup2\n      add\n      swap1\n      tag_9\n      swap2\n      swap1\n      tag_10\n      jump\t// in\n    tag_9:\n      tag_11\n      jump\t// in\n    tag_8:\n      stop\n        /* \"EthSaving/comment.sol\":282:336  mapping(uint => mapping(address => bool)) public liked */\n    tag_4:\n      tag_12\n      0x04\n      dup1\n      calldatasize\n      sub\n      dup2\n      add\n      swap1\n      tag_13\n      swap2\n      swap1\n      tag_14\n      jump\t// in\n    tag_13:\n      tag_15\n      jump\t// in\n    tag_12:\n      mload(0x40)\n      tag_16\n      swap2\n      swap1\n      tag_17\n      jump\t// in\n    tag_16:\n      mload(0x40)\n      dup1\n      swap2\n      sub\n      swap1\n      return\n        /* \"EthSaving/comment.sol\":207:229  uint public nextId = 1 */\n    tag_5:\n      tag_18\n      tag_19\n      jump\t// in\n    tag_18:\n      mload(0x40)\n      tag_20\n      swap2\n      swap1\n      tag_21\n      jump\t// in\n    tag_20:\n      mload(0x40)\n      dup1\n      swap2\n      sub\n      swap1\n      return\n        /* \"EthSaving/comment.sol\":591:1006  function postComment(string memory _comment) external {... */\n    tag_6:\n      tag_22\n      0x04\n      dup1\n      calldatasize\n      sub\n      dup2\n      add\n      swap1\n      tag_23\n      swap2\n      swap1\n      tag_24\n      jump\t// in\n    tag_23:\n      tag_25\n      jump\t// in\n    tag_22:\n      stop\n        /* \"EthSaving/comment.sol\":235:275  mapping(uint => Comment) public comments */\n    tag_7:\n      tag_26\n      0x04\n      dup1\n      calldatasize\n      sub\n      dup2\n      add\n      swap1\n      tag_27\n      swap2\n      swap1\n      tag_10\n      jump\t// in\n    tag_27:\n      tag_28\n      jump\t// in\n    tag_26:\n      mload(0x40)\n      tag_29\n      swap5\n      swap4\n      swap3\n      swap2\n      swap1\n      tag_30\n      jump\t// in\n    tag_29:\n      mload(0x40)\n      dup1\n      swap2\n      sub\n      swap1\n      return\n        /* \"EthSaving/comment.sol\":1025:1397  function likeComment(uint _commentId) external {... */\n    tag_11:\n        /* \"EthSaving/comment.sol\":1103:1104  0 */\n      0x00\n        /* \"EthSaving/comment.sol\":1090:1100  _commentId */\n      dup2\n        /* \"EthSaving/comment.sol\":1090:1104  _commentId > 0 */\n      gt\n        /* \"EthSaving/comment.sol\":1090:1127  _commentId > 0 && _commentId < nextId */\n      dup1\n      iszero\n      tag_32\n      jumpi\n      pop\n        /* \"EthSaving/comment.sol\":1121:1127  nextId */\n      sload(0x00)\n        /* \"EthSaving/comment.sol\":1108:1118  _commentId */\n      dup2\n        /* \"EthSaving/comment.sol\":1108:1127  _commentId < nextId */\n      lt\n        /* \"EthSaving/comment.sol\":1090:1127  _commentId > 0 && _commentId < nextId */\n    tag_32:\n        /* \"EthSaving/comment.sol\":1082:1161  require(_commentId > 0 && _commentId < nextId, \"This is an invalid comment ID\") */\n      tag_33\n      jumpi\n      mload(0x40)\n      0x08c379a000000000000000000000000000000000000000000000000000000000\n      dup2\n      mstore\n      0x04\n      add\n      tag_34\n      swap1\n      tag_35\n      jump\t// in\n    tag_34:\n      mload(0x40)\n      dup1\n      swap2\n      sub\n      swap1\n      revert\n    tag_33:\n        /* \"EthSaving/comment.sol\":1180:1185  liked */\n      0x02\n        /* \"EthSaving/comment.sol\":1180:1197  liked[_commentId] */\n      0x00\n        /* \"EthSaving/comment.sol\":1186:1196  _commentId */\n      dup3\n        /* \"EthSaving/comment.sol\":1180:1197  liked[_commentId] */\n      dup2\n      mstore\n      0x20\n      add\n      swap1\n      dup2\n      mstore\n      0x20\n      add\n      0x00\n      keccak256\n        /* \"EthSaving/comment.sol\":1180:1209  liked[_commentId][msg.sender] */\n      0x00\n        /* \"EthSaving/comment.sol\":1198:1208  msg.sender */\n      caller\n        /* \"EthSaving/comment.sol\":1180:1209  liked[_commentId][msg.sender] */\n      0xffffffffffffffffffffffffffffffffffffffff\n      and\n      0xffffffffffffffffffffffffffffffffffffffff\n      and\n      dup2\n      mstore\n      0x20\n      add\n      swap1\n      dup2\n      mstore\n      0x20\n      add\n      0x00\n      keccak256\n      0x00\n      swap1\n      sload\n      swap1\n      0x0100\n      exp\n      swap1\n      div\n      0xff\n      and\n        /* \"EthSaving/comment.sol\":1179:1209  !liked[_commentId][msg.sender] */\n      iszero\n        /* \"EthSaving/comment.sol\":1171:1253  require(!liked[_commentId][msg.sender], \"You had already thumbed up this comment\") */\n      tag_36\n      jumpi\n      mload(0x40)\n      0x08c379a000000000000000000000000000000000000000000000000000000000\n      dup2\n      mstore\n      0x04\n      add\n      tag_37\n      swap1\n      tag_38\n      jump\t// in\n    tag_37:\n      mload(0x40)\n      dup1\n      swap2\n      sub\n      swap1\n      revert\n    tag_36:\n        /* \"EthSaving/comment.sol\":1296:1300  true */\n      0x01\n        /* \"EthSaving/comment.sol\":1264:1269  liked */\n      0x02\n        /* \"EthSaving/comment.sol\":1264:1281  liked[_commentId] */\n      0x00\n        /* \"EthSaving/comment.sol\":1270:1280  _commentId */\n      dup4\n        /* \"EthSaving/comment.sol\":1264:1281  liked[_commentId] */\n      dup2\n      mstore\n      0x20\n      add\n      swap1\n      dup2\n      mstore\n      0x20\n      add\n      0x00\n      keccak256\n        /* \"EthSaving/comment.sol\":1264:1293  liked[_commentId][msg.sender] */\n      0x00\n        /* \"EthSaving/comment.sol\":1282:1292  msg.sender */\n      caller\n        /* \"EthSaving/comment.sol\":1264:1293  liked[_commentId][msg.sender] */\n      0xffffffffffffffffffffffffffffffffffffffff\n      and\n      0xffffffffffffffffffffffffffffffffffffffff\n      and\n      dup2\n      mstore\n      0x20\n      add\n      swap1\n      dup2\n      mstore\n      0x20\n      add\n      0x00\n      keccak256\n      0x00\n        /* \"EthSaving/comment.sol\":1264:1300  liked[_commentId][msg.sender] = true */\n      0x0100\n      exp\n      dup2\n      sload\n      dup2\n      0xff\n      mul\n      not\n      and\n      swap1\n      dup4\n      iszero\n      iszero\n      mul\n      or\n      swap1\n      sstore\n      pop\n        /* \"EthSaving/comment.sol\":1310:1318  comments */\n      0x01\n        /* \"EthSaving/comment.sol\":1310:1330  comments[_commentId] */\n      0x00\n        /* \"EthSaving/comment.sol\":1319:1329  _commentId */\n      dup3\n        /* \"EthSaving/comment.sol\":1310:1330  comments[_commentId] */\n      dup2\n      mstore\n      0x20\n      add\n      swap1\n      dup2\n      mstore\n      0x20\n      add\n      0x00\n      keccak256\n        /* \"EthSaving/comment.sol\":1310:1336  comments[_commentId].count */\n      0x03\n      add\n      0x00\n        /* \"EthSaving/comment.sol\":1310:1338  comments[_commentId].count++ */\n      dup2\n      sload\n      dup1\n      swap3\n      swap2\n      swap1\n      tag_39\n      swap1\n      tag_40\n      jump\t// in\n    tag_39:\n      swap2\n      swap1\n      pop\n      sstore\n      pop\n        /* \"EthSaving/comment.sol\":1379:1389  msg.sender */\n      caller\n        /* \"EthSaving/comment.sol\":1354:1390  CommentLiked(_commentId, msg.sender) */\n      0xffffffffffffffffffffffffffffffffffffffff\n      and\n        /* \"EthSaving/comment.sol\":1367:1377  _commentId */\n      dup2\n        /* \"EthSaving/comment.sol\":1354:1390  CommentLiked(_commentId, msg.sender) */\n      0xf130ed2efa2f29aaeb0d5dd95532c1cfeef37afc311d3b52ca7666dadb6602a2\n      mload(0x40)\n      mload(0x40)\n      dup1\n      swap2\n      sub\n      swap1\n      log3\n        /* \"EthSaving/comment.sol\":1025:1397  function likeComment(uint _commentId) external {... */\n      pop\n      jump\t// out\n        /* \"EthSaving/comment.sol\":282:336  mapping(uint => mapping(address => bool)) public liked */\n    tag_15:\n      mstore(0x20, 0x02)\n      dup2\n      0x00\n      mstore\n      mstore(0x20, keccak256(0x00, 0x40))\n      dup1\n      0x00\n      mstore\n      keccak256(0x00, 0x40)\n      0x00\n      swap2\n      pop\n      swap2\n      pop\n      swap1\n      sload\n      swap1\n      0x0100\n      exp\n      swap1\n      div\n      0xff\n      and\n      dup2\n      jump\t// out\n        /* \"EthSaving/comment.sol\":207:229  uint public nextId = 1 */\n    tag_19:\n      sload(0x00)\n      dup2\n      jump\t// out\n        /* \"EthSaving/comment.sol\":591:1006  function postComment(string memory _comment) external {... */\n    tag_25:\n        /* \"EthSaving/comment.sol\":688:689  0 */\n      0x00\n        /* \"EthSaving/comment.sol\":669:677  _comment */\n      dup2\n        /* \"EthSaving/comment.sol\":663:685  bytes(_comment).length */\n      mload\n        /* \"EthSaving/comment.sol\":663:689  bytes(_comment).length > 0 */\n      gt\n        /* \"EthSaving/comment.sol\":655:724  require(bytes(_comment).length > 0, \"comment is not allowed as null\") */\n      tag_42\n      jumpi\n      mload(0x40)\n      0x08c379a000000000000000000000000000000000000000000000000000000000\n      dup2\n      mstore\n      0x04\n      add\n      tag_43\n      swap1\n      tag_44\n      jump\t// in\n    tag_43:\n      mload(0x40)\n      dup1\n      swap2\n      sub\n      swap1\n      revert\n    tag_42:\n        /* \"EthSaving/comment.sol\":753:923  Comment(... */\n      mload(0x40)\n      dup1\n      0x80\n      add\n      0x40\n      mstore\n      dup1\n        /* \"EthSaving/comment.sol\":796:802  nextId */\n      sload(0x00)\n        /* \"EthSaving/comment.sol\":753:923  Comment(... */\n      dup2\n      mstore\n      0x20\n      add\n        /* \"EthSaving/comment.sol\":828:838  msg.sender */\n      caller\n        /* \"EthSaving/comment.sol\":753:923  Comment(... */\n      0xffffffffffffffffffffffffffffffffffffffff\n      and\n      dup2\n      mstore\n      0x20\n      add\n        /* \"EthSaving/comment.sol\":865:873  _comment */\n      dup3\n        /* \"EthSaving/comment.sol\":753:923  Comment(... */\n      dup2\n      mstore\n      0x20\n      add\n        /* \"EthSaving/comment.sol\":898:899  0 */\n      0x00\n        /* \"EthSaving/comment.sol\":753:923  Comment(... */\n      dup2\n      mstore\n      pop\n        /* \"EthSaving/comment.sol\":734:742  comments */\n      0x01\n        /* \"EthSaving/comment.sol\":734:750  comments[nextId] */\n      0x00\n        /* \"EthSaving/comment.sol\":743:749  nextId */\n      sload(0x00)\n        /* \"EthSaving/comment.sol\":734:750  comments[nextId] */\n      dup2\n      mstore\n      0x20\n      add\n      swap1\n      dup2\n      mstore\n      0x20\n      add\n      0x00\n      keccak256\n        /* \"EthSaving/comment.sol\":734:923  comments[nextId] = Comment(... */\n      0x00\n      dup3\n      add\n      mload\n      dup2\n      0x00\n      add\n      sstore\n      0x20\n      dup3\n      add\n      mload\n      dup2\n      0x01\n      add\n      exp(0x0100, 0x00)\n      dup2\n      sload\n      dup2\n      0xffffffffffffffffffffffffffffffffffffffff\n      mul\n      not\n      and\n      swap1\n      dup4\n      0xffffffffffffffffffffffffffffffffffffffff\n      and\n      mul\n      or\n      swap1\n      sstore\n      pop\n      0x40\n      dup3\n      add\n      mload\n      dup2\n      0x02\n      add\n      swap1\n      dup2\n      tag_45\n      swap2\n      swap1\n      tag_46\n      jump\t// in\n    tag_45:\n      pop\n      0x60\n      dup3\n      add\n      mload\n      dup2\n      0x03\n      add\n      sstore\n      swap1\n      pop\n      pop\n        /* \"EthSaving/comment.sol\":960:970  msg.sender */\n      caller\n        /* \"EthSaving/comment.sol\":938:981  CommentPosted(nextId, msg.sender, _comment) */\n      0xffffffffffffffffffffffffffffffffffffffff\n      and\n        /* \"EthSaving/comment.sol\":952:958  nextId */\n      sload(0x00)\n        /* \"EthSaving/comment.sol\":938:981  CommentPosted(nextId, msg.sender, _comment) */\n      0x2a3becf3aaea83531f9c6fa03acdc91f40ea3468991ed4785afb4e5a1a63e0ac\n        /* \"EthSaving/comment.sol\":972:980  _comment */\n      dup4\n        /* \"EthSaving/comment.sol\":938:981  CommentPosted(nextId, msg.sender, _comment) */\n      mload(0x40)\n      tag_47\n      swap2\n      swap1\n      tag_48\n      jump\t// in\n    tag_47:\n      mload(0x40)\n      dup1\n      swap2\n      sub\n      swap1\n      log3\n        /* \"EthSaving/comment.sol\":991:997  nextId */\n      0x00\n      0x00\n        /* \"EthSaving/comment.sol\":991:999  nextId++ */\n      dup2\n      sload\n      dup1\n      swap3\n      swap2\n      swap1\n      tag_49\n      swap1\n      tag_40\n      jump\t// in\n    tag_49:\n      swap2\n      swap1\n      pop\n      sstore\n      pop\n        /* \"EthSaving/comment.sol\":591:1006  function postComment(string memory _comment) external {... */\n      pop\n      jump\t// out\n        /* \"EthSaving/comment.sol\":235:275  mapping(uint => Comment) public comments */\n    tag_28:\n      mstore(0x20, 0x01)\n      dup1\n      0x00\n      mstore\n      keccak256(0x00, 0x40)\n      0x00\n      swap2\n      pop\n      swap1\n      pop\n      dup1\n      0x00\n      add\n      sload\n      swap1\n      dup1\n      0x01\n      add\n      0x00\n      swap1\n      sload\n      swap1\n      0x0100\n      exp\n      swap1\n      div\n      0xffffffffffffffffffffffffffffffffffffffff\n      and\n      swap1\n      dup1\n      0x02\n      add\n      dup1\n      sload\n      tag_50\n      swap1\n      tag_51\n      jump\t// in\n    tag_50:\n      dup1\n      0x1f\n      add\n      0x20\n      dup1\n      swap2\n      div\n      mul\n      0x20\n      add\n      mload(0x40)\n      swap1\n      dup2\n      add\n      0x40\n      mstore\n      dup1\n      swap3\n      swap2\n      swap1\n      dup2\n      dup2\n      mstore\n      0x20\n      add\n      dup3\n      dup1\n      sload\n      tag_52\n      swap1\n      tag_51\n      jump\t// in\n    tag_52:\n      dup1\n      iszero\n      tag_53\n      jumpi\n      dup1\n      0x1f\n      lt\n      tag_54\n      jumpi\n      0x0100\n      dup1\n      dup4\n      sload\n      div\n      mul\n      dup4\n      mstore\n      swap2\n      0x20\n      add\n      swap2\n      jump(tag_53)\n    tag_54:\n      dup3\n      add\n      swap2\n      swap1\n      0x00\n      mstore\n      keccak256(0x00, 0x20)\n      swap1\n    tag_55:\n      dup2\n      sload\n      dup2\n      mstore\n      swap1\n      0x01\n      add\n      swap1\n      0x20\n      add\n      dup1\n      dup4\n      gt\n      tag_55\n      jumpi\n      dup3\n      swap1\n      sub\n      0x1f\n      and\n      dup3\n      add\n      swap2\n    tag_53:\n      pop\n      pop\n      pop\n      pop\n      pop\n      swap1\n      dup1\n      0x03\n      add\n      sload\n      swap1\n      pop\n      dup5\n      jump\t// out\n        /* \"#utility.yul\":7:82   */\n    tag_56:\n        /* \"#utility.yul\":40:46   */\n      0x00\n        /* \"#utility.yul\":73:75   */\n      0x40\n        /* \"#utility.yul\":67:76   */\n      mload\n        /* \"#utility.yul\":57:76   */\n      swap1\n      pop\n        /* \"#utility.yul\":7:82   */\n      swap1\n      jump\t// out\n        /* \"#utility.yul\":88:205   */\n    tag_57:\n        /* \"#utility.yul\":197:198   */\n      0x00\n        /* \"#utility.yul\":194:195   */\n      0x00\n        /* \"#utility.yul\":187:199   */\n      revert\n        /* \"#utility.yul\":211:328   */\n    tag_58:\n        /* \"#utility.yul\":320:321   */\n      0x00\n        /* \"#utility.yul\":317:318   */\n      0x00\n        /* \"#utility.yul\":310:322   */\n      revert\n        /* \"#utility.yul\":334:411   */\n    tag_59:\n        /* \"#utility.yul\":371:378   */\n      0x00\n        /* \"#utility.yul\":400:405   */\n      dup2\n        /* \"#utility.yul\":389:405   */\n      swap1\n      pop\n        /* \"#utility.yul\":334:411   */\n      swap2\n      swap1\n      pop\n      jump\t// out\n        /* \"#utility.yul\":417:539   */\n    tag_60:\n        /* \"#utility.yul\":490:514   */\n      tag_113\n        /* \"#utility.yul\":508:513   */\n      dup2\n        /* \"#utility.yul\":490:514   */\n      tag_59\n      jump\t// in\n    tag_113:\n        /* \"#utility.yul\":483:488   */\n      dup2\n        /* \"#utility.yul\":480:515   */\n      eq\n        /* \"#utility.yul\":470:533   */\n      tag_114\n      jumpi\n        /* \"#utility.yul\":529:530   */\n      0x00\n        /* \"#utility.yul\":526:527   */\n      0x00\n        /* \"#utility.yul\":519:531   */\n      revert\n        /* \"#utility.yul\":470:533   */\n    tag_114:\n        /* \"#utility.yul\":417:539   */\n      pop\n      jump\t// out\n        /* \"#utility.yul\":545:684   */\n    tag_61:\n        /* \"#utility.yul\":591:596   */\n      0x00\n        /* \"#utility.yul\":629:635   */\n      dup2\n        /* \"#utility.yul\":616:636   */\n      calldataload\n        /* \"#utility.yul\":607:636   */\n      swap1\n      pop\n        /* \"#utility.yul\":645:678   */\n      tag_116\n        /* \"#utility.yul\":672:677   */\n      dup2\n        /* \"#utility.yul\":645:678   */\n      tag_60\n      jump\t// in\n    tag_116:\n        /* \"#utility.yul\":545:684   */\n      swap3\n      swap2\n      pop\n      pop\n      jump\t// out\n        /* \"#utility.yul\":690:1019   */\n    tag_10:\n        /* \"#utility.yul\":749:755   */\n      0x00\n        /* \"#utility.yul\":798:800   */\n      0x20\n        /* \"#utility.yul\":786:795   */\n      dup3\n        /* \"#utility.yul\":777:784   */\n      dup5\n        /* \"#utility.yul\":773:796   */\n      sub\n        /* \"#utility.yul\":769:801   */\n      slt\n        /* \"#utility.yul\":766:885   */\n      iszero\n      tag_118\n      jumpi\n        /* \"#utility.yul\":804:883   */\n      tag_119\n      tag_57\n      jump\t// in\n    tag_119:\n        /* \"#utility.yul\":766:885   */\n    tag_118:\n        /* \"#utility.yul\":924:925   */\n      0x00\n        /* \"#utility.yul\":949:1002   */\n      tag_120\n        /* \"#utility.yul\":994:1001   */\n      dup5\n        /* \"#utility.yul\":985:991   */\n      dup3\n        /* \"#utility.yul\":974:983   */\n      dup6\n        /* \"#utility.yul\":970:992   */\n      add\n        /* \"#utility.yul\":949:1002   */\n      tag_61\n      jump\t// in\n    tag_120:\n        /* \"#utility.yul\":939:1002   */\n      swap2\n      pop\n        /* \"#utility.yul\":895:1012   */\n      pop\n        /* \"#utility.yul\":690:1019   */\n      swap3\n      swap2\n      pop\n      pop\n      jump\t// out\n        /* \"#utility.yul\":1025:1151   */\n    tag_62:\n        /* \"#utility.yul\":1062:1069   */\n      0x00\n        /* \"#utility.yul\":1102:1144   */\n      0xffffffffffffffffffffffffffffffffffffffff\n        /* \"#utility.yul\":1095:1100   */\n      dup3\n        /* \"#utility.yul\":1091:1145   */\n      and\n        /* \"#utility.yul\":1080:1145   */\n      swap1\n      pop\n        /* \"#utility.yul\":1025:1151   */\n      swap2\n      swap1\n      pop\n      jump\t// out\n        /* \"#utility.yul\":1157:1253   */\n    tag_63:\n        /* \"#utility.yul\":1194:1201   */\n      0x00\n        /* \"#utility.yul\":1223:1247   */\n      tag_123\n        /* \"#utility.yul\":1241:1246   */\n      dup3\n        /* \"#utility.yul\":1223:1247   */\n      tag_62\n      jump\t// in\n    tag_123:\n        /* \"#utility.yul\":1212:1247   */\n      swap1\n      pop\n        /* \"#utility.yul\":1157:1253   */\n      swap2\n      swap1\n      pop\n      jump\t// out\n        /* \"#utility.yul\":1259:1381   */\n    tag_64:\n        /* \"#utility.yul\":1332:1356   */\n      tag_125\n        /* \"#utility.yul\":1350:1355   */\n      dup2\n        /* \"#utility.yul\":1332:1356   */\n      tag_63\n      jump\t// in\n    tag_125:\n        /* \"#utility.yul\":1325:1330   */\n      dup2\n        /* \"#utility.yul\":1322:1357   */\n      eq\n        /* \"#utility.yul\":1312:1375   */\n      tag_126\n      jumpi\n        /* \"#utility.yul\":1371:1372   */\n      0x00\n        /* \"#utility.yul\":1368:1369   */\n      0x00\n        /* \"#utility.yul\":1361:1373   */\n      revert\n        /* \"#utility.yul\":1312:1375   */\n    tag_126:\n        /* \"#utility.yul\":1259:1381   */\n      pop\n      jump\t// out\n        /* \"#utility.yul\":1387:1526   */\n    tag_65:\n        /* \"#utility.yul\":1433:1438   */\n      0x00\n        /* \"#utility.yul\":1471:1477   */\n      dup2\n        /* \"#utility.yul\":1458:1478   */\n      calldataload\n        /* \"#utility.yul\":1449:1478   */\n      swap1\n      pop\n        /* \"#utility.yul\":1487:1520   */\n      tag_128\n        /* \"#utility.yul\":1514:1519   */\n      dup2\n        /* \"#utility.yul\":1487:1520   */\n      tag_64\n      jump\t// in\n    tag_128:\n        /* \"#utility.yul\":1387:1526   */\n      swap3\n      swap2\n      pop\n      pop\n      jump\t// out\n        /* \"#utility.yul\":1532:2006   */\n    tag_14:\n        /* \"#utility.yul\":1600:1606   */\n      0x00\n        /* \"#utility.yul\":1608:1614   */\n      0x00\n        /* \"#utility.yul\":1657:1659   */\n      0x40\n        /* \"#utility.yul\":1645:1654   */\n      dup4\n        /* \"#utility.yul\":1636:1643   */\n      dup6\n        /* \"#utility.yul\":1632:1655   */\n      sub\n        /* \"#utility.yul\":1628:1660   */\n      slt\n        /* \"#utility.yul\":1625:1744   */\n      iszero\n      tag_130\n      jumpi\n        /* \"#utility.yul\":1663:1742   */\n      tag_131\n      tag_57\n      jump\t// in\n    tag_131:\n        /* \"#utility.yul\":1625:1744   */\n    tag_130:\n        /* \"#utility.yul\":1783:1784   */\n      0x00\n        /* \"#utility.yul\":1808:1861   */\n      tag_132\n        /* \"#utility.yul\":1853:1860   */\n      dup6\n        /* \"#utility.yul\":1844:1850   */\n      dup3\n        /* \"#utility.yul\":1833:1842   */\n      dup7\n        /* \"#utility.yul\":1829:1851   */\n      add\n        /* \"#utility.yul\":1808:1861   */\n      tag_61\n      jump\t// in\n    tag_132:\n        /* \"#utility.yul\":1798:1861   */\n      swap3\n      pop\n        /* \"#utility.yul\":1754:1871   */\n      pop\n        /* \"#utility.yul\":1910:1912   */\n      0x20\n        /* \"#utility.yul\":1936:1989   */\n      tag_133\n        /* \"#utility.yul\":1981:1988   */\n      dup6\n        /* \"#utility.yul\":1972:1978   */\n      dup3\n        /* \"#utility.yul\":1961:1970   */\n      dup7\n        /* \"#utility.yul\":1957:1979   */\n      add\n        /* \"#utility.yul\":1936:1989   */\n      tag_65\n      jump\t// in\n    tag_133:\n        /* \"#utility.yul\":1926:1989   */\n      swap2\n      pop\n        /* \"#utility.yul\":1881:1999   */\n      pop\n        /* \"#utility.yul\":1532:2006   */\n      swap3\n      pop\n      swap3\n      swap1\n      pop\n      jump\t// out\n        /* \"#utility.yul\":2012:2102   */\n    tag_66:\n        /* \"#utility.yul\":2046:2053   */\n      0x00\n        /* \"#utility.yul\":2089:2094   */\n      dup2\n        /* \"#utility.yul\":2082:2095   */\n      iszero\n        /* \"#utility.yul\":2075:2096   */\n      iszero\n        /* \"#utility.yul\":2064:2096   */\n      swap1\n      pop\n        /* \"#utility.yul\":2012:2102   */\n      swap2\n      swap1\n      pop\n      jump\t// out\n        /* \"#utility.yul\":2108:2217   */\n    tag_67:\n        /* \"#utility.yul\":2189:2210   */\n      tag_136\n        /* \"#utility.yul\":2204:2209   */\n      dup2\n        /* \"#utility.yul\":2189:2210   */\n      tag_66\n      jump\t// in\n    tag_136:\n        /* \"#utility.yul\":2184:2187   */\n      dup3\n        /* \"#utility.yul\":2177:2211   */\n      mstore\n        /* \"#utility.yul\":2108:2217   */\n      pop\n      pop\n      jump\t// out\n        /* \"#utility.yul\":2223:2433   */\n    tag_17:\n        /* \"#utility.yul\":2310:2314   */\n      0x00\n        /* \"#utility.yul\":2348:2350   */\n      0x20\n        /* \"#utility.yul\":2337:2346   */\n      dup3\n        /* \"#utility.yul\":2333:2351   */\n      add\n        /* \"#utility.yul\":2325:2351   */\n      swap1\n      pop\n        /* \"#utility.yul\":2361:2426   */\n      tag_138\n        /* \"#utility.yul\":2423:2424   */\n      0x00\n        /* \"#utility.yul\":2412:2421   */\n      dup4\n        /* \"#utility.yul\":2408:2425   */\n      add\n        /* \"#utility.yul\":2399:2405   */\n      dup5\n        /* \"#utility.yul\":2361:2426   */\n      tag_67\n      jump\t// in\n    tag_138:\n        /* \"#utility.yul\":2223:2433   */\n      swap3\n      swap2\n      pop\n      pop\n      jump\t// out\n        /* \"#utility.yul\":2439:2557   */\n    tag_68:\n        /* \"#utility.yul\":2526:2550   */\n      tag_140\n        /* \"#utility.yul\":2544:2549   */\n      dup2\n        /* \"#utility.yul\":2526:2550   */\n      tag_59\n      jump\t// in\n    tag_140:\n        /* \"#utility.yul\":2521:2524   */\n      dup3\n        /* \"#utility.yul\":2514:2551   */\n      mstore\n        /* \"#utility.yul\":2439:2557   */\n      pop\n      pop\n      jump\t// out\n        /* \"#utility.yul\":2563:2785   */\n    tag_21:\n        /* \"#utility.yul\":2656:2660   */\n      0x00\n        /* \"#utility.yul\":2694:2696   */\n      0x20\n        /* \"#utility.yul\":2683:2692   */\n      dup3\n        /* \"#utility.yul\":2679:2697   */\n      add\n        /* \"#utility.yul\":2671:2697   */\n      swap1\n      pop\n        /* \"#utility.yul\":2707:2778   */\n      tag_142\n        /* \"#utility.yul\":2775:2776   */\n      0x00\n        /* \"#utility.yul\":2764:2773   */\n      dup4\n        /* \"#utility.yul\":2760:2777   */\n      add\n        /* \"#utility.yul\":2751:2757   */\n      dup5\n        /* \"#utility.yul\":2707:2778   */\n      tag_68\n      jump\t// in\n    tag_142:\n        /* \"#utility.yul\":2563:2785   */\n      swap3\n      swap2\n      pop\n      pop\n      jump\t// out\n        /* \"#utility.yul\":2791:2908   */\n    tag_69:\n        /* \"#utility.yul\":2900:2901   */\n      0x00\n        /* \"#utility.yul\":2897:2898   */\n      0x00\n        /* \"#utility.yul\":2890:2902   */\n      revert\n        /* \"#utility.yul\":2914:3031   */\n    tag_70:\n        /* \"#utility.yul\":3023:3024   */\n      0x00\n        /* \"#utility.yul\":3020:3021   */\n      0x00\n        /* \"#utility.yul\":3013:3025   */\n      revert\n        /* \"#utility.yul\":3037:3139   */\n    tag_71:\n        /* \"#utility.yul\":3078:3084   */\n      0x00\n        /* \"#utility.yul\":3129:3131   */\n      0x1f\n        /* \"#utility.yul\":3125:3132   */\n      not\n        /* \"#utility.yul\":3120:3122   */\n      0x1f\n        /* \"#utility.yul\":3113:3118   */\n      dup4\n        /* \"#utility.yul\":3109:3123   */\n      add\n        /* \"#utility.yul\":3105:3133   */\n      and\n        /* \"#utility.yul\":3095:3133   */\n      swap1\n      pop\n        /* \"#utility.yul\":3037:3139   */\n      swap2\n      swap1\n      pop\n      jump\t// out\n        /* \"#utility.yul\":3145:3325   */\n    tag_72:\n        /* \"#utility.yul\":3193:3270   */\n      0x4e487b7100000000000000000000000000000000000000000000000000000000\n        /* \"#utility.yul\":3190:3191   */\n      0x00\n        /* \"#utility.yul\":3183:3271   */\n      mstore\n        /* \"#utility.yul\":3290:3294   */\n      0x41\n        /* \"#utility.yul\":3287:3288   */\n      0x04\n        /* \"#utility.yul\":3280:3295   */\n      mstore\n        /* \"#utility.yul\":3314:3318   */\n      0x24\n        /* \"#utility.yul\":3311:3312   */\n      0x00\n        /* \"#utility.yul\":3304:3319   */\n      revert\n        /* \"#utility.yul\":3331:3612   */\n    tag_73:\n        /* \"#utility.yul\":3414:3441   */\n      tag_148\n        /* \"#utility.yul\":3436:3440   */\n      dup3\n        /* \"#utility.yul\":3414:3441   */\n      tag_71\n      jump\t// in\n    tag_148:\n        /* \"#utility.yul\":3406:3412   */\n      dup2\n        /* \"#utility.yul\":3402:3442   */\n      add\n        /* \"#utility.yul\":3544:3550   */\n      dup2\n        /* \"#utility.yul\":3532:3542   */\n      dup2\n        /* \"#utility.yul\":3529:3551   */\n      lt\n        /* \"#utility.yul\":3508:3526   */\n      0xffffffffffffffff\n        /* \"#utility.yul\":3496:3506   */\n      dup3\n        /* \"#utility.yul\":3493:3527   */\n      gt\n        /* \"#utility.yul\":3490:3552   */\n      or\n        /* \"#utility.yul\":3487:3575   */\n      iszero\n      tag_149\n      jumpi\n        /* \"#utility.yul\":3555:3573   */\n      tag_150\n      tag_72\n      jump\t// in\n    tag_150:\n        /* \"#utility.yul\":3487:3575   */\n    tag_149:\n        /* \"#utility.yul\":3595:3605   */\n      dup1\n        /* \"#utility.yul\":3591:3593   */\n      0x40\n        /* \"#utility.yul\":3584:3606   */\n      mstore\n        /* \"#utility.yul\":3374:3612   */\n      pop\n        /* \"#utility.yul\":3331:3612   */\n      pop\n      pop\n      jump\t// out\n        /* \"#utility.yul\":3618:3747   */\n    tag_74:\n        /* \"#utility.yul\":3652:3658   */\n      0x00\n        /* \"#utility.yul\":3679:3699   */\n      tag_152\n      tag_56\n      jump\t// in\n    tag_152:\n        /* \"#utility.yul\":3669:3699   */\n      swap1\n      pop\n        /* \"#utility.yul\":3708:3741   */\n      tag_153\n        /* \"#utility.yul\":3736:3740   */\n      dup3\n        /* \"#utility.yul\":3728:3734   */\n      dup3\n        /* \"#utility.yul\":3708:3741   */\n      tag_73\n      jump\t// in\n    tag_153:\n        /* \"#utility.yul\":3618:3747   */\n      swap2\n      swap1\n      pop\n      jump\t// out\n        /* \"#utility.yul\":3753:4061   */\n    tag_75:\n        /* \"#utility.yul\":3815:3819   */\n      0x00\n        /* \"#utility.yul\":3905:3923   */\n      0xffffffffffffffff\n        /* \"#utility.yul\":3897:3903   */\n      dup3\n        /* \"#utility.yul\":3894:3924   */\n      gt\n        /* \"#utility.yul\":3891:3947   */\n      iszero\n      tag_155\n      jumpi\n        /* \"#utility.yul\":3927:3945   */\n      tag_156\n      tag_72\n      jump\t// in\n    tag_156:\n        /* \"#utility.yul\":3891:3947   */\n    tag_155:\n        /* \"#utility.yul\":3965:3994   */\n      tag_157\n        /* \"#utility.yul\":3987:3993   */\n      dup3\n        /* \"#utility.yul\":3965:3994   */\n      tag_71\n      jump\t// in\n    tag_157:\n        /* \"#utility.yul\":3957:3994   */\n      swap1\n      pop\n        /* \"#utility.yul\":4049:4053   */\n      0x20\n        /* \"#utility.yul\":4043:4047   */\n      dup2\n        /* \"#utility.yul\":4039:4054   */\n      add\n        /* \"#utility.yul\":4031:4054   */\n      swap1\n      pop\n        /* \"#utility.yul\":3753:4061   */\n      swap2\n      swap1\n      pop\n      jump\t// out\n        /* \"#utility.yul\":4067:4215   */\n    tag_76:\n        /* \"#utility.yul\":4165:4171   */\n      dup3\n        /* \"#utility.yul\":4160:4163   */\n      dup2\n        /* \"#utility.yul\":4155:4158   */\n      dup4\n        /* \"#utility.yul\":4142:4172   */\n      calldatacopy\n        /* \"#utility.yul\":4206:4207   */\n      0x00\n        /* \"#utility.yul\":4197:4203   */\n      dup4\n        /* \"#utility.yul\":4192:4195   */\n      dup4\n        /* \"#utility.yul\":4188:4204   */\n      add\n        /* \"#utility.yul\":4181:4208   */\n      mstore\n        /* \"#utility.yul\":4067:4215   */\n      pop\n      pop\n      pop\n      jump\t// out\n        /* \"#utility.yul\":4221:4646   */\n    tag_77:\n        /* \"#utility.yul\":4299:4304   */\n      0x00\n        /* \"#utility.yul\":4324:4390   */\n      tag_160\n        /* \"#utility.yul\":4340:4389   */\n      tag_161\n        /* \"#utility.yul\":4382:4388   */\n      dup5\n        /* \"#utility.yul\":4340:4389   */\n      tag_75\n      jump\t// in\n    tag_161:\n        /* \"#utility.yul\":4324:4390   */\n      tag_74\n      jump\t// in\n    tag_160:\n        /* \"#utility.yul\":4315:4390   */\n      swap1\n      pop\n        /* \"#utility.yul\":4413:4419   */\n      dup3\n        /* \"#utility.yul\":4406:4411   */\n      dup2\n        /* \"#utility.yul\":4399:4420   */\n      mstore\n        /* \"#utility.yul\":4451:4455   */\n      0x20\n        /* \"#utility.yul\":4444:4449   */\n      dup2\n        /* \"#utility.yul\":4440:4456   */\n      add\n        /* \"#utility.yul\":4489:4492   */\n      dup5\n        /* \"#utility.yul\":4480:4486   */\n      dup5\n        /* \"#utility.yul\":4475:4478   */\n      dup5\n        /* \"#utility.yul\":4471:4487   */\n      add\n        /* \"#utility.yul\":4468:4493   */\n      gt\n        /* \"#utility.yul\":4465:4577   */\n      iszero\n      tag_162\n      jumpi\n        /* \"#utility.yul\":4496:4575   */\n      tag_163\n      tag_70\n      jump\t// in\n    tag_163:\n        /* \"#utility.yul\":4465:4577   */\n    tag_162:\n        /* \"#utility.yul\":4586:4640   */\n      tag_164\n        /* \"#utility.yul\":4633:4639   */\n      dup5\n        /* \"#utility.yul\":4628:4631   */\n      dup3\n        /* \"#utility.yul\":4623:4626   */\n      dup6\n        /* \"#utility.yul\":4586:4640   */\n      tag_76\n      jump\t// in\n    tag_164:\n        /* \"#utility.yul\":4305:4646   */\n      pop\n        /* \"#utility.yul\":4221:4646   */\n      swap4\n      swap3\n      pop\n      pop\n      pop\n      jump\t// out\n        /* \"#utility.yul\":4666:5006   */\n    tag_78:\n        /* \"#utility.yul\":4722:4727   */\n      0x00\n        /* \"#utility.yul\":4771:4774   */\n      dup3\n        /* \"#utility.yul\":4764:4768   */\n      0x1f\n        /* \"#utility.yul\":4756:4762   */\n      dup4\n        /* \"#utility.yul\":4752:4769   */\n      add\n        /* \"#utility.yul\":4748:4775   */\n      slt\n        /* \"#utility.yul\":4738:4860   */\n      tag_166\n      jumpi\n        /* \"#utility.yul\":4779:4858   */\n      tag_167\n      tag_69\n      jump\t// in\n    tag_167:\n        /* \"#utility.yul\":4738:4860   */\n    tag_166:\n        /* \"#utility.yul\":4896:4902   */\n      dup2\n        /* \"#utility.yul\":4883:4903   */\n      calldataload\n        /* \"#utility.yul\":4921:5000   */\n      tag_168\n        /* \"#utility.yul\":4996:4999   */\n      dup5\n        /* \"#utility.yul\":4988:4994   */\n      dup3\n        /* \"#utility.yul\":4981:4985   */\n      0x20\n        /* \"#utility.yul\":4973:4979   */\n      dup7\n        /* \"#utility.yul\":4969:4986   */\n      add\n        /* \"#utility.yul\":4921:5000   */\n      tag_77\n      jump\t// in\n    tag_168:\n        /* \"#utility.yul\":4912:5000   */\n      swap2\n      pop\n        /* \"#utility.yul\":4728:5006   */\n      pop\n        /* \"#utility.yul\":4666:5006   */\n      swap3\n      swap2\n      pop\n      pop\n      jump\t// out\n        /* \"#utility.yul\":5012:5521   */\n    tag_24:\n        /* \"#utility.yul\":5081:5087   */\n      0x00\n        /* \"#utility.yul\":5130:5132   */\n      0x20\n        /* \"#utility.yul\":5118:5127   */\n      dup3\n        /* \"#utility.yul\":5109:5116   */\n      dup5\n        /* \"#utility.yul\":5105:5128   */\n      sub\n        /* \"#utility.yul\":5101:5133   */\n      slt\n        /* \"#utility.yul\":5098:5217   */\n      iszero\n      tag_170\n      jumpi\n        /* \"#utility.yul\":5136:5215   */\n      tag_171\n      tag_57\n      jump\t// in\n    tag_171:\n        /* \"#utility.yul\":5098:5217   */\n    tag_170:\n        /* \"#utility.yul\":5284:5285   */\n      0x00\n        /* \"#utility.yul\":5273:5282   */\n      dup3\n        /* \"#utility.yul\":5269:5286   */\n      add\n        /* \"#utility.yul\":5256:5287   */\n      calldataload\n        /* \"#utility.yul\":5314:5332   */\n      0xffffffffffffffff\n        /* \"#utility.yul\":5306:5312   */\n      dup2\n        /* \"#utility.yul\":5303:5333   */\n      gt\n        /* \"#utility.yul\":5300:5417   */\n      iszero\n      tag_172\n      jumpi\n        /* \"#utility.yul\":5336:5415   */\n      tag_173\n      tag_58\n      jump\t// in\n    tag_173:\n        /* \"#utility.yul\":5300:5417   */\n    tag_172:\n        /* \"#utility.yul\":5441:5504   */\n      tag_174\n        /* \"#utility.yul\":5496:5503   */\n      dup5\n        /* \"#utility.yul\":5487:5493   */\n      dup3\n        /* \"#utility.yul\":5476:5485   */\n      dup6\n        /* \"#utility.yul\":5472:5494   */\n      add\n        /* \"#utility.yul\":5441:5504   */\n      tag_78\n      jump\t// in\n    tag_174:\n        /* \"#utility.yul\":5431:5504   */\n      swap2\n      pop\n        /* \"#utility.yul\":5227:5514   */\n      pop\n        /* \"#utility.yul\":5012:5521   */\n      swap3\n      swap2\n      pop\n      pop\n      jump\t// out\n        /* \"#utility.yul\":5527:5645   */\n    tag_79:\n        /* \"#utility.yul\":5614:5638   */\n      tag_176\n        /* \"#utility.yul\":5632:5637   */\n      dup2\n        /* \"#utility.yul\":5614:5638   */\n      tag_63\n      jump\t// in\n    tag_176:\n        /* \"#utility.yul\":5609:5612   */\n      dup3\n        /* \"#utility.yul\":5602:5639   */\n      mstore\n        /* \"#utility.yul\":5527:5645   */\n      pop\n      pop\n      jump\t// out\n        /* \"#utility.yul\":5651:5750   */\n    tag_80:\n        /* \"#utility.yul\":5703:5709   */\n      0x00\n        /* \"#utility.yul\":5737:5742   */\n      dup2\n        /* \"#utility.yul\":5731:5743   */\n      mload\n        /* \"#utility.yul\":5721:5743   */\n      swap1\n      pop\n        /* \"#utility.yul\":5651:5750   */\n      swap2\n      swap1\n      pop\n      jump\t// out\n        /* \"#utility.yul\":5756:5925   */\n    tag_81:\n        /* \"#utility.yul\":5840:5851   */\n      0x00\n        /* \"#utility.yul\":5874:5880   */\n      dup3\n        /* \"#utility.yul\":5869:5872   */\n      dup3\n        /* \"#utility.yul\":5862:5881   */\n      mstore\n        /* \"#utility.yul\":5914:5918   */\n      0x20\n        /* \"#utility.yul\":5909:5912   */\n      dup3\n        /* \"#utility.yul\":5905:5919   */\n      add\n        /* \"#utility.yul\":5890:5919   */\n      swap1\n      pop\n        /* \"#utility.yul\":5756:5925   */\n      swap3\n      swap2\n      pop\n      pop\n      jump\t// out\n        /* \"#utility.yul\":5931:6070   */\n    tag_82:\n        /* \"#utility.yul\":6020:6026   */\n      dup3\n        /* \"#utility.yul\":6015:6018   */\n      dup2\n        /* \"#utility.yul\":6010:6013   */\n      dup4\n        /* \"#utility.yul\":6004:6027   */\n      mcopy\n        /* \"#utility.yul\":6061:6062   */\n      0x00\n        /* \"#utility.yul\":6052:6058   */\n      dup4\n        /* \"#utility.yul\":6047:6050   */\n      dup4\n        /* \"#utility.yul\":6043:6059   */\n      add\n        /* \"#utility.yul\":6036:6063   */\n      mstore\n        /* \"#utility.yul\":5931:6070   */\n      pop\n      pop\n      pop\n      jump\t// out\n        /* \"#utility.yul\":6076:6453   */\n    tag_83:\n        /* \"#utility.yul\":6164:6167   */\n      0x00\n        /* \"#utility.yul\":6192:6231   */\n      tag_181\n        /* \"#utility.yul\":6225:6230   */\n      dup3\n        /* \"#utility.yul\":6192:6231   */\n      tag_80\n      jump\t// in\n    tag_181:\n        /* \"#utility.yul\":6247:6318   */\n      tag_182\n        /* \"#utility.yul\":6311:6317   */\n      dup2\n        /* \"#utility.yul\":6306:6309   */\n      dup6\n        /* \"#utility.yul\":6247:6318   */\n      tag_81\n      jump\t// in\n    tag_182:\n        /* \"#utility.yul\":6240:6318   */\n      swap4\n      pop\n        /* \"#utility.yul\":6327:6392   */\n      tag_183\n        /* \"#utility.yul\":6385:6391   */\n      dup2\n        /* \"#utility.yul\":6380:6383   */\n      dup6\n        /* \"#utility.yul\":6373:6377   */\n      0x20\n        /* \"#utility.yul\":6366:6371   */\n      dup7\n        /* \"#utility.yul\":6362:6378   */\n      add\n        /* \"#utility.yul\":6327:6392   */\n      tag_82\n      jump\t// in\n    tag_183:\n        /* \"#utility.yul\":6417:6446   */\n      tag_184\n        /* \"#utility.yul\":6439:6445   */\n      dup2\n        /* \"#utility.yul\":6417:6446   */\n      tag_71\n      jump\t// in\n    tag_184:\n        /* \"#utility.yul\":6412:6415   */\n      dup5\n        /* \"#utility.yul\":6408:6447   */\n      add\n        /* \"#utility.yul\":6401:6447   */\n      swap2\n      pop\n        /* \"#utility.yul\":6168:6453   */\n      pop\n        /* \"#utility.yul\":6076:6453   */\n      swap3\n      swap2\n      pop\n      pop\n      jump\t// out\n        /* \"#utility.yul\":6459:7103   */\n    tag_30:\n        /* \"#utility.yul\":6656:6660   */\n      0x00\n        /* \"#utility.yul\":6694:6697   */\n      0x80\n        /* \"#utility.yul\":6683:6692   */\n      dup3\n        /* \"#utility.yul\":6679:6698   */\n      add\n        /* \"#utility.yul\":6671:6698   */\n      swap1\n      pop\n        /* \"#utility.yul\":6708:6779   */\n      tag_186\n        /* \"#utility.yul\":6776:6777   */\n      0x00\n        /* \"#utility.yul\":6765:6774   */\n      dup4\n        /* \"#utility.yul\":6761:6778   */\n      add\n        /* \"#utility.yul\":6752:6758   */\n      dup8\n        /* \"#utility.yul\":6708:6779   */\n      tag_68\n      jump\t// in\n    tag_186:\n        /* \"#utility.yul\":6789:6861   */\n      tag_187\n        /* \"#utility.yul\":6857:6859   */\n      0x20\n        /* \"#utility.yul\":6846:6855   */\n      dup4\n        /* \"#utility.yul\":6842:6860   */\n      add\n        /* \"#utility.yul\":6833:6839   */\n      dup7\n        /* \"#utility.yul\":6789:6861   */\n      tag_79\n      jump\t// in\n    tag_187:\n        /* \"#utility.yul\":6908:6917   */\n      dup2\n        /* \"#utility.yul\":6902:6906   */\n      dup2\n        /* \"#utility.yul\":6898:6918   */\n      sub\n        /* \"#utility.yul\":6893:6895   */\n      0x40\n        /* \"#utility.yul\":6882:6891   */\n      dup4\n        /* \"#utility.yul\":6878:6896   */\n      add\n        /* \"#utility.yul\":6871:6919   */\n      mstore\n        /* \"#utility.yul\":6936:7014   */\n      tag_188\n        /* \"#utility.yul\":7009:7013   */\n      dup2\n        /* \"#utility.yul\":7000:7006   */\n      dup6\n        /* \"#utility.yul\":6936:7014   */\n      tag_83\n      jump\t// in\n    tag_188:\n        /* \"#utility.yul\":6928:7014   */\n      swap1\n      pop\n        /* \"#utility.yul\":7024:7096   */\n      tag_189\n        /* \"#utility.yul\":7092:7094   */\n      0x60\n        /* \"#utility.yul\":7081:7090   */\n      dup4\n        /* \"#utility.yul\":7077:7095   */\n      add\n        /* \"#utility.yul\":7068:7074   */\n      dup5\n        /* \"#utility.yul\":7024:7096   */\n      tag_68\n      jump\t// in\n    tag_189:\n        /* \"#utility.yul\":6459:7103   */\n      swap6\n      swap5\n      pop\n      pop\n      pop\n      pop\n      pop\n      jump\t// out\n        /* \"#utility.yul\":7109:7288   */\n    tag_84:\n        /* \"#utility.yul\":7249:7280   */\n      0x5468697320697320616e20696e76616c696420636f6d6d656e74204944000000\n        /* \"#utility.yul\":7245:7246   */\n      0x00\n        /* \"#utility.yul\":7237:7243   */\n      dup3\n        /* \"#utility.yul\":7233:7247   */\n      add\n        /* \"#utility.yul\":7226:7281   */\n      mstore\n        /* \"#utility.yul\":7109:7288   */\n      pop\n      jump\t// out\n        /* \"#utility.yul\":7294:7660   */\n    tag_85:\n        /* \"#utility.yul\":7436:7439   */\n      0x00\n        /* \"#utility.yul\":7457:7524   */\n      tag_192\n        /* \"#utility.yul\":7521:7523   */\n      0x1d\n        /* \"#utility.yul\":7516:7519   */\n      dup4\n        /* \"#utility.yul\":7457:7524   */\n      tag_81\n      jump\t// in\n    tag_192:\n        /* \"#utility.yul\":7450:7524   */\n      swap2\n      pop\n        /* \"#utility.yul\":7533:7626   */\n      tag_193\n        /* \"#utility.yul\":7622:7625   */\n      dup3\n        /* \"#utility.yul\":7533:7626   */\n      tag_84\n      jump\t// in\n    tag_193:\n        /* \"#utility.yul\":7651:7653   */\n      0x20\n        /* \"#utility.yul\":7646:7649   */\n      dup3\n        /* \"#utility.yul\":7642:7654   */\n      add\n        /* \"#utility.yul\":7635:7654   */\n      swap1\n      pop\n        /* \"#utility.yul\":7294:7660   */\n      swap2\n      swap1\n      pop\n      jump\t// out\n        /* \"#utility.yul\":7666:8085   */\n    tag_35:\n        /* \"#utility.yul\":7832:7836   */\n      0x00\n        /* \"#utility.yul\":7870:7872   */\n      0x20\n        /* \"#utility.yul\":7859:7868   */\n      dup3\n        /* \"#utility.yul\":7855:7873   */\n      add\n        /* \"#utility.yul\":7847:7873   */\n      swap1\n      pop\n        /* \"#utility.yul\":7919:7928   */\n      dup2\n        /* \"#utility.yul\":7913:7917   */\n      dup2\n        /* \"#utility.yul\":7909:7929   */\n      sub\n        /* \"#utility.yul\":7905:7906   */\n      0x00\n        /* \"#utility.yul\":7894:7903   */\n      dup4\n        /* \"#utility.yul\":7890:7907   */\n      add\n        /* \"#utility.yul\":7883:7930   */\n      mstore\n        /* \"#utility.yul\":7947:8078   */\n      tag_195\n        /* \"#utility.yul\":8073:8077   */\n      dup2\n        /* \"#utility.yul\":7947:8078   */\n      tag_85\n      jump\t// in\n    tag_195:\n        /* \"#utility.yul\":7939:8078   */\n      swap1\n      pop\n        /* \"#utility.yul\":7666:8085   */\n      swap2\n      swap1\n      pop\n      jump\t// out\n        /* \"#utility.yul\":8091:8317   */\n    tag_86:\n        /* \"#utility.yul\":8231:8265   */\n      0x596f752068616420616c7265616479207468756d626564207570207468697320\n        /* \"#utility.yul\":8227:8228   */\n      0x00\n        /* \"#utility.yul\":8219:8225   */\n      dup3\n        /* \"#utility.yul\":8215:8229   */\n      add\n        /* \"#utility.yul\":8208:8266   */\n      mstore\n        /* \"#utility.yul\":8300:8309   */\n      0x636f6d6d656e7400000000000000000000000000000000000000000000000000\n        /* \"#utility.yul\":8295:8297   */\n      0x20\n        /* \"#utility.yul\":8287:8293   */\n      dup3\n        /* \"#utility.yul\":8283:8298   */\n      add\n        /* \"#utility.yul\":8276:8310   */\n      mstore\n        /* \"#utility.yul\":8091:8317   */\n      pop\n      jump\t// out\n        /* \"#utility.yul\":8323:8689   */\n    tag_87:\n        /* \"#utility.yul\":8465:8468   */\n      0x00\n        /* \"#utility.yul\":8486:8553   */\n      tag_198\n        /* \"#utility.yul\":8550:8552   */\n      0x27\n        /* \"#utility.yul\":8545:8548   */\n      dup4\n        /* \"#utility.yul\":8486:8553   */\n      tag_81\n      jump\t// in\n    tag_198:\n        /* \"#utility.yul\":8479:8553   */\n      swap2\n      pop\n        /* \"#utility.yul\":8562:8655   */\n      tag_199\n        /* \"#utility.yul\":8651:8654   */\n      dup3\n        /* \"#utility.yul\":8562:8655   */\n      tag_86\n      jump\t// in\n    tag_199:\n        /* \"#utility.yul\":8680:8682   */\n      0x40\n        /* \"#utility.yul\":8675:8678   */\n      dup3\n        /* \"#utility.yul\":8671:8683   */\n      add\n        /* \"#utility.yul\":8664:8683   */\n      swap1\n      pop\n        /* \"#utility.yul\":8323:8689   */\n      swap2\n      swap1\n      pop\n      jump\t// out\n        /* \"#utility.yul\":8695:9114   */\n    tag_38:\n        /* \"#utility.yul\":8861:8865   */\n      0x00\n        /* \"#utility.yul\":8899:8901   */\n      0x20\n        /* \"#utility.yul\":8888:8897   */\n      dup3\n        /* \"#utility.yul\":8884:8902   */\n      add\n        /* \"#utility.yul\":8876:8902   */\n      swap1\n      pop\n        /* \"#utility.yul\":8948:8957   */\n      dup2\n        /* \"#utility.yul\":8942:8946   */\n      dup2\n        /* \"#utility.yul\":8938:8958   */\n      sub\n        /* \"#utility.yul\":8934:8935   */\n      0x00\n        /* \"#utility.yul\":8923:8932   */\n      dup4\n        /* \"#utility.yul\":8919:8936   */\n      add\n        /* \"#utility.yul\":8912:8959   */\n      mstore\n        /* \"#utility.yul\":8976:9107   */\n      tag_201\n        /* \"#utility.yul\":9102:9106   */\n      dup2\n        /* \"#utility.yul\":8976:9107   */\n      tag_87\n      jump\t// in\n    tag_201:\n        /* \"#utility.yul\":8968:9107   */\n      swap1\n      pop\n        /* \"#utility.yul\":8695:9114   */\n      swap2\n      swap1\n      pop\n      jump\t// out\n        /* \"#utility.yul\":9120:9300   */\n    tag_88:\n        /* \"#utility.yul\":9168:9245   */\n      0x4e487b7100000000000000000000000000000000000000000000000000000000\n        /* \"#utility.yul\":9165:9166   */\n      0x00\n        /* \"#utility.yul\":9158:9246   */\n      mstore\n        /* \"#utility.yul\":9265:9269   */\n      0x11\n        /* \"#utility.yul\":9262:9263   */\n      0x04\n        /* \"#utility.yul\":9255:9270   */\n      mstore\n        /* \"#utility.yul\":9289:9293   */\n      0x24\n        /* \"#utility.yul\":9286:9287   */\n      0x00\n        /* \"#utility.yul\":9279:9294   */\n      revert\n        /* \"#utility.yul\":9306:9539   */\n    tag_40:\n        /* \"#utility.yul\":9345:9348   */\n      0x00\n        /* \"#utility.yul\":9368:9392   */\n      tag_204\n        /* \"#utility.yul\":9386:9391   */\n      dup3\n        /* \"#utility.yul\":9368:9392   */\n      tag_59\n      jump\t// in\n    tag_204:\n        /* \"#utility.yul\":9359:9392   */\n      swap2\n      pop\n        /* \"#utility.yul\":9414:9480   */\n      0xffffffffffffffffffffffffffffffffffffffffffffffffffffffffffffffff\n        /* \"#utility.yul\":9407:9412   */\n      dup3\n        /* \"#utility.yul\":9404:9481   */\n      sub\n        /* \"#utility.yul\":9401:9504   */\n      tag_205\n      jumpi\n        /* \"#utility.yul\":9484:9502   */\n      tag_206\n      tag_88\n      jump\t// in\n    tag_206:\n        /* \"#utility.yul\":9401:9504   */\n    tag_205:\n        /* \"#utility.yul\":9531:9532   */\n      0x01\n        /* \"#utility.yul\":9524:9529   */\n      dup3\n        /* \"#utility.yul\":9520:9533   */\n      add\n        /* \"#utility.yul\":9513:9533   */\n      swap1\n      pop\n        /* \"#utility.yul\":9306:9539   */\n      swap2\n      swap1\n      pop\n      jump\t// out\n        /* \"#utility.yul\":9545:9725   */\n    tag_89:\n        /* \"#utility.yul\":9685:9717   */\n      0x636f6d6d656e74206973206e6f7420616c6c6f776564206173206e756c6c0000\n        /* \"#utility.yul\":9681:9682   */\n      0x00\n        /* \"#utility.yul\":9673:9679   */\n      dup3\n        /* \"#utility.yul\":9669:9683   */\n      add\n        /* \"#utility.yul\":9662:9718   */\n      mstore\n        /* \"#utility.yul\":9545:9725   */\n      pop\n      jump\t// out\n        /* \"#utility.yul\":9731:10097   */\n    tag_90:\n        /* \"#utility.yul\":9873:9876   */\n      0x00\n        /* \"#utility.yul\":9894:9961   */\n      tag_209\n        /* \"#utility.yul\":9958:9960   */\n      0x1e\n        /* \"#utility.yul\":9953:9956   */\n      dup4\n        /* \"#utility.yul\":9894:9961   */\n      tag_81\n      jump\t// in\n    tag_209:\n        /* \"#utility.yul\":9887:9961   */\n      swap2\n      pop\n        /* \"#utility.yul\":9970:10063   */\n      tag_210\n        /* \"#utility.yul\":10059:10062   */\n      dup3\n        /* \"#utility.yul\":9970:10063   */\n      tag_89\n      jump\t// in\n    tag_210:\n        /* \"#utility.yul\":10088:10090   */\n      0x20\n        /* \"#utility.yul\":10083:10086   */\n      dup3\n        /* \"#utility.yul\":10079:10091   */\n      add\n        /* \"#utility.yul\":10072:10091   */\n      swap1\n      pop\n        /* \"#utility.yul\":9731:10097   */\n      swap2\n      swap1\n      pop\n      jump\t// out\n        /* \"#utility.yul\":10103:10522   */\n    tag_44:\n        /* \"#utility.yul\":10269:10273   */\n      0x00\n        /* \"#utility.yul\":10307:10309   */\n      0x20\n        /* \"#utility.yul\":10296:10305   */\n      dup3\n        /* \"#utility.yul\":10292:10310   */\n      add\n        /* \"#utility.yul\":10284:10310   */\n      swap1\n      pop\n        /* \"#utility.yul\":10356:10365   */\n      dup2\n        /* \"#utility.yul\":10350:10354   */\n      dup2\n        /* \"#utility.yul\":10346:10366   */\n      sub\n        /* \"#utility.yul\":10342:10343   */\n      0x00\n        /* \"#utility.yul\":10331:10340   */\n      dup4\n        /* \"#utility.yul\":10327:10344   */\n      add\n        /* \"#utility.yul\":10320:10367   */\n      mstore\n        /* \"#utility.yul\":10384:10515   */\n      tag_212\n        /* \"#utility.yul\":10510:10514   */\n      dup2\n        /* \"#utility.yul\":10384:10515   */\n      tag_90\n      jump\t// in\n    tag_212:\n        /* \"#utility.yul\":10376:10515   */\n      swap1\n      pop\n        /* \"#utility.yul\":10103:10522   */\n      swap2\n      swap1\n      pop\n      jump\t// out\n        /* \"#utility.yul\":10528:10708   */\n    tag_91:\n        /* \"#utility.yul\":10576:10653   */\n      0x4e487b7100000000000000000000000000000000000000000000000000000000\n        /* \"#utility.yul\":10573:10574   */\n      0x00\n        /* \"#utility.yul\":10566:10654   */\n      mstore\n        /* \"#utility.yul\":10673:10677   */\n      0x22\n        /* \"#utility.yul\":10670:10671   */\n      0x04\n        /* \"#utility.yul\":10663:10678   */\n      mstore\n        /* \"#utility.yul\":10697:10701   */\n      0x24\n        /* \"#utility.yul\":10694:10695   */\n      0x00\n        /* \"#utility.yul\":10687:10702   */\n      revert\n        /* \"#utility.yul\":10714:11034   */\n    tag_51:\n        /* \"#utility.yul\":10758:10764   */\n      0x00\n        /* \"#utility.yul\":10795:10796   */\n      0x02\n        /* \"#utility.yul\":10789:10793   */\n      dup3\n        /* \"#utility.yul\":10785:10797   */\n      div\n        /* \"#utility.yul\":10775:10797   */\n      swap1\n      pop\n        /* \"#utility.yul\":10842:10843   */\n      0x01\n        /* \"#utility.yul\":10836:10840   */\n      dup3\n        /* \"#utility.yul\":10832:10844   */\n      and\n        /* \"#utility.yul\":10863:10881   */\n      dup1\n        /* \"#utility.yul\":10853:10934   */\n      tag_215\n      jumpi\n        /* \"#utility.yul\":10919:10923   */\n      0x7f\n        /* \"#utility.yul\":10911:10917   */\n      dup3\n        /* \"#utility.yul\":10907:10924   */\n      and\n        /* \"#utility.yul\":10897:10924   */\n      swap2\n      pop\n        /* \"#utility.yul\":10853:10934   */\n    tag_215:\n        /* \"#utility.yul\":10981:10983   */\n      0x20\n        /* \"#utility.yul\":10973:10979   */\n      dup3\n        /* \"#utility.yul\":10970:10984   */\n      lt\n        /* \"#utility.yul\":10950:10968   */\n      dup2\n        /* \"#utility.yul\":10947:10985   */\n      sub\n        /* \"#utility.yul\":10944:11028   */\n      tag_216\n      jumpi\n        /* \"#utility.yul\":11000:11018   */\n      tag_217\n      tag_91\n      jump\t// in\n    tag_217:\n        /* \"#utility.yul\":10944:11028   */\n    tag_216:\n        /* \"#utility.yul\":10765:11034   */\n      pop\n        /* \"#utility.yul\":10714:11034   */\n      swap2\n      swap1\n      pop\n      jump\t// out\n        /* \"#utility.yul\":11040:11181   */\n    tag_92:\n        /* \"#utility.yul\":11089:11093   */\n      0x00\n        /* \"#utility.yul\":11112:11115   */\n      dup2\n        /* \"#utility.yul\":11104:11115   */\n      swap1\n      pop\n        /* \"#utility.yul\":11135:11138   */\n      dup2\n        /* \"#utility.yul\":11132:11133   */\n      0x00\n        /* \"#utility.yul\":11125:11139   */\n      mstore\n        /* \"#utility.yul\":11169:11173   */\n      0x20\n        /* \"#utility.yul\":11166:11167   */\n      0x00\n        /* \"#utility.yul\":11156:11174   */\n      keccak256\n        /* \"#utility.yul\":11148:11174   */\n      swap1\n      pop\n        /* \"#utility.yul\":11040:11181   */\n      swap2\n      swap1\n      pop\n      jump\t// out\n        /* \"#utility.yul\":11187:11280   */\n    tag_93:\n        /* \"#utility.yul\":11224:11230   */\n      0x00\n        /* \"#utility.yul\":11271:11273   */\n      0x20\n        /* \"#utility.yul\":11266:11268   */\n      0x1f\n        /* \"#utility.yul\":11259:11264   */\n      dup4\n        /* \"#utility.yul\":11255:11269   */\n      add\n        /* \"#utility.yul\":11251:11274   */\n      div\n        /* \"#utility.yul\":11241:11274   */\n      swap1\n      pop\n        /* \"#utility.yul\":11187:11280   */\n      swap2\n      swap1\n      pop\n      jump\t// out\n        /* \"#utility.yul\":11286:11393   */\n    tag_94:\n        /* \"#utility.yul\":11330:11338   */\n      0x00\n        /* \"#utility.yul\":11380:11385   */\n      dup3\n        /* \"#utility.yul\":11374:11378   */\n      dup3\n        /* \"#utility.yul\":11370:11386   */\n      shl\n        /* \"#utility.yul\":11349:11386   */\n      swap1\n      pop\n        /* \"#utility.yul\":11286:11393   */\n      swap3\n      swap2\n      pop\n      pop\n      jump\t// out\n        /* \"#utility.yul\":11399:11792   */\n    tag_95:\n        /* \"#utility.yul\":11468:11474   */\n      0x00\n        /* \"#utility.yul\":11518:11519   */\n      0x08\n        /* \"#utility.yul\":11506:11516   */\n      dup4\n        /* \"#utility.yul\":11502:11520   */\n      mul\n        /* \"#utility.yul\":11541:11638   */\n      tag_222\n        /* \"#utility.yul\":11571:11637   */\n      0xffffffffffffffffffffffffffffffffffffffffffffffffffffffffffffffff\n        /* \"#utility.yul\":11560:11569   */\n      dup3\n        /* \"#utility.yul\":11541:11638   */\n      tag_94\n      jump\t// in\n    tag_222:\n        /* \"#utility.yul\":11659:11698   */\n      tag_223\n        /* \"#utility.yul\":11689:11697   */\n      dup7\n        /* \"#utility.yul\":11678:11687   */\n      dup4\n        /* \"#utility.yul\":11659:11698   */\n      tag_94\n      jump\t// in\n    tag_223:\n        /* \"#utility.yul\":11647:11698   */\n      swap6\n      pop\n        /* \"#utility.yul\":11731:11735   */\n      dup1\n        /* \"#utility.yul\":11727:11736   */\n      not\n        /* \"#utility.yul\":11720:11725   */\n      dup5\n        /* \"#utility.yul\":11716:11737   */\n      and\n        /* \"#utility.yul\":11707:11737   */\n      swap4\n      pop\n        /* \"#utility.yul\":11780:11784   */\n      dup1\n        /* \"#utility.yul\":11770:11778   */\n      dup7\n        /* \"#utility.yul\":11766:11785   */\n      and\n        /* \"#utility.yul\":11759:11764   */\n      dup5\n        /* \"#utility.yul\":11756:11786   */\n      or\n        /* \"#utility.yul\":11746:11786   */\n      swap3\n      pop\n        /* \"#utility.yul\":11475:11792   */\n      pop\n      pop\n        /* \"#utility.yul\":11399:11792   */\n      swap4\n      swap3\n      pop\n      pop\n      pop\n      jump\t// out\n        /* \"#utility.yul\":11798:11858   */\n    tag_96:\n        /* \"#utility.yul\":11826:11829   */\n      0x00\n        /* \"#utility.yul\":11847:11852   */\n      dup2\n        /* \"#utility.yul\":11840:11852   */\n      swap1\n      pop\n        /* \"#utility.yul\":11798:11858   */\n      swap2\n      swap1\n      pop\n      jump\t// out\n        /* \"#utility.yul\":11864:12006   */\n    tag_97:\n        /* \"#utility.yul\":11914:11923   */\n      0x00\n        /* \"#utility.yul\":11947:12000   */\n      tag_226\n        /* \"#utility.yul\":11965:11999   */\n      tag_227\n        /* \"#utility.yul\":11974:11998   */\n      tag_228\n        /* \"#utility.yul\":11992:11997   */\n      dup5\n        /* \"#utility.yul\":11974:11998   */\n      tag_59\n      jump\t// in\n    tag_228:\n        /* \"#utility.yul\":11965:11999   */\n      tag_96\n      jump\t// in\n    tag_227:\n        /* \"#utility.yul\":11947:12000   */\n      tag_59\n      jump\t// in\n    tag_226:\n        /* \"#utility.yul\":11934:12000   */\n      swap1\n      pop\n        /* \"#utility.yul\":11864:12006   */\n      swap2\n      swap1\n      pop\n      jump\t// out\n        /* \"#utility.yul\":12012:12087   */\n    tag_98:\n        /* \"#utility.yul\":12055:12058   */\n      0x00\n        /* \"#utility.yul\":12076:12081   */\n      dup2\n        /* \"#utility.yul\":12069:12081   */\n      swap1\n      pop\n        /* \"#utility.yul\":12012:12087   */\n      swap2\n      swap1\n      pop\n      jump\t// out\n        /* \"#utility.yul\":12093:12362   */\n    tag_99:\n        /* \"#utility.yul\":12203:12242   */\n      tag_231\n        /* \"#utility.yul\":12234:12241   */\n      dup4\n        /* \"#utility.yul\":12203:12242   */\n      tag_97\n      jump\t// in\n    tag_231:\n        /* \"#utility.yul\":12264:12355   */\n      tag_232\n        /* \"#utility.yul\":12313:12354   */\n      tag_233\n        /* \"#utility.yul\":12337:12353   */\n      dup3\n        /* \"#utility.yul\":12313:12354   */\n      tag_98\n      jump\t// in\n    tag_233:\n        /* \"#utility.yul\":12305:12311   */\n      dup5\n        /* \"#utility.yul\":12298:12302   */\n      dup5\n        /* \"#utility.yul\":12292:12303   */\n      sload\n        /* \"#utility.yul\":12264:12355   */\n      tag_95\n      jump\t// in\n    tag_232:\n        /* \"#utility.yul\":12258:12262   */\n      dup3\n        /* \"#utility.yul\":12251:12356   */\n      sstore\n        /* \"#utility.yul\":12169:12362   */\n      pop\n        /* \"#utility.yul\":12093:12362   */\n      pop\n      pop\n      pop\n      jump\t// out\n        /* \"#utility.yul\":12368:12441   */\n    tag_100:\n        /* \"#utility.yul\":12413:12416   */\n      0x00\n        /* \"#utility.yul\":12434:12435   */\n      0x00\n        /* \"#utility.yul\":12427:12435   */\n      swap1\n      pop\n        /* \"#utility.yul\":12368:12441   */\n      swap1\n      jump\t// out\n        /* \"#utility.yul\":12447:12636   */\n    tag_101:\n        /* \"#utility.yul\":12524:12556   */\n      tag_236\n      tag_100\n      jump\t// in\n    tag_236:\n        /* \"#utility.yul\":12565:12630   */\n      tag_237\n        /* \"#utility.yul\":12623:12629   */\n      dup2\n        /* \"#utility.yul\":12615:12621   */\n      dup5\n        /* \"#utility.yul\":12609:12613   */\n      dup5\n        /* \"#utility.yul\":12565:12630   */\n      tag_99\n      jump\t// in\n    tag_237:\n        /* \"#utility.yul\":12500:12636   */\n      pop\n        /* \"#utility.yul\":12447:12636   */\n      pop\n      pop\n      jump\t// out\n        /* \"#utility.yul\":12642:12828   */\n    tag_102:\n        /* \"#utility.yul\":12702:12822   */\n    tag_239:\n        /* \"#utility.yul\":12719:12722   */\n      dup2\n        /* \"#utility.yul\":12712:12717   */\n      dup2\n        /* \"#utility.yul\":12709:12723   */\n      lt\n        /* \"#utility.yul\":12702:12822   */\n      iszero\n      tag_241\n      jumpi\n        /* \"#utility.yul\":12773:12812   */\n      tag_242\n        /* \"#utility.yul\":12810:12811   */\n      0x00\n        /* \"#utility.yul\":12803:12808   */\n      dup3\n        /* \"#utility.yul\":12773:12812   */\n      tag_101\n      jump\t// in\n    tag_242:\n        /* \"#utility.yul\":12746:12747   */\n      0x01\n        /* \"#utility.yul\":12739:12744   */\n      dup2\n        /* \"#utility.yul\":12735:12748   */\n      add\n        /* \"#utility.yul\":12726:12748   */\n      swap1\n      pop\n        /* \"#utility.yul\":12702:12822   */\n      jump(tag_239)\n    tag_241:\n        /* \"#utility.yul\":12642:12828   */\n      pop\n      pop\n      jump\t// out\n        /* \"#utility.yul\":12834:13377   */\n    tag_103:\n        /* \"#utility.yul\":12935:12937   */\n      0x1f\n        /* \"#utility.yul\":12930:12933   */\n      dup3\n        /* \"#utility.yul\":12927:12938   */\n      gt\n        /* \"#utility.yul\":12924:13370   */\n      iszero\n      tag_244\n      jumpi\n        /* \"#utility.yul\":12969:13007   */\n      tag_245\n        /* \"#utility.yul\":13001:13006   */\n      dup2\n        /* \"#utility.yul\":12969:13007   */\n      tag_92\n      jump\t// in\n    tag_245:\n        /* \"#utility.yul\":13053:13082   */\n      tag_246\n        /* \"#utility.yul\":13071:13081   */\n      dup5\n        /* \"#utility.yul\":13053:13082   */\n      tag_93\n      jump\t// in\n    tag_246:\n        /* \"#utility.yul\":13043:13051   */\n      dup2\n        /* \"#utility.yul\":13039:13083   */\n      add\n        /* \"#utility.yul\":13236:13238   */\n      0x20\n        /* \"#utility.yul\":13224:13234   */\n      dup6\n        /* \"#utility.yul\":13221:13239   */\n      lt\n        /* \"#utility.yul\":13218:13267   */\n      iszero\n      tag_247\n      jumpi\n        /* \"#utility.yul\":13257:13265   */\n      dup2\n        /* \"#utility.yul\":13242:13265   */\n      swap1\n      pop\n        /* \"#utility.yul\":13218:13267   */\n    tag_247:\n        /* \"#utility.yul\":13280:13360   */\n      tag_248\n        /* \"#utility.yul\":13336:13358   */\n      tag_249\n        /* \"#utility.yul\":13354:13357   */\n      dup6\n        /* \"#utility.yul\":13336:13358   */\n      tag_93\n      jump\t// in\n    tag_249:\n        /* \"#utility.yul\":13326:13334   */\n      dup4\n        /* \"#utility.yul\":13322:13359   */\n      add\n        /* \"#utility.yul\":13309:13320   */\n      dup3\n        /* \"#utility.yul\":13280:13360   */\n      tag_102\n      jump\t// in\n    tag_248:\n        /* \"#utility.yul\":12939:13370   */\n      pop\n      pop\n        /* \"#utility.yul\":12924:13370   */\n    tag_244:\n        /* \"#utility.yul\":12834:13377   */\n      pop\n      pop\n      pop\n      jump\t// out\n        /* \"#utility.yul\":13383:13500   */\n    tag_104:\n        /* \"#utility.yul\":13437:13445   */\n      0x00\n        /* \"#utility.yul\":13487:13492   */\n      dup3\n        /* \"#utility.yul\":13481:13485   */\n      dup3\n        /* \"#utility.yul\":13477:13493   */\n      shr\n        /* \"#utility.yul\":13456:13493   */\n      swap1\n      pop\n        /* \"#utility.yul\":13383:13500   */\n      swap3\n      swap2\n      pop\n      pop\n      jump\t// out\n        /* \"#utility.yul\":13506:13675   */\n    tag_105:\n        /* \"#utility.yul\":13550:13556   */\n      0x00\n        /* \"#utility.yul\":13583:13634   */\n      tag_252\n        /* \"#utility.yul\":13631:13632   */\n      0x00\n        /* \"#utility.yul\":13627:13633   */\n      not\n        /* \"#utility.yul\":13619:13624   */\n      dup5\n        /* \"#utility.yul\":13616:13617   */\n      0x08\n        /* \"#utility.yul\":13612:13625   */\n      mul\n        /* \"#utility.yul\":13583:13634   */\n      tag_104\n      jump\t// in\n    tag_252:\n        /* \"#utility.yul\":13579:13635   */\n      not\n        /* \"#utility.yul\":13664:13668   */\n      dup1\n        /* \"#utility.yul\":13658:13662   */\n      dup4\n        /* \"#utility.yul\":13654:13669   */\n      and\n        /* \"#utility.yul\":13644:13669   */\n      swap2\n      pop\n        /* \"#utility.yul\":13557:13675   */\n      pop\n        /* \"#utility.yul\":13506:13675   */\n      swap3\n      swap2\n      pop\n      pop\n      jump\t// out\n        /* \"#utility.yul\":13680:13975   */\n    tag_106:\n        /* \"#utility.yul\":13756:13760   */\n      0x00\n        /* \"#utility.yul\":13902:13931   */\n      tag_254\n        /* \"#utility.yul\":13927:13930   */\n      dup4\n        /* \"#utility.yul\":13921:13925   */\n      dup4\n        /* \"#utility.yul\":13902:13931   */\n      tag_105\n      jump\t// in\n    tag_254:\n        /* \"#utility.yul\":13894:13931   */\n      swap2\n      pop\n        /* \"#utility.yul\":13964:13967   */\n      dup3\n        /* \"#utility.yul\":13961:13962   */\n      0x02\n        /* \"#utility.yul\":13957:13968   */\n      mul\n        /* \"#utility.yul\":13951:13955   */\n      dup3\n        /* \"#utility.yul\":13948:13969   */\n      or\n        /* \"#utility.yul\":13940:13969   */\n      swap1\n      pop\n        /* \"#utility.yul\":13680:13975   */\n      swap3\n      swap2\n      pop\n      pop\n      jump\t// out\n        /* \"#utility.yul\":13980:15375   */\n    tag_46:\n        /* \"#utility.yul\":14097:14134   */\n      tag_256\n        /* \"#utility.yul\":14130:14133   */\n      dup3\n        /* \"#utility.yul\":14097:14134   */\n      tag_80\n      jump\t// in\n    tag_256:\n        /* \"#utility.yul\":14199:14217   */\n      0xffffffffffffffff\n        /* \"#utility.yul\":14191:14197   */\n      dup2\n        /* \"#utility.yul\":14188:14218   */\n      gt\n        /* \"#utility.yul\":14185:14241   */\n      iszero\n      tag_257\n      jumpi\n        /* \"#utility.yul\":14221:14239   */\n      tag_258\n      tag_72\n      jump\t// in\n    tag_258:\n        /* \"#utility.yul\":14185:14241   */\n    tag_257:\n        /* \"#utility.yul\":14265:14303   */\n      tag_259\n        /* \"#utility.yul\":14297:14301   */\n      dup3\n        /* \"#utility.yul\":14291:14302   */\n      sload\n        /* \"#utility.yul\":14265:14303   */\n      tag_51\n      jump\t// in\n    tag_259:\n        /* \"#utility.yul\":14350:14417   */\n      tag_260\n        /* \"#utility.yul\":14410:14416   */\n      dup3\n        /* \"#utility.yul\":14402:14408   */\n      dup3\n        /* \"#utility.yul\":14396:14400   */\n      dup6\n        /* \"#utility.yul\":14350:14417   */\n      tag_103\n      jump\t// in\n    tag_260:\n        /* \"#utility.yul\":14444:14445   */\n      0x00\n        /* \"#utility.yul\":14468:14472   */\n      0x20\n        /* \"#utility.yul\":14455:14472   */\n      swap1\n      pop\n        /* \"#utility.yul\":14500:14502   */\n      0x1f\n        /* \"#utility.yul\":14492:14498   */\n      dup4\n        /* \"#utility.yul\":14489:14503   */\n      gt\n        /* \"#utility.yul\":14517:14518   */\n      0x01\n        /* \"#utility.yul\":14512:15130   */\n      dup2\n      eq\n      tag_262\n      jumpi\n        /* \"#utility.yul\":15174:15175   */\n      0x00\n        /* \"#utility.yul\":15191:15197   */\n      dup5\n        /* \"#utility.yul\":15188:15265   */\n      iszero\n      tag_263\n      jumpi\n        /* \"#utility.yul\":15240:15249   */\n      dup3\n        /* \"#utility.yul\":15235:15238   */\n      dup8\n        /* \"#utility.yul\":15231:15250   */\n      add\n        /* \"#utility.yul\":15225:15251   */\n      mload\n        /* \"#utility.yul\":15216:15251   */\n      swap1\n      pop\n        /* \"#utility.yul\":15188:15265   */\n    tag_263:\n        /* \"#utility.yul\":15291:15358   */\n      tag_264\n        /* \"#utility.yul\":15351:15357   */\n      dup6\n        /* \"#utility.yul\":15344:15349   */\n      dup3\n        /* \"#utility.yul\":15291:15358   */\n      tag_106\n      jump\t// in\n    tag_264:\n        /* \"#utility.yul\":15285:15289   */\n      dup7\n        /* \"#utility.yul\":15278:15359   */\n      sstore\n        /* \"#utility.yul\":15147:15369   */\n      pop\n        /* \"#utility.yul\":14482:15369   */\n      jump(tag_261)\n        /* \"#utility.yul\":14512:15130   */\n    tag_262:\n        /* \"#utility.yul\":14564:14568   */\n      0x1f\n        /* \"#utility.yul\":14560:14569   */\n      not\n        /* \"#utility.yul\":14552:14558   */\n      dup5\n        /* \"#utility.yul\":14548:14570   */\n      and\n        /* \"#utility.yul\":14598:14635   */\n      tag_265\n        /* \"#utility.yul\":14630:14634   */\n      dup7\n        /* \"#utility.yul\":14598:14635   */\n      tag_92\n      jump\t// in\n    tag_265:\n        /* \"#utility.yul\":14657:14658   */\n      0x00\n        /* \"#utility.yul\":14671:14879   */\n    tag_266:\n        /* \"#utility.yul\":14685:14692   */\n      dup3\n        /* \"#utility.yul\":14682:14683   */\n      dup2\n        /* \"#utility.yul\":14679:14693   */\n      lt\n        /* \"#utility.yul\":14671:14879   */\n      iszero\n      tag_268\n      jumpi\n        /* \"#utility.yul\":14764:14773   */\n      dup5\n        /* \"#utility.yul\":14759:14762   */\n      dup10\n        /* \"#utility.yul\":14755:14774   */\n      add\n        /* \"#utility.yul\":14749:14775   */\n      mload\n        /* \"#utility.yul\":14741:14747   */\n      dup3\n        /* \"#utility.yul\":14734:14776   */\n      sstore\n        /* \"#utility.yul\":14815:14816   */\n      0x01\n        /* \"#utility.yul\":14807:14813   */\n      dup3\n        /* \"#utility.yul\":14803:14817   */\n      add\n        /* \"#utility.yul\":14793:14817   */\n      swap2\n      pop\n        /* \"#utility.yul\":14862:14864   */\n      0x20\n        /* \"#utility.yul\":14851:14860   */\n      dup6\n        /* \"#utility.yul\":14847:14865   */\n      add\n        /* \"#utility.yul\":14834:14865   */\n      swap5\n      pop\n        /* \"#utility.yul\":14708:14712   */\n      0x20\n        /* \"#utility.yul\":14705:14706   */\n      dup2\n        /* \"#utility.yul\":14701:14713   */\n      add\n        /* \"#utility.yul\":14696:14713   */\n      swap1\n      pop\n        /* \"#utility.yul\":14671:14879   */\n      jump(tag_266)\n    tag_268:\n        /* \"#utility.yul\":14907:14913   */\n      dup7\n        /* \"#utility.yul\":14898:14905   */\n      dup4\n        /* \"#utility.yul\":14895:14914   */\n      lt\n        /* \"#utility.yul\":14892:15071   */\n      iszero\n      tag_269\n      jumpi\n        /* \"#utility.yul\":14965:14974   */\n      dup5\n        /* \"#utility.yul\":14960:14963   */\n      dup10\n        /* \"#utility.yul\":14956:14975   */\n      add\n        /* \"#utility.yul\":14950:14976   */\n      mload\n        /* \"#utility.yul\":15008:15056   */\n      tag_270\n        /* \"#utility.yul\":15050:15054   */\n      0x1f\n        /* \"#utility.yul\":15042:15048   */\n      dup10\n        /* \"#utility.yul\":15038:15055   */\n      and\n        /* \"#utility.yul\":15027:15036   */\n      dup3\n        /* \"#utility.yul\":15008:15056   */\n      tag_105\n      jump\t// in\n    tag_270:\n        /* \"#utility.yul\":15000:15006   */\n      dup4\n        /* \"#utility.yul\":14993:15057   */\n      sstore\n        /* \"#utility.yul\":14915:15071   */\n      pop\n        /* \"#utility.yul\":14892:15071   */\n    tag_269:\n        /* \"#utility.yul\":15117:15118   */\n      0x01\n        /* \"#utility.yul\":15113:15114   */\n      0x02\n        /* \"#utility.yul\":15105:15111   */\n      dup9\n        /* \"#utility.yul\":15101:15115   */\n      mul\n        /* \"#utility.yul\":15097:15119   */\n      add\n        /* \"#utility.yul\":15091:15095   */\n      dup9\n        /* \"#utility.yul\":15084:15120   */\n      sstore\n        /* \"#utility.yul\":14519:15130   */\n      pop\n      pop\n      pop\n        /* \"#utility.yul\":14482:15369   */\n    tag_261:\n      pop\n        /* \"#utility.yul\":14072:15375   */\n      pop\n      pop\n      pop\n        /* \"#utility.yul\":13980:15375   */\n      pop\n      pop\n      jump\t// out\n        /* \"#utility.yul\":15381:15694   */\n    tag_48:\n        /* \"#utility.yul\":15494:15498   */\n      0x00\n        /* \"#utility.yul\":15532:15534   */\n      0x20\n        /* \"#utility.yul\":15521:15530   */\n      dup3\n        /* \"#utility.yul\":15517:15535   */\n      add\n        /* \"#utility.yul\":15509:15535   */\n      swap1\n      pop\n        /* \"#utility.yul\":15581:15590   */\n      dup2\n        /* \"#utility.yul\":15575:15579   */\n      dup2\n        /* \"#utility.yul\":15571:15591   */\n      sub\n        /* \"#utility.yul\":15567:15568   */\n      0x00\n        /* \"#utility.yul\":15556:15565   */\n      dup4\n        /* \"#utility.yul\":15552:15569   */\n      add\n        /* \"#utility.yul\":15545:15592   */\n      mstore\n        /* \"#utility.yul\":15609:15687   */\n      tag_272\n        /* \"#utility.yul\":15682:15686   */\n      dup2\n        /* \"#utility.yul\":15673:15679   */\n      dup5\n        /* \"#utility.yul\":15609:15687   */\n      tag_83\n      jump\t// in\n    tag_272:\n        /* \"#utility.yul\":15601:15687   */\n      swap1\n      pop\n        /* \"#utility.yul\":15381:15694   */\n      swap3\n      swap2\n      pop\n      pop\n      jump\t// out\n\n    auxdata: 0xa2646970667358221220954f92773ca678ee50b099f043a1ff352916ebb13dc1f4c038ca8eaed8c4306764736f6c634300081e0033\n}\n",
				"bytecode": {
					"linkReferences": {},
					"object": "608060405260015f553480156012575f5ffd5b50610dc6806100205f395ff3fe608060405234801561000f575f5ffd5b5060043610610055575f3560e01c8063012cc1e21461005957806302c427871461007557806361b8ce8c146100a55780638cb7b351146100c35780638ebb4c15146100df575b5f5ffd5b610073600480360381019061006e9190610578565b610112565b005b61008f600480360381019061008a91906105fd565b6102cd565b60405161009c9190610655565b60405180910390f35b6100ad6102f7565b6040516100ba919061067d565b60405180910390f35b6100dd60048036038101906100d891906107d2565b6102fc565b005b6100f960048036038101906100f49190610578565b610463565b6040516101099493929190610888565b60405180910390f35b5f8111801561012157505f5481105b610160576040517f08c379a00000000000000000000000000000000000000000000000000000000081526004016101579061091c565b60405180910390fd5b60025f8281526020019081526020015f205f3373ffffffffffffffffffffffffffffffffffffffff1673ffffffffffffffffffffffffffffffffffffffff1681526020019081526020015f205f9054906101000a900460ff16156101f9576040517f08c379a00000000000000000000000000000000000000000000000000000000081526004016101f0906109aa565b60405180910390fd5b600160025f8381526020019081526020015f205f3373ffffffffffffffffffffffffffffffffffffffff1673ffffffffffffffffffffffffffffffffffffffff1681526020019081526020015f205f6101000a81548160ff02191690831515021790555060015f8281526020019081526020015f206003015f815480929190610281906109f5565b91905055503373ffffffffffffffffffffffffffffffffffffffff16817ff130ed2efa2f29aaeb0d5dd95532c1cfeef37afc311d3b52ca7666dadb6602a260405160405180910390a350565b6002602052815f5260405f20602052805f5260405f205f915091509054906101000a900460ff1681565b5f5481565b5f81511161033f576040517f08c379a000000000000000000000000000000000000000000000000000000000815260040161033690610a86565b60405180910390fd5b60405180608001604052805f5481526020013373ffffffffffffffffffffffffffffffffffffffff1681526020018281526020015f81525060015f5f5481526020019081526020015f205f820151815f01556020820151816001015f6101000a81548173ffffffffffffffffffffffffffffffffffffffff021916908373ffffffffffffffffffffffffffffffffffffffff16021790555060408201518160020190816103ec9190610ca1565b50606082015181600301559050503373ffffffffffffffffffffffffffffffffffffffff165f547f2a3becf3aaea83531f9c6fa03acdc91f40ea3468991ed4785afb4e5a1a63e0ac836040516104429190610d70565b60405180910390a35f5f81548092919061045b906109f5565b919050555050565b6001602052805f5260405f205f91509050805f015490806001015f9054906101000a900473ffffffffffffffffffffffffffffffffffffffff16908060020180546104ad90610ad1565b80601f01602080910402602001604051908101604052809291908181526020018280546104d990610ad1565b80156105245780601f106104fb57610100808354040283529160200191610524565b820191905f5260205f20905b81548152906001019060200180831161050757829003601f168201915b5050505050908060030154905084565b5f604051905090565b5f5ffd5b5f5ffd5b5f819050919050565b61055781610545565b8114610561575f5ffd5b50565b5f813590506105728161054e565b92915050565b5f6020828403121561058d5761058c61053d565b5b5f61059a84828501610564565b91505092915050565b5f73ffffffffffffffffffffffffffffffffffffffff82169050919050565b5f6105cc826105a3565b9050919050565b6105dc816105c2565b81146105e6575f5ffd5b50565b5f813590506105f7816105d3565b92915050565b5f5f604083850312156106135761061261053d565b5b5f61062085828601610564565b9250506020610631858286016105e9565b9150509250929050565b5f8115159050919050565b61064f8161063b565b82525050565b5f6020820190506106685f830184610646565b92915050565b61067781610545565b82525050565b5f6020820190506106905f83018461066e565b92915050565b5f5ffd5b5f5ffd5b5f601f19601f8301169050919050565b7f4e487b71000000000000000000000000000000000000000000000000000000005f52604160045260245ffd5b6106e48261069e565b810181811067ffffffffffffffff82111715610703576107026106ae565b5b80604052505050565b5f610715610534565b905061072182826106db565b919050565b5f67ffffffffffffffff8211156107405761073f6106ae565b5b6107498261069e565b9050602081019050919050565b828183375f83830152505050565b5f61077661077184610726565b61070c565b9050828152602081018484840111156107925761079161069a565b5b61079d848285610756565b509392505050565b5f82601f8301126107b9576107b8610696565b5b81356107c9848260208601610764565b91505092915050565b5f602082840312156107e7576107e661053d565b5b5f82013567ffffffffffffffff81111561080457610803610541565b5b610810848285016107a5565b91505092915050565b610822816105c2565b82525050565b5f81519050919050565b5f82825260208201905092915050565b8281835e5f83830152505050565b5f61085a82610828565b6108648185610832565b9350610874818560208601610842565b61087d8161069e565b840191505092915050565b5f60808201905061089b5f83018761066e565b6108a86020830186610819565b81810360408301526108ba8185610850565b90506108c9606083018461066e565b95945050505050565b7f5468697320697320616e20696e76616c696420636f6d6d656e742049440000005f82015250565b5f610906601d83610832565b9150610911826108d2565b602082019050919050565b5f6020820190508181035f830152610933816108fa565b9050919050565b7f596f752068616420616c7265616479207468756d6265642075702074686973205f8201527f636f6d6d656e7400000000000000000000000000000000000000000000000000602082015250565b5f610994602783610832565b915061099f8261093a565b604082019050919050565b5f6020820190508181035f8301526109c181610988565b9050919050565b7f4e487b71000000000000000000000000000000000000000000000000000000005f52601160045260245ffd5b5f6109ff82610545565b91507fffffffffffffffffffffffffffffffffffffffffffffffffffffffffffffffff8203610a3157610a306109c8565b5b600182019050919050565b7f636f6d6d656e74206973206e6f7420616c6c6f776564206173206e756c6c00005f82015250565b5f610a70601e83610832565b9150610a7b82610a3c565b602082019050919050565b5f6020820190508181035f830152610a9d81610a64565b9050919050565b7f4e487b71000000000000000000000000000000000000000000000000000000005f52602260045260245ffd5b5f6002820490506001821680610ae857607f821691505b602082108103610afb57610afa610aa4565b5b50919050565b5f819050815f5260205f209050919050565b5f6020601f8301049050919050565b5f82821b905092915050565b5f60088302610b5d7fffffffffffffffffffffffffffffffffffffffffffffffffffffffffffffffff82610b22565b610b678683610b22565b95508019841693508086168417925050509392505050565b5f819050919050565b5f610ba2610b9d610b9884610545565b610b7f565b610545565b9050919050565b5f819050919050565b610bbb83610b88565b610bcf610bc782610ba9565b848454610b2e565b825550505050565b5f5f905090565b610be6610bd7565b610bf1818484610bb2565b505050565b5b81811015610c1457610c095f82610bde565b600181019050610bf7565b5050565b601f821115610c5957610c2a81610b01565b610c3384610b13565b81016020851015610c42578190505b610c56610c4e85610b13565b830182610bf6565b50505b505050565b5f82821c905092915050565b5f610c795f1984600802610c5e565b1980831691505092915050565b5f610c918383610c6a565b9150826002028217905092915050565b610caa82610828565b67ffffffffffffffff811115610cc357610cc26106ae565b5b610ccd8254610ad1565b610cd8828285610c18565b5f60209050601f831160018114610d09575f8415610cf7578287015190505b610d018582610c86565b865550610d68565b601f198416610d1786610b01565b5f5b82811015610d3e57848901518255600182019150602085019450602081019050610d19565b86831015610d5b5784890151610d57601f891682610c6a565b8355505b6001600288020188555050505b505050505050565b5f6020820190508181035f830152610d888184610850565b90509291505056fea2646970667358221220954f92773ca678ee50b099f043a1ff352916ebb13dc1f4c038ca8eaed8c4306764736f6c634300081e0033",
					"opcodes": "PUSH1 0x80 PUSH1 0x40 MSTORE PUSH1 0x1 PUSH0 SSTORE CALLVALUE DUP1 ISZERO PUSH1 0x12 JUMPI PUSH0 PUSH0 REVERT JUMPDEST POP PUSH2 0xDC6 DUP1 PUSH2 0x20 PUSH0 CODECOPY PUSH0 RETURN INVALID PUSH1 0x80 PUSH1 0x40 MSTORE CALLVALUE DUP1 ISZERO PUSH2 0xF JUMPI PUSH0 PUSH0 REVERT JUMPDEST POP PUSH1 0x4 CALLDATASIZE LT PUSH2 0x55 JUMPI PUSH0 CALLDATALOAD PUSH1 0xE0 SHR DUP1 PUSH4 0x12CC1E2 EQ PUSH2 0x59 JUMPI DUP1 PUSH4 0x2C42787 EQ PUSH2 0x75 JUMPI DUP1 PUSH4 0x61B8CE8C EQ PUSH2 0xA5 JUMPI DUP1 PUSH4 0x8CB7B351 EQ PUSH2 0xC3 JUMPI DUP1 PUSH4 0x8EBB4C15 EQ PUSH2 0xDF JUMPI JUMPDEST PUSH0 PUSH0 REVERT JUMPDEST PUSH2 0x73 PUSH1 0x4 DUP1 CALLDATASIZE SUB DUP2 ADD SWAP1 PUSH2 0x6E SWAP2 SWAP1 PUSH2 0x578 JUMP JUMPDEST PUSH2 0x112 JUMP JUMPDEST STOP JUMPDEST PUSH2 0x8F PUSH1 0x4 DUP1 CALLDATASIZE SUB DUP2 ADD SWAP1 PUSH2 0x8A SWAP2 SWAP1 PUSH2 0x5FD JUMP JUMPDEST PUSH2 0x2CD JUMP JUMPDEST PUSH1 0x40 MLOAD PUSH2 0x9C SWAP2 SWAP1 PUSH2 0x655 JUMP JUMPDEST PUSH1 0x40 MLOAD DUP1 SWAP2 SUB SWAP1 RETURN JUMPDEST PUSH2 0xAD PUSH2 0x2F7 JUMP JUMPDEST PUSH1 0x40 MLOAD PUSH2 0xBA SWAP2 SWAP1 PUSH2 0x67D JUMP JUMPDEST PUSH1 0x40 MLOAD DUP1 SWAP2 SUB SWAP1 RETURN JUMPDEST PUSH2 0xDD PUSH1 0x4 DUP1 CALLDATASIZE SUB DUP2 ADD SWAP1 PUSH2 0xD8 SWAP2 SWAP1 PUSH2 0x7D2 JUMP JUMPDEST PUSH2 0x2FC JUMP JUMPDEST STOP JUMPDEST PUSH2 0xF9 PUSH1 0x4 DUP1 CALLDATASIZE SUB DUP2 ADD SWAP1 PUSH2 0xF4 SWAP2 SWAP1 PUSH2 0x578 JUMP JUMPDEST PUSH2 0x463 JUMP JUMPDEST PUSH1 0x40 MLOAD PUSH2 0x109 SWAP5 SWAP4 SWAP3 SWAP2 SWAP1 PUSH2 0x888 JUMP JUMPDEST PUSH1 0x40 MLOAD DUP1 SWAP2 SUB SWAP1 RETURN JUMPDEST PUSH0 DUP2 GT DUP1 ISZERO PUSH2 0x121 JUMPI POP PUSH0 SLOAD DUP2 LT JUMPDEST PUSH2 0x160 JUMPI PUSH1 0x40 MLOAD PUSH32 0x8C379A000000000000000000000000000000000000000000000000000000000 DUP2 MSTORE PUSH1 0x4 ADD PUSH2 0x157 SWAP1 PUSH2 0x91C JUMP JUMPDEST PUSH1 0x40 MLOAD DUP1 SWAP2 SUB SWAP1 REVERT JUMPDEST PUSH1 0x2 PUSH0 DUP3 DUP2 MSTORE PUSH1 0x20 ADD SWAP1 DUP2 MSTORE PUSH1 0x20 ADD PUSH0 KECCAK256 PUSH0 CALLER PUSH20 0xFFFFFFFFFFFFFFFFFFFFFFFFFFFFFFFFFFFFFFFF AND PUSH20 0xFFFFFFFFFFFFFFFFFFFFFFFFFFFFFFFFFFFFFFFF AND DUP2 MSTORE PUSH1 0x20 ADD SWAP1 DUP2 MSTORE PUSH1 0x20 ADD PUSH0 KECCAK256 PUSH0 SWAP1 SLOAD SWAP1 PUSH2 0x100 EXP SWAP1 DIV PUSH1 0xFF AND ISZERO PUSH2 0x1F9 JUMPI PUSH1 0x40 MLOAD PUSH32 0x8C379A000000000000000000000000000000000000000000000000000000000 DUP2 MSTORE PUSH1 0x4 ADD PUSH2 0x1F0 SWAP1 PUSH2 0x9AA JUMP JUMPDEST PUSH1 0x40 MLOAD DUP1 SWAP2 SUB SWAP1 REVERT JUMPDEST PUSH1 0x1 PUSH1 0x2 PUSH0 DUP4 DUP2 MSTORE PUSH1 0x20 ADD SWAP1 DUP2 MSTORE PUSH1 0x20 ADD PUSH0 KECCAK256 PUSH0 CALLER PUSH20 0xFFFFFFFFFFFFFFFFFFFFFFFFFFFFFFFFFFFFFFFF AND PUSH20 0xFFFFFFFFFFFFFFFFFFFFFFFFFFFFFFFFFFFFFFFF AND DUP2 MSTORE PUSH1 0x20 ADD SWAP1 DUP2 MSTORE PUSH1 0x20 ADD PUSH0 KECCAK256 PUSH0 PUSH2 0x100 EXP DUP2 SLOAD DUP2 PUSH1 0xFF MUL NOT AND SWAP1 DUP4 ISZERO ISZERO MUL OR SWAP1 SSTORE POP PUSH1 0x1 PUSH0 DUP3 DUP2 MSTORE PUSH1 0x20 ADD SWAP1 DUP2 MSTORE PUSH1 0x20 ADD PUSH0 KECCAK256 PUSH1 0x3 ADD PUSH0 DUP2 SLOAD DUP1 SWAP3 SWAP2 SWAP1 PUSH2 0x281 SWAP1 PUSH2 0x9F5 JUMP JUMPDEST SWAP2 SWAP1 POP SSTORE POP CALLER PUSH20 0xFFFFFFFFFFFFFFFFFFFFFFFFFFFFFFFFFFFFFFFF AND DUP2 PUSH32 0xF130ED2EFA2F29AAEB0D5DD95532C1CFEEF37AFC311D3B52CA7666DADB6602A2 PUSH1 0x40 MLOAD PUSH1 0x40 MLOAD DUP1 SWAP2 SUB SWAP1 LOG3 POP JUMP JUMPDEST PUSH1 0x2 PUSH1 0x20 MSTORE DUP2 PUSH0 MSTORE PUSH1 0x40 PUSH0 KECCAK256 PUSH1 0x20 MSTORE DUP1 PUSH0 MSTORE PUSH1 0x40 PUSH0 KECCAK256 PUSH0 SWAP2 POP SWAP2 POP SWAP1 SLOAD SWAP1 PUSH2 0x100 EXP SWAP1 DIV PUSH1 0xFF AND DUP2 JUMP JUMPDEST PUSH0 SLOAD DUP2 JUMP JUMPDEST PUSH0 DUP2 MLOAD GT PUSH2 0x33F JUMPI PUSH1 0x40 MLOAD PUSH32 0x8C379A000000000000000000000000000000000000000000000000000000000 DUP2 MSTORE PUSH1 0x4 ADD PUSH2 0x336 SWAP1 PUSH2 0xA86 JUMP JUMPDEST PUSH1 0x40 MLOAD DUP1 SWAP2 SUB SWAP1 REVERT JUMPDEST PUSH1 0x40 MLOAD DUP1 PUSH1 0x80 ADD PUSH1 0x40 MSTORE DUP1 PUSH0 SLOAD DUP2 MSTORE PUSH1 0x20 ADD CALLER PUSH20 0xFFFFFFFFFFFFFFFFFFFFFFFFFFFFFFFFFFFFFFFF AND DUP2 MSTORE PUSH1 0x20 ADD DUP3 DUP2 MSTORE PUSH1 0x20 ADD PUSH0 DUP2 MSTORE POP PUSH1 0x1 PUSH0 PUSH0 SLOAD DUP2 MSTORE PUSH1 0x20 ADD SWAP1 DUP2 MSTORE PUSH1 0x20 ADD PUSH0 KECCAK256 PUSH0 DUP3 ADD MLOAD DUP2 PUSH0 ADD SSTORE PUSH1 0x20 DUP3 ADD MLOAD DUP2 PUSH1 0x1 ADD PUSH0 PUSH2 0x100 EXP DUP2 SLOAD DUP2 PUSH20 0xFFFFFFFFFFFFFFFFFFFFFFFFFFFFFFFFFFFFFFFF MUL NOT AND SWAP1 DUP4 PUSH20 0xFFFFFFFFFFFFFFFFFFFFFFFFFFFFFFFFFFFFFFFF AND MUL OR SWAP1 SSTORE POP PUSH1 0x40 DUP3 ADD MLOAD DUP2 PUSH1 0x2 ADD SWAP1 DUP2 PUSH2 0x3EC SWAP2 SWAP1 PUSH2 0xCA1 JUMP JUMPDEST POP PUSH1 0x60 DUP3 ADD MLOAD DUP2 PUSH1 0x3 ADD SSTORE SWAP1 POP POP CALLER PUSH20 0xFFFFFFFFFFFFFFFFFFFFFFFFFFFFFFFFFFFFFFFF AND PUSH0 SLOAD PUSH32 0x2A3BECF3AAEA83531F9C6FA03ACDC91F40EA3468991ED4785AFB4E5A1A63E0AC DUP4 PUSH1 0x40 MLOAD PUSH2 0x442 SWAP2 SWAP1 PUSH2 0xD70 JUMP JUMPDEST PUSH1 0x40 MLOAD DUP1 SWAP2 SUB SWAP1 LOG3 PUSH0 PUSH0 DUP2 SLOAD DUP1 SWAP3 SWAP2 SWAP1 PUSH2 0x45B SWAP1 PUSH2 0x9F5 JUMP JUMPDEST SWAP2 SWAP1 POP SSTORE POP POP JUMP JUMPDEST PUSH1 0x1 PUSH1 0x20 MSTORE DUP1 PUSH0 MSTORE PUSH1 0x40 PUSH0 KECCAK256 PUSH0 SWAP2 POP SWAP1 POP DUP1 PUSH0 ADD SLOAD SWAP1 DUP1 PUSH1 0x1 ADD PUSH0 SWAP1 SLOAD SWAP1 PUSH2 0x100 EXP SWAP1 DIV PUSH20 0xFFFFFFFFFFFFFFFFFFFFFFFFFFFFFFFFFFFFFFFF AND SWAP1 DUP1 PUSH1 0x2 ADD DUP1 SLOAD PUSH2 0x4AD SWAP1 PUSH2 0xAD1 JUMP JUMPDEST DUP1 PUSH1 0x1F ADD PUSH1 0x20 DUP1 SWAP2 DIV MUL PUSH1 0x20 ADD PUSH1 0x40 MLOAD SWAP1 DUP2 ADD PUSH1 0x40 MSTORE DUP1 SWAP3 SWAP2 SWAP1 DUP2 DUP2 MSTORE PUSH1 0x20 ADD DUP3 DUP1 SLOAD PUSH2 0x4D9 SWAP1 PUSH2 0xAD1 JUMP JUMPDEST DUP1 ISZERO PUSH2 0x524 JUMPI DUP1 PUSH1 0x1F LT PUSH2 0x4FB JUMPI PUSH2 0x100 DUP1 DUP4 SLOAD DIV MUL DUP4 MSTORE SWAP2 PUSH1 0x20 ADD SWAP2 PUSH2 0x524 JUMP JUMPDEST DUP3 ADD SWAP2 SWAP1 PUSH0 MSTORE PUSH1 0x20 PUSH0 KECCAK256 SWAP1 JUMPDEST DUP2 SLOAD DUP2 MSTORE SWAP1 PUSH1 0x1 ADD SWAP1 PUSH1 0x20 ADD DUP1 DUP4 GT PUSH2 0x507 JUMPI DUP3 SWAP1 SUB PUSH1 0x1F AND DUP3 ADD SWAP2 JUMPDEST POP POP POP POP POP SWAP1 DUP1 PUSH1 0x3 ADD SLOAD SWAP1 POP DUP5 JUMP JUMPDEST PUSH0 PUSH1 0x40 MLOAD SWAP1 POP SWAP1 JUMP JUMPDEST PUSH0 PUSH0 REVERT JUMPDEST PUSH0 PUSH0 REVERT JUMPDEST PUSH0 DUP2 SWAP1 POP SWAP2 SWAP1 POP JUMP JUMPDEST PUSH2 0x557 DUP2 PUSH2 0x545 JUMP JUMPDEST DUP2 EQ PUSH2 0x561 JUMPI PUSH0 PUSH0 REVERT JUMPDEST POP JUMP JUMPDEST PUSH0 DUP2 CALLDATALOAD SWAP1 POP PUSH2 0x572 DUP2 PUSH2 0x54E JUMP JUMPDEST SWAP3 SWAP2 POP POP JUMP JUMPDEST PUSH0 PUSH1 0x20 DUP3 DUP5 SUB SLT ISZERO PUSH2 0x58D JUMPI PUSH2 0x58C PUSH2 0x53D JUMP JUMPDEST JUMPDEST PUSH0 PUSH2 0x59A DUP5 DUP3 DUP6 ADD PUSH2 0x564 JUMP JUMPDEST SWAP2 POP POP SWAP3 SWAP2 POP POP JUMP JUMPDEST PUSH0 PUSH20 0xFFFFFFFFFFFFFFFFFFFFFFFFFFFFFFFFFFFFFFFF DUP3 AND SWAP1 POP SWAP2 SWAP1 POP JUMP JUMPDEST PUSH0 PUSH2 0x5CC DUP3 PUSH2 0x5A3 JUMP JUMPDEST SWAP1 POP SWAP2 SWAP1 POP JUMP JUMPDEST PUSH2 0x5DC DUP2 PUSH2 0x5C2 JUMP JUMPDEST DUP2 EQ PUSH2 0x5E6 JUMPI PUSH0 PUSH0 REVERT JUMPDEST POP JUMP JUMPDEST PUSH0 DUP2 CALLDATALOAD SWAP1 POP PUSH2 0x5F7 DUP2 PUSH2 0x5D3 JUMP JUMPDEST SWAP3 SWAP2 POP POP JUMP JUMPDEST PUSH0 PUSH0 PUSH1 0x40 DUP4 DUP6 SUB SLT ISZERO PUSH2 0x613 JUMPI PUSH2 0x612 PUSH2 0x53D JUMP JUMPDEST JUMPDEST PUSH0 PUSH2 0x620 DUP6 DUP3 DUP7 ADD PUSH2 0x564 JUMP JUMPDEST SWAP3 POP POP PUSH1 0x20 PUSH2 0x631 DUP6 DUP3 DUP7 ADD PUSH2 0x5E9 JUMP JUMPDEST SWAP2 POP POP SWAP3 POP SWAP3 SWAP1 POP JUMP JUMPDEST PUSH0 DUP2 ISZERO ISZERO SWAP1 POP SWAP2 SWAP1 POP JUMP JUMPDEST PUSH2 0x64F DUP2 PUSH2 0x63B JUMP JUMPDEST DUP3 MSTORE POP POP JUMP JUMPDEST PUSH0 PUSH1 0x20 DUP3 ADD SWAP1 POP PUSH2 0x668 PUSH0 DUP4 ADD DUP5 PUSH2 0x646 JUMP JUMPDEST SWAP3 SWAP2 POP POP JUMP JUMPDEST PUSH2 0x677 DUP2 PUSH2 0x545 JUMP JUMPDEST DUP3 MSTORE POP POP JUMP JUMPDEST PUSH0 PUSH1 0x20 DUP3 ADD SWAP1 POP PUSH2 0x690 PUSH0 DUP4 ADD DUP5 PUSH2 0x66E JUMP JUMPDEST SWAP3 SWAP2 POP POP JUMP JUMPDEST PUSH0 PUSH0 REVERT JUMPDEST PUSH0 PUSH0 REVERT JUMPDEST PUSH0 PUSH1 0x1F NOT PUSH1 0x1F DUP4 ADD AND SWAP1 POP SWAP2 SWAP1 POP JUMP JUMPDEST PUSH32 0x4E487B7100000000000000000000000000000000000000000000000000000000 PUSH0 MSTORE PUSH1 0x41 PUSH1 0x4 MSTORE PUSH1 0x24 PUSH0 REVERT JUMPDEST PUSH2 0x6E4 DUP3 PUSH2 0x69E JUMP JUMPDEST DUP2 ADD DUP2 DUP2 LT PUSH8 0xFFFFFFFFFFFFFFFF DUP3 GT OR ISZERO PUSH2 0x703 JUMPI PUSH2 0x702 PUSH2 0x6AE JUMP JUMPDEST JUMPDEST DUP1 PUSH1 0x40 MSTORE POP POP POP JUMP JUMPDEST PUSH0 PUSH2 0x715 PUSH2 0x534 JUMP JUMPDEST SWAP1 POP PUSH2 0x721 DUP3 DUP3 PUSH2 0x6DB JUMP JUMPDEST SWAP2 SWAP1 POP JUMP JUMPDEST PUSH0 PUSH8 0xFFFFFFFFFFFFFFFF DUP3 GT ISZERO PUSH2 0x740 JUMPI PUSH2 0x73F PUSH2 0x6AE JUMP JUMPDEST JUMPDEST PUSH2 0x749 DUP3 PUSH2 0x69E JUMP JUMPDEST SWAP1 POP PUSH1 0x20 DUP2 ADD SWAP1 POP SWAP2 SWAP1 POP JUMP JUMPDEST DUP3 DUP2 DUP4 CALLDATACOPY PUSH0 DUP4 DUP4 ADD MSTORE POP POP POP JUMP JUMPDEST PUSH0 PUSH2 0x776 PUSH2 0x771 DUP5 PUSH2 0x726 JUMP JUMPDEST PUSH2 0x70C JUMP JUMPDEST SWAP1 POP DUP3 DUP2 MSTORE PUSH1 0x20 DUP2 ADD DUP5 DUP5 DUP5 ADD GT ISZERO PUSH2 0x792 JUMPI PUSH2 0x791 PUSH2 0x69A JUMP JUMPDEST JUMPDEST PUSH2 0x79D DUP5 DUP3 DUP6 PUSH2 0x756 JUMP JUMPDEST POP SWAP4 SWAP3 POP POP POP JUMP JUMPDEST PUSH0 DUP3 PUSH1 0x1F DUP4 ADD SLT PUSH2 0x7B9 JUMPI PUSH2 0x7B8 PUSH2 0x696 JUMP JUMPDEST JUMPDEST DUP2 CALLDATALOAD PUSH2 0x7C9 DUP5 DUP3 PUSH1 0x20 DUP7 ADD PUSH2 0x764 JUMP JUMPDEST SWAP2 POP POP SWAP3 SWAP2 POP POP JUMP JUMPDEST PUSH0 PUSH1 0x20 DUP3 DUP5 SUB SLT ISZERO PUSH2 0x7E7 JUMPI PUSH2 0x7E6 PUSH2 0x53D JUMP JUMPDEST JUMPDEST PUSH0 DUP3 ADD CALLDATALOAD PUSH8 0xFFFFFFFFFFFFFFFF DUP2 GT ISZERO PUSH2 0x804 JUMPI PUSH2 0x803 PUSH2 0x541 JUMP JUMPDEST JUMPDEST PUSH2 0x810 DUP5 DUP3 DUP6 ADD PUSH2 0x7A5 JUMP JUMPDEST SWAP2 POP POP SWAP3 SWAP2 POP POP JUMP JUMPDEST PUSH2 0x822 DUP2 PUSH2 0x5C2 JUMP JUMPDEST DUP3 MSTORE POP POP JUMP JUMPDEST PUSH0 DUP2 MLOAD SWAP1 POP SWAP2 SWAP1 POP JUMP JUMPDEST PUSH0 DUP3 DUP3 MSTORE PUSH1 0x20 DUP3 ADD SWAP1 POP SWAP3 SWAP2 POP POP JUMP JUMPDEST DUP3 DUP2 DUP4 MCOPY PUSH0 DUP4 DUP4 ADD MSTORE POP POP POP JUMP JUMPDEST PUSH0 PUSH2 0x85A DUP3 PUSH2 0x828 JUMP JUMPDEST PUSH2 0x864 DUP2 DUP6 PUSH2 0x832 JUMP JUMPDEST SWAP4 POP PUSH2 0x874 DUP2 DUP6 PUSH1 0x20 DUP7 ADD PUSH2 0x842 JUMP JUMPDEST PUSH2 0x87D DUP2 PUSH2 0x69E JUMP JUMPDEST DUP5 ADD SWAP2 POP POP SWAP3 SWAP2 POP POP JUMP JUMPDEST PUSH0 PUSH1 0x80 DUP3 ADD SWAP1 POP PUSH2 0x89B PUSH0 DUP4 ADD DUP8 PUSH2 0x66E JUMP JUMPDEST PUSH2 0x8A8 PUSH1 0x20 DUP4 ADD DUP7 PUSH2 0x819 JUMP JUMPDEST DUP2 DUP2 SUB PUSH1 0x40 DUP4 ADD MSTORE PUSH2 0x8BA DUP2 DUP6 PUSH2 0x850 JUMP JUMPDEST SWAP1 POP PUSH2 0x8C9 PUSH1 0x60 DUP4 ADD DUP5 PUSH2 0x66E JUMP JUMPDEST SWAP6 SWAP5 POP POP POP POP POP JUMP JUMPDEST PUSH32 0x5468697320697320616E20696E76616C696420636F6D6D656E74204944000000 PUSH0 DUP3 ADD MSTORE POP JUMP JUMPDEST PUSH0 PUSH2 0x906 PUSH1 0x1D DUP4 PUSH2 0x832 JUMP JUMPDEST SWAP2 POP PUSH2 0x911 DUP3 PUSH2 0x8D2 JUMP JUMPDEST PUSH1 0x20 DUP3 ADD SWAP1 POP SWAP2 SWAP1 POP JUMP JUMPDEST PUSH0 PUSH1 0x20 DUP3 ADD SWAP1 POP DUP2 DUP2 SUB PUSH0 DUP4 ADD MSTORE PUSH2 0x933 DUP2 PUSH2 0x8FA JUMP JUMPDEST SWAP1 POP SWAP2 SWAP1 POP JUMP JUMPDEST PUSH32 0x596F752068616420616C7265616479207468756D626564207570207468697320 PUSH0 DUP3 ADD MSTORE PUSH32 0x636F6D6D656E7400000000000000000000000000000000000000000000000000 PUSH1 0x20 DUP3 ADD MSTORE POP JUMP JUMPDEST PUSH0 PUSH2 0x994 PUSH1 0x27 DUP4 PUSH2 0x832 JUMP JUMPDEST SWAP2 POP PUSH2 0x99F DUP3 PUSH2 0x93A JUMP JUMPDEST PUSH1 0x40 DUP3 ADD SWAP1 POP SWAP2 SWAP1 POP JUMP JUMPDEST PUSH0 PUSH1 0x20 DUP3 ADD SWAP1 POP DUP2 DUP2 SUB PUSH0 DUP4 ADD MSTORE PUSH2 0x9C1 DUP2 PUSH2 0x988 JUMP JUMPDEST SWAP1 POP SWAP2 SWAP1 POP JUMP JUMPDEST PUSH32 0x4E487B7100000000000000000000000000000000000000000000000000000000 PUSH0 MSTORE PUSH1 0x11 PUSH1 0x4 MSTORE PUSH1 0x24 PUSH0 REVERT JUMPDEST PUSH0 PUSH2 0x9FF DUP3 PUSH2 0x545 JUMP JUMPDEST SWAP2 POP PUSH32 0xFFFFFFFFFFFFFFFFFFFFFFFFFFFFFFFFFFFFFFFFFFFFFFFFFFFFFFFFFFFFFFFF DUP3 SUB PUSH2 0xA31 JUMPI PUSH2 0xA30 PUSH2 0x9C8 JUMP JUMPDEST JUMPDEST PUSH1 0x1 DUP3 ADD SWAP1 POP SWAP2 SWAP1 POP JUMP JUMPDEST PUSH32 0x636F6D6D656E74206973206E6F7420616C6C6F776564206173206E756C6C0000 PUSH0 DUP3 ADD MSTORE POP JUMP JUMPDEST PUSH0 PUSH2 0xA70 PUSH1 0x1E DUP4 PUSH2 0x832 JUMP JUMPDEST SWAP2 POP PUSH2 0xA7B DUP3 PUSH2 0xA3C JUMP JUMPDEST PUSH1 0x20 DUP3 ADD SWAP1 POP SWAP2 SWAP1 POP JUMP JUMPDEST PUSH0 PUSH1 0x20 DUP3 ADD SWAP1 POP DUP2 DUP2 SUB PUSH0 DUP4 ADD MSTORE PUSH2 0xA9D DUP2 PUSH2 0xA64 JUMP JUMPDEST SWAP1 POP SWAP2 SWAP1 POP JUMP JUMPDEST PUSH32 0x4E487B7100000000000000000000000000000000000000000000000000000000 PUSH0 MSTORE PUSH1 0x22 PUSH1 0x4 MSTORE PUSH1 0x24 PUSH0 REVERT JUMPDEST PUSH0 PUSH1 0x2 DUP3 DIV SWAP1 POP PUSH1 0x1 DUP3 AND DUP1 PUSH2 0xAE8 JUMPI PUSH1 0x7F DUP3 AND SWAP2 POP JUMPDEST PUSH1 0x20 DUP3 LT DUP2 SUB PUSH2 0xAFB JUMPI PUSH2 0xAFA PUSH2 0xAA4 JUMP JUMPDEST JUMPDEST POP SWAP2 SWAP1 POP JUMP JUMPDEST PUSH0 DUP2 SWAP1 POP DUP2 PUSH0 MSTORE PUSH1 0x20 PUSH0 KECCAK256 SWAP1 POP SWAP2 SWAP1 POP JUMP JUMPDEST PUSH0 PUSH1 0x20 PUSH1 0x1F DUP4 ADD DIV SWAP1 POP SWAP2 SWAP1 POP JUMP JUMPDEST PUSH0 DUP3 DUP3 SHL SWAP1 POP SWAP3 SWAP2 POP POP JUMP JUMPDEST PUSH0 PUSH1 0x8 DUP4 MUL PUSH2 0xB5D PUSH32 0xFFFFFFFFFFFFFFFFFFFFFFFFFFFFFFFFFFFFFFFFFFFFFFFFFFFFFFFFFFFFFFFF DUP3 PUSH2 0xB22 JUMP JUMPDEST PUSH2 0xB67 DUP7 DUP4 PUSH2 0xB22 JUMP JUMPDEST SWAP6 POP DUP1 NOT DUP5 AND SWAP4 POP DUP1 DUP7 AND DUP5 OR SWAP3 POP POP POP SWAP4 SWAP3 POP POP POP JUMP JUMPDEST PUSH0 DUP2 SWAP1 POP SWAP2 SWAP1 POP JUMP JUMPDEST PUSH0 PUSH2 0xBA2 PUSH2 0xB9D PUSH2 0xB98 DUP5 PUSH2 0x545 JUMP JUMPDEST PUSH2 0xB7F JUMP JUMPDEST PUSH2 0x545 JUMP JUMPDEST SWAP1 POP SWAP2 SWAP1 POP JUMP JUMPDEST PUSH0 DUP2 SWAP1 POP SWAP2 SWAP1 POP JUMP JUMPDEST PUSH2 0xBBB DUP4 PUSH2 0xB88 JUMP JUMPDEST PUSH2 0xBCF PUSH2 0xBC7 DUP3 PUSH2 0xBA9 JUMP JUMPDEST DUP5 DUP5 SLOAD PUSH2 0xB2E JUMP JUMPDEST DUP3 SSTORE POP POP POP POP JUMP JUMPDEST PUSH0 PUSH0 SWAP1 POP SWAP1 JUMP JUMPDEST PUSH2 0xBE6 PUSH2 0xBD7 JUMP JUMPDEST PUSH2 0xBF1 DUP2 DUP5 DUP5 PUSH2 0xBB2 JUMP JUMPDEST POP POP POP JUMP JUMPDEST JUMPDEST DUP2 DUP2 LT ISZERO PUSH2 0xC14 JUMPI PUSH2 0xC09 PUSH0 DUP3 PUSH2 0xBDE JUMP JUMPDEST PUSH1 0x1 DUP2 ADD SWAP1 POP PUSH2 0xBF7 JUMP JUMPDEST POP POP JUMP JUMPDEST PUSH1 0x1F DUP3 GT ISZERO PUSH2 0xC59 JUMPI PUSH2 0xC2A DUP2 PUSH2 0xB01 JUMP JUMPDEST PUSH2 0xC33 DUP5 PUSH2 0xB13 JUMP JUMPDEST DUP2 ADD PUSH1 0x20 DUP6 LT ISZERO PUSH2 0xC42 JUMPI DUP2 SWAP1 POP JUMPDEST PUSH2 0xC56 PUSH2 0xC4E DUP6 PUSH2 0xB13 JUMP JUMPDEST DUP4 ADD DUP3 PUSH2 0xBF6 JUMP JUMPDEST POP POP JUMPDEST POP POP POP JUMP JUMPDEST PUSH0 DUP3 DUP3 SHR SWAP1 POP SWAP3 SWAP2 POP POP JUMP JUMPDEST PUSH0 PUSH2 0xC79 PUSH0 NOT DUP5 PUSH1 0x8 MUL PUSH2 0xC5E JUMP JUMPDEST NOT DUP1 DUP4 AND SWAP2 POP POP SWAP3 SWAP2 POP POP JUMP JUMPDEST PUSH0 PUSH2 0xC91 DUP4 DUP4 PUSH2 0xC6A JUMP JUMPDEST SWAP2 POP DUP3 PUSH1 0x2 MUL DUP3 OR SWAP1 POP SWAP3 SWAP2 POP POP JUMP JUMPDEST PUSH2 0xCAA DUP3 PUSH2 0x828 JUMP JUMPDEST PUSH8 0xFFFFFFFFFFFFFFFF DUP2 GT ISZERO PUSH2 0xCC3 JUMPI PUSH2 0xCC2 PUSH2 0x6AE JUMP JUMPDEST JUMPDEST PUSH2 0xCCD DUP3 SLOAD PUSH2 0xAD1 JUMP JUMPDEST PUSH2 0xCD8 DUP3 DUP3 DUP6 PUSH2 0xC18 JUMP JUMPDEST PUSH0 PUSH1 0x20 SWAP1 POP PUSH1 0x1F DUP4 GT PUSH1 0x1 DUP2 EQ PUSH2 0xD09 JUMPI PUSH0 DUP5 ISZERO PUSH2 0xCF7 JUMPI DUP3 DUP8 ADD MLOAD SWAP1 POP JUMPDEST PUSH2 0xD01 DUP6 DUP3 PUSH2 0xC86 JUMP JUMPDEST DUP7 SSTORE POP PUSH2 0xD68 JUMP JUMPDEST PUSH1 0x1F NOT DUP5 AND PUSH2 0xD17 DUP7 PUSH2 0xB01 JUMP JUMPDEST PUSH0 JUMPDEST DUP3 DUP2 LT ISZERO PUSH2 0xD3E JUMPI DUP5 DUP10 ADD MLOAD DUP3 SSTORE PUSH1 0x1 DUP3 ADD SWAP2 POP PUSH1 0x20 DUP6 ADD SWAP5 POP PUSH1 0x20 DUP2 ADD SWAP1 POP PUSH2 0xD19 JUMP JUMPDEST DUP7 DUP4 LT ISZERO PUSH2 0xD5B JUMPI DUP5 DUP10 ADD MLOAD PUSH2 0xD57 PUSH1 0x1F DUP10 AND DUP3 PUSH2 0xC6A JUMP JUMPDEST DUP4 SSTORE POP JUMPDEST PUSH1 0x1 PUSH1 0x2 DUP9 MUL ADD DUP9 SSTORE POP POP POP JUMPDEST POP POP POP POP POP POP JUMP JUMPDEST PUSH0 PUSH1 0x20 DUP3 ADD SWAP1 POP DUP2 DUP2 SUB PUSH0 DUP4 ADD MSTORE PUSH2 0xD88 DUP2 DUP5 PUSH2 0x850 JUMP JUMPDEST SWAP1 POP SWAP3 SWAP2 POP POP JUMP INVALID LOG2 PUSH5 0x6970667358 0x22 SLT KECCAK256 SWAP6 0x4F SWAP3 PUSH24 0x3CA678EE50B099F043A1FF352916EBB13DC1F4C038CA8EAE 0xD8 0xC4 ADDRESS PUSH8 0x64736F6C63430008 0x1E STOP CALLER "
				},
				"gasEstimates": {
					"creation": {
						"codeDepositCost": "705200",
						"executionCost": "22844",
						"totalCost": "728044"
					},
					"external": {
						"comments(uint256)": "infinite",
						"likeComment(uint256)": "infinite",
						"liked(uint256,address)": "3070",
						"nextId()": "2446",
						"postComment(string)": "infinite"
					}
				},
				"methodIdentifiers": {
					"comments(uint256)": "8ebb4c15",
					"likeComment(uint256)": "012cc1e2",
					"liked(uint256,address)": "02c42787",
					"nextId()": "61b8ce8c",
					"postComment(string)": "8cb7b351"
				}
			},
			"storageLayout": {
				"storage": [
					{
						"astId": 13,
						"contract": "EthSaving/comment.sol:CommentLikeContract",
						"label": "nextId",
						"offset": 0,
						"slot": "0",
						"type": "t_uint256"
					},
					{
						"astId": 18,
						"contract": "EthSaving/comment.sol:CommentLikeContract",
						"label": "comments",
						"offset": 0,
						"slot": "1",
						"type": "t_mapping(t_uint256,t_struct(Comment)10_storage)"
					},
					{
						"astId": 24,
						"contract": "EthSaving/comment.sol:CommentLikeContract",
						"label": "liked",
						"offset": 0,
						"slot": "2",
						"type": "t_mapping(t_uint256,t_mapping(t_address,t_bool))"
					}
				],
				"types": {
					"t_address": {
						"encoding": "inplace",
						"label": "address",
						"numberOfBytes": "20"
					},
					"t_bool": {
						"encoding": "inplace",
						"label": "bool",
						"numberOfBytes": "1"
					},
					"t_mapping(t_address,t_bool)": {
						"encoding": "mapping",
						"key": "t_address",
						"label": "mapping(address => bool)",
						"numberOfBytes": "32",
						"value": "t_bool"
					},
					"t_mapping(t_uint256,t_mapping(t_address,t_bool))": {
						"encoding": "mapping",
						"key": "t_uint256",
						"label": "mapping(uint256 => mapping(address => bool))",
						"numberOfBytes": "32",
						"value": "t_mapping(t_address,t_bool)"
					},
					"t_mapping(t_uint256,t_struct(Comment)10_storage)": {
						"encoding": "mapping",
						"key": "t_uint256",
						"label": "mapping(uint256 => struct CommentLikeContract.Comment)",
						"numberOfBytes": "32",
						"value": "t_struct(Comment)10_storage"
					},
					"t_string_storage": {
						"encoding": "bytes",
						"label": "string",
						"numberOfBytes": "32"
					},
					"t_struct(Comment)10_storage": {
						"encoding": "inplace",
						"label": "struct CommentLikeContract.Comment",
						"members": [
							{
								"astId": 3,
								"contract": "EthSaving/comment.sol:CommentLikeContract",
								"label": "id",
								"offset": 0,
								"slot": "0",
								"type": "t_uint256"
							},
							{
								"astId": 5,
								"contract": "EthSaving/comment.sol:CommentLikeContract",
								"label": "author",
								"offset": 0,
								"slot": "1",
								"type": "t_address"
							},
							{
								"astId": 7,
								"contract": "EthSaving/comment.sol:CommentLikeContract",
								"label": "comment",
								"offset": 0,
								"slot": "2",
								"type": "t_string_storage"
							},
							{
								"astId": 9,
								"contract": "EthSaving/comment.sol:CommentLikeContract",
								"label": "count",
								"offset": 0,
								"slot": "3",
								"type": "t_uint256"
							}
						],
						"numberOfBytes": "128"
					},
					"t_uint256": {
						"encoding": "inplace",
						"label": "uint256",
						"numberOfBytes": "32"
					}
				}
			},
			"userdoc": {
				"kind": "user",
				"methods": {},
				"version": 1
			}
		}
	}
}