{
	"Counter.sol": {
		"Counter": {
			"abi": [
				{
					"inputs": [],
					"name": "count",
					"outputs": [
						{
							"internalType": "uint256",
							"name": "",
							"type": "uint256"
						}
					],
					"stateMutability": "view",
					"type": "function"
				},
				{
					"inputs": [],
					"name": "dec",
					"outputs": [],
					"stateMutability": "nonpayable",
					"type": "function"
				},
				{
					"inputs": [],
					"name": "inc",
					"outputs": [],
					"stateMutability": "nonpayable",
					"type": "function"
				}
			],
			"devdoc": {
				"kind": "dev",
				"methods": {},
				"version": 1
			},
			"evm": {
				"assembly": "    /* \"Counter.sol\":57:218  contract Counter {... */\n  mstore(0x40, 0x80)\n  callvalue\n  dup1\n  iszero\n  tag_1\n  jumpi\n  revert(0x00, 0x00)\ntag_1:\n  pop\n  dataSize(sub_0)\n  dup1\n  dataOffset(sub_0)\n  0x00\n  codecopy\n  0x00\n  return\nstop\n\nsub_0: assembly {\n        /* \"Counter.sol\":57:218  contract Counter {... */\n      mstore(0x40, 0x80)\n      callvalue\n      dup1\n      iszero\n      tag_1\n      jumpi\n      revert(0x00, 0x00)\n    tag_1:\n      pop\n      jumpi(tag_2, lt(calldatasize, 0x04))\n      shr(0xe0, calldataload(0x00))\n      dup1\n      0x06661abd\n      eq\n      tag_3\n      jumpi\n      dup1\n      0x371303c0\n      eq\n      tag_4\n      jumpi\n      dup1\n      0xb3bcfa82\n      eq\n      tag_5\n      jumpi\n    tag_2:\n      revert(0x00, 0x00)\n        /* \"Counter.sol\":80:100  uint256 public count */\n    tag_3:\n      tag_6\n      tag_7\n      jump\t// in\n    tag_6:\n      mload(0x40)\n      tag_8\n      swap2\n      swap1\n      tag_9\n      jump\t// in\n    tag_8:\n      mload(0x40)\n      dup1\n      swap2\n      sub\n      swap1\n      return\n        /* \"Counter.sol\":107:155  function inc() external {... */\n    tag_4:\n      tag_10\n      tag_11\n      jump\t// in\n    tag_10:\n      stop\n        /* \"Counter.sol\":161:209  function dec() external {... */\n    tag_5:\n      tag_12\n      tag_13\n      jump\t// in\n    tag_12:\n      stop\n        /* \"Counter.sol\":80:100  uint256 public count */\n    tag_7:\n      sload(0x00)\n      dup2\n      jump\t// out\n        /* \"Counter.sol\":107:155  function inc() external {... */\n    tag_11:\n        /* \"Counter.sol\":141:146  count */\n      0x00\n      0x00\n        /* \"Counter.sol\":141:148  count++ */\n      dup2\n      sload\n      dup1\n      swap3\n      swap2\n      swap1\n      tag_15\n      swap1\n      tag_16\n      jump\t// in\n    tag_15:\n      swap2\n      swap1\n      pop\n      sstore\n      pop\n        /* \"Counter.sol\":107:155  function inc() external {... */\n      jump\t// out\n        /* \"Counter.sol\":161:209  function dec() external {... */\n    tag_13:\n        /* \"Counter.sol\":195:200  count */\n      0x00\n      0x00\n        /* \"Counter.sol\":195:202  count-- */\n      dup2\n      sload\n      dup1\n      swap3\n      swap2\n      swap1\n      tag_18\n      swap1\n      tag_19\n      jump\t// in\n    tag_18:\n      swap2\n      swap1\n      pop\n      sstore\n      pop\n        /* \"Counter.sol\":161:209  function dec() external {... */\n      jump\t// out\n        /* \"#utility.yul\":7:84   */\n    tag_20:\n        /* \"#utility.yul\":44:51   */\n      0x00\n        /* \"#utility.yul\":73:78   */\n      dup2\n        /* \"#utility.yul\":62:78   */\n      swap1\n      pop\n        /* \"#utility.yul\":7:84   */\n      swap2\n      swap1\n      pop\n      jump\t// out\n        /* \"#utility.yul\":90:208   */\n    tag_21:\n        /* \"#utility.yul\":177:201   */\n      tag_26\n        /* \"#utility.yul\":195:200   */\n      dup2\n        /* \"#utility.yul\":177:201   */\n      tag_20\n      jump\t// in\n    tag_26:\n        /* \"#utility.yul\":172:175   */\n      dup3\n        /* \"#utility.yul\":165:202   */\n      mstore\n        /* \"#utility.yul\":90:208   */\n      pop\n      pop\n      jump\t// out\n        /* \"#utility.yul\":214:436   */\n    tag_9:\n        /* \"#utility.yul\":307:311   */\n      0x00\n        /* \"#utility.yul\":345:347   */\n      0x20\n        /* \"#utility.yul\":334:343   */\n      dup3\n        /* \"#utility.yul\":330:348   */\n      add\n        /* \"#utility.yul\":322:348   */\n      swap1\n      pop\n        /* \"#utility.yul\":358:429   */\n      tag_28\n        /* \"#utility.yul\":426:427   */\n      0x00\n        /* \"#utility.yul\":415:424   */\n      dup4\n        /* \"#utility.yul\":411:428   */\n      add\n        /* \"#utility.yul\":402:408   */\n      dup5\n        /* \"#utility.yul\":358:429   */\n      tag_21\n      jump\t// in\n    tag_28:\n        /* \"#utility.yul\":214:436   */\n      swap3\n      swap2\n      pop\n      pop\n      jump\t// out\n        /* \"#utility.yul\":442:622   */\n    tag_22:\n        /* \"#utility.yul\":490:567   */\n      0x4e487b7100000000000000000000000000000000000000000000000000000000\n        /* \"#utility.yul\":487:488   */\n      0x00\n        /* \"#utility.yul\":480:568   */\n      mstore\n        /* \"#utility.yul\":587:591   */\n      0x11\n        /* \"#utility.yul\":584:585   */\n      0x04\n        /* \"#utility.yul\":577:592   */\n      mstore\n        /* \"#utility.yul\":611:615   */\n      0x24\n        /* \"#utility.yul\":608:609   */\n      0x00\n        /* \"#utility.yul\":601:616   */\n      revert\n        /* \"#utility.yul\":628:861   */\n    tag_16:\n        /* \"#utility.yul\":667:670   */\n      0x00\n        /* \"#utility.yul\":690:714   */\n      tag_31\n        /* \"#utility.yul\":708:713   */\n      dup3\n        /* \"#utility.yul\":690:714   */\n      tag_20\n      jump\t// in\n    tag_31:\n        /* \"#utility.yul\":681:714   */\n      swap2\n      pop\n        /* \"#utility.yul\":736:802   */\n      0xffffffffffffffffffffffffffffffffffffffffffffffffffffffffffffffff\n        /* \"#utility.yul\":729:734   */\n      dup3\n        /* \"#utility.yul\":726:803   */\n      sub\n        /* \"#utility.yul\":723:826   */\n      tag_32\n      jumpi\n        /* \"#utility.yul\":806:824   */\n      tag_33\n      tag_22\n      jump\t// in\n    tag_33:\n        /* \"#utility.yul\":723:826   */\n    tag_32:\n        /* \"#utility.yul\":853:854   */\n      0x01\n        /* \"#utility.yul\":846:851   */\n      dup3\n        /* \"#utility.yul\":842:855   */\n      add\n        /* \"#utility.yul\":835:855   */\n      swap1\n      pop\n        /* \"#utility.yul\":628:861   */\n      swap2\n      swap1\n      pop\n      jump\t// out\n        /* \"#utility.yul\":867:1038   */\n    tag_19:\n        /* \"#utility.yul\":906:909   */\n      0x00\n        /* \"#utility.yul\":929:953   */\n      tag_35\n        /* \"#utility.yul\":947:952   */\n      dup3\n        /* \"#utility.yul\":929:953   */\n      tag_20\n      jump\t// in\n    tag_35:\n        /* \"#utility.yul\":920:953   */\n      swap2\n      pop\n        /* \"#utility.yul\":975:979   */\n      0x00\n        /* \"#utility.yul\":968:973   */\n      dup3\n        /* \"#utility.yul\":965:980   */\n      sub\n        /* \"#utility.yul\":962:1003   */\n      tag_36\n      jumpi\n        /* \"#utility.yul\":983:1001   */\n      tag_37\n      tag_22\n      jump\t// in\n    tag_37:\n        /* \"#utility.yul\":962:1003   */\n    tag_36:\n        /* \"#utility.yul\":1030:1031   */\n      0x01\n        /* \"#utility.yul\":1023:1028   */\n      dup3\n        /* \"#utility.yul\":1019:1032   */\n      sub\n        /* \"#utility.yul\":1012:1032   */\n      swap1\n      pop\n        /* \"#utility.yul\":867:1038   */\n      swap2\n      swap1\n      pop\n      jump\t// out\n\n    auxdata: 0xa2646970667358221220a00241e6273b266e7b4dc31bfa219dbbd65ef3311de359d4d429ceda95cd6d1f64736f6c634300081e0033\n}\n",
				"bytecode": {
					"linkReferences": {},
					"object": "6080604052348015600e575f5ffd5b506101ac8061001c5f395ff3fe608060405234801561000f575f5ffd5b506004361061003f575f3560e01c806306661abd14610043578063371303c014610061578063b3bcfa821461006b575b5f5ffd5b61004b610075565b60405161005891906100c2565b60405180910390f35b61006961007a565b005b610073610092565b005b5f5481565b5f5f81548092919061008b90610108565b9190505550565b5f5f8154809291906100a39061014f565b9190505550565b5f819050919050565b6100bc816100aa565b82525050565b5f6020820190506100d55f8301846100b3565b92915050565b7f4e487b71000000000000000000000000000000000000000000000000000000005f52601160045260245ffd5b5f610112826100aa565b91507fffffffffffffffffffffffffffffffffffffffffffffffffffffffffffffffff8203610144576101436100db565b5b600182019050919050565b5f610159826100aa565b91505f820361016b5761016a6100db565b5b60018203905091905056fea2646970667358221220a00241e6273b266e7b4dc31bfa219dbbd65ef3311de359d4d429ceda95cd6d1f64736f6c634300081e0033",
					"opcodes": "PUSH1 0x80 PUSH1 0x40 MSTORE CALLVALUE DUP1 ISZERO PUSH1 0xE JUMPI PUSH0 PUSH0 REVERT JUMPDEST POP PUSH2 0x1AC DUP1 PUSH2 0x1C PUSH0 CODECOPY PUSH0 RETURN INVALID PUSH1 0x80 PUSH1 0x40 MSTORE CALLVALUE DUP1 ISZERO PUSH2 0xF JUMPI PUSH0 PUSH0 REVERT JUMPDEST POP PUSH1 0x4 CALLDATASIZE LT PUSH2 0x3F JUMPI PUSH0 CALLDATALOAD PUSH1 0xE0 SHR DUP1 PUSH4 0x6661ABD EQ PUSH2 0x43 JUMPI DUP1 PUSH4 0x371303C0 EQ PUSH2 0x61 JUMPI DUP1 PUSH4 0xB3BCFA82 EQ PUSH2 0x6B JUMPI JUMPDEST PUSH0 PUSH0 REVERT JUMPDEST PUSH2 0x4B PUSH2 0x75 JUMP JUMPDEST PUSH1 0x40 MLOAD PUSH2 0x58 SWAP2 SWAP1 PUSH2 0xC2 JUMP JUMPDEST PUSH1 0x40 MLOAD DUP1 SWAP2 SUB SWAP1 RETURN JUMPDEST PUSH2 0x69 PUSH2 0x7A JUMP JUMPDEST STOP JUMPDEST PUSH2 0x73 PUSH2 0x92 JUMP JUMPDEST STOP JUMPDEST PUSH0 SLOAD DUP2 JUMP JUMPDEST PUSH0 PUSH0 DUP2 SLOAD DUP1 SWAP3 SWAP2 SWAP1 PUSH2 0x8B SWAP1 PUSH2 0x108 JUMP JUMPDEST SWAP2 SWAP1 POP SSTORE POP JUMP JUMPDEST PUSH0 PUSH0 DUP2 SLOAD DUP1 SWAP3 SWAP2 SWAP1 PUSH2 0xA3 SWAP1 PUSH2 0x14F JUMP JUMPDEST SWAP2 SWAP1 POP SSTORE POP JUMP JUMPDEST PUSH0 DUP2 SWAP1 POP SWAP2 SWAP1 POP JUMP JUMPDEST PUSH2 0xBC DUP2 PUSH2 0xAA JUMP JUMPDEST DUP3 MSTORE POP POP JUMP JUMPDEST PUSH0 PUSH1 0x20 DUP3 ADD SWAP1 POP PUSH2 0xD5 PUSH0 DUP4 ADD DUP5 PUSH2 0xB3 JUMP JUMPDEST SWAP3 SWAP2 POP POP JUMP JUMPDEST PUSH32 0x4E487B7100000000000000000000000000000000000000000000000000000000 PUSH0 MSTORE PUSH1 0x11 PUSH1 0x4 MSTORE PUSH1 0x24 PUSH0 REVERT JUMPDEST PUSH0 PUSH2 0x112 DUP3 PUSH2 0xAA JUMP JUMPDEST SWAP2 POP PUSH32 0xFFFFFFFFFFFFFFFFFFFFFFFFFFFFFFFFFFFFFFFFFFFFFFFFFFFFFFFFFFFFFFFF DUP3 SUB PUSH2 0x144 JUMPI PUSH2 0x143 PUSH2 0xDB JUMP JUMPDEST JUMPDEST PUSH1 0x1 DUP3 ADD SWAP1 POP SWAP2 SWAP1 POP JUMP JUMPDEST PUSH0 PUSH2 0x159 DUP3 PUSH2 0xAA JUMP JUMPDEST SWAP2 POP PUSH0 DUP3 SUB PUSH2 0x16B JUMPI PUSH2 0x16A PUSH2 0xDB JUMP JUMPDEST JUMPDEST PUSH1 0x1 DUP3 SUB SWAP1 POP SWAP2 SWAP1 POP JUMP INVALID LOG2 PUSH5 0x6970667358 0x22 SLT KECCAK256 LOG0 MUL COINBASE DUPN 0x27 EXTCODESIZE 0x26 PUSH15 0x7B4DC31BFA219DBBD65EF3311DE359 0xD4 0xD4 0x29 0xCE 0xDA SWAP6 0xCD PUSH14 0x1F64736F6C634300081E00330000 "
				},
				"gasEstimates": {
					"creation": {
						"codeDepositCost": "85600",
						"executionCost": "133",
						"totalCost": "85733"
					},
					"external": {
						"count()": "2402",
						"dec()": "24517",
						"inc()": "24496"
					}
				},
				"methodIdentifiers": {
					"count()": "06661abd",
					"dec()": "b3bcfa82",
					"inc()": "371303c0"
				}
			},
			"storageLayout": {
				"storage": [
					{
						"astId": 3,
						"contract": "Counter.sol:Counter",
						"label": "count",
						"offset": 0,
						"slot": "0",
						"type": "t_uint256"
					}
				],
				"types": {
					"t_uint256": {
						"encoding": "inplace",
						"label": "uint256",
						"numberOfBytes": "32"
					}
				}
			},
			"userdoc": {
				"kind": "user",
				"methods": {},
				"version": 1
			}
		}
	}
}