{
	"EthSaving/fallback.sol": {
		"ContractB": {
			"abi": [
				{
					"inputs": [
						{
							"internalType": "address",
							"name": "_contract",
							"type": "address"
						}
					],
					"name": "callFallback",
					"outputs": [],
					"stateMutability": "payable",
					"type": "function"
				},
				{
					"inputs": [],
					"name": "len",
					"outputs": [
						{
							"internalType": "uint256",
							"name": "",
							"type": "uint256"
						}
					],
					"stateMutability": "view",
					"type": "function"
				}
			],
			"devdoc": {
				"kind": "dev",
				"methods": {},
				"version": 1
			},
			"evm": {
				"assembly": "    /* \"EthSaving/fallback.sol\":247:766  contract ContractB {... */\n  mstore(0x40, 0x80)\n  callvalue\n  dup1\n  iszero\n  tag_1\n  jumpi\n  0x00\n  dup1\n  revert\ntag_1:\n  pop\n  dataSize(sub_0)\n  dup1\n  dataOffset(sub_0)\n  0x00\n  codecopy\n  0x00\n  return\nstop\n\nsub_0: assembly {\n        /* \"EthSaving/fallback.sol\":247:766  contract ContractB {... */\n      mstore(0x40, 0x80)\n      jumpi(tag_1, lt(calldatasize, 0x04))\n      shr(0xe0, calldataload(0x00))\n      dup1\n      0x56d88e27\n      eq\n      tag_2\n      jumpi\n      dup1\n      0x6ba87a53\n      eq\n      tag_3\n      jumpi\n    tag_1:\n      0x00\n      dup1\n      revert\n        /* \"EthSaving/fallback.sol\":321:339  uint256 public len */\n    tag_2:\n      callvalue\n      dup1\n      iszero\n      tag_4\n      jumpi\n      0x00\n      dup1\n      revert\n    tag_4:\n      pop\n      tag_5\n      tag_6\n      jump\t// in\n    tag_5:\n      mload(0x40)\n      tag_7\n      swap2\n      swap1\n      tag_8\n      jump\t// in\n    tag_7:\n      mload(0x40)\n      dup1\n      swap2\n      sub\n      swap1\n      return\n        /* \"EthSaving/fallback.sol\":346:764  function callFallback(address _contract) external payable {... */\n    tag_3:\n      tag_9\n      0x04\n      dup1\n      calldatasize\n      sub\n      dup2\n      add\n      swap1\n      tag_10\n      swap2\n      swap1\n      tag_11\n      jump\t// in\n    tag_10:\n      tag_12\n      jump\t// in\n    tag_9:\n      stop\n        /* \"EthSaving/fallback.sol\":321:339  uint256 public len */\n    tag_6:\n      sload(0x00)\n      dup2\n      jump\t// out\n        /* \"EthSaving/fallback.sol\":346:764  function callFallback(address _contract) external payable {... */\n    tag_12:\n        /* \"EthSaving/fallback.sol\":462:486  bytes memory encodedData */\n      0x00\n        /* \"EthSaving/fallback.sol\":489:559  abi.encodeWithSignature(... */\n      add(0x24, mload(0x40))\n      mload(0x40)\n      0x20\n      dup2\n      dup4\n      sub\n      sub\n      dup2\n      mstore\n      swap1\n      0x40\n      mstore\n      and(not(0xffffffffffffffffffffffffffffffffffffffffffffffffffffffff), 0x1566740300000000000000000000000000000000000000000000000000000000)\n      0x20\n      dup3\n      add\n      dup1\n      mload\n      0xffffffffffffffffffffffffffffffffffffffffffffffffffffffff\n      dup4\n      dup2\n      dup4\n      and\n      or\n      dup4\n      mstore\n      pop\n      pop\n      pop\n      pop\n        /* \"EthSaving/fallback.sol\":462:559  bytes memory encodedData = abi.encodeWithSignature(... */\n      swap1\n      pop\n        /* \"EthSaving/fallback.sol\":570:587  string memory str */\n      0x00\n        /* \"EthSaving/fallback.sol\":570:610  string memory str = \"100000000000000000\" */\n      mload(0x40)\n      dup1\n      0x40\n      add\n      0x40\n      mstore\n      dup1\n      0x12\n      dup2\n      mstore\n      0x20\n      add\n      0x3130303030303030303030303030303030300000000000000000000000000000\n      dup2\n      mstore\n      pop\n      swap1\n      pop\n        /* \"EthSaving/fallback.sol\":632:635  str */\n      dup1\n        /* \"EthSaving/fallback.sol\":626:643  bytes(str).length */\n      mload\n        /* \"EthSaving/fallback.sol\":620:623  len */\n      0x00\n        /* \"EthSaving/fallback.sol\":620:643  len = bytes(str).length */\n      dup2\n      swap1\n      sstore\n      pop\n        /* \"EthSaving/fallback.sol\":654:662  bool suc */\n      0x00\n        /* \"EthSaving/fallback.sol\":668:677  _contract */\n      dup4\n        /* \"EthSaving/fallback.sol\":668:682  _contract.call */\n      0xffffffffffffffffffffffffffffffffffffffff\n      and\n        /* \"EthSaving/fallback.sol\":690:708  100000000000000000 */\n      0x016345785d8a0000\n        /* \"EthSaving/fallback.sol\":710:721  encodedData */\n      dup5\n        /* \"EthSaving/fallback.sol\":668:722  _contract.call{value: 100000000000000000}(encodedData) */\n      mload(0x40)\n      tag_14\n      swap2\n      swap1\n      tag_15\n      jump\t// in\n    tag_14:\n      0x00\n      mload(0x40)\n      dup1\n      dup4\n      sub\n      dup2\n      dup6\n      dup8\n      gas\n      call\n      swap3\n      pop\n      pop\n      pop\n      returndatasize\n      dup1\n      0x00\n      dup2\n      eq\n      tag_18\n      jumpi\n      mload(0x40)\n      swap2\n      pop\n      and(add(returndatasize, 0x3f), not(0x1f))\n      dup3\n      add\n      0x40\n      mstore\n      returndatasize\n      dup3\n      mstore\n      returndatasize\n      0x00\n      0x20\n      dup5\n      add\n      returndatacopy\n      jump(tag_17)\n    tag_18:\n      0x60\n      swap2\n      pop\n    tag_17:\n      pop\n        /* \"EthSaving/fallback.sol\":653:722  (bool suc, ) = _contract.call{value: 100000000000000000}(encodedData) */\n      pop\n      swap1\n      pop\n        /* \"EthSaving/fallback.sol\":740:743  suc */\n      dup1\n        /* \"EthSaving/fallback.sol\":732:757  require(suc, \"call fail\") */\n      tag_19\n      jumpi\n      mload(0x40)\n      0x08c379a000000000000000000000000000000000000000000000000000000000\n      dup2\n      mstore\n      0x04\n      add\n      tag_20\n      swap1\n      tag_21\n      jump\t// in\n    tag_20:\n      mload(0x40)\n      dup1\n      swap2\n      sub\n      swap1\n      revert\n    tag_19:\n        /* \"EthSaving/fallback.sol\":404:764  {... */\n      pop\n      pop\n      pop\n        /* \"EthSaving/fallback.sol\":346:764  function callFallback(address _contract) external payable {... */\n      pop\n      jump\t// out\n        /* \"#utility.yul\":7:84   */\n    tag_22:\n        /* \"#utility.yul\":44:51   */\n      0x00\n        /* \"#utility.yul\":73:78   */\n      dup2\n        /* \"#utility.yul\":62:78   */\n      swap1\n      pop\n        /* \"#utility.yul\":7:84   */\n      swap2\n      swap1\n      pop\n      jump\t// out\n        /* \"#utility.yul\":90:208   */\n    tag_23:\n        /* \"#utility.yul\":177:201   */\n      tag_41\n        /* \"#utility.yul\":195:200   */\n      dup2\n        /* \"#utility.yul\":177:201   */\n      tag_22\n      jump\t// in\n    tag_41:\n        /* \"#utility.yul\":172:175   */\n      dup3\n        /* \"#utility.yul\":165:202   */\n      mstore\n        /* \"#utility.yul\":90:208   */\n      pop\n      pop\n      jump\t// out\n        /* \"#utility.yul\":214:436   */\n    tag_8:\n        /* \"#utility.yul\":307:311   */\n      0x00\n        /* \"#utility.yul\":345:347   */\n      0x20\n        /* \"#utility.yul\":334:343   */\n      dup3\n        /* \"#utility.yul\":330:348   */\n      add\n        /* \"#utility.yul\":322:348   */\n      swap1\n      pop\n        /* \"#utility.yul\":358:429   */\n      tag_43\n        /* \"#utility.yul\":426:427   */\n      0x00\n        /* \"#utility.yul\":415:424   */\n      dup4\n        /* \"#utility.yul\":411:428   */\n      add\n        /* \"#utility.yul\":402:408   */\n      dup5\n        /* \"#utility.yul\":358:429   */\n      tag_23\n      jump\t// in\n    tag_43:\n        /* \"#utility.yul\":214:436   */\n      swap3\n      swap2\n      pop\n      pop\n      jump\t// out\n        /* \"#utility.yul\":523:640   */\n    tag_25:\n        /* \"#utility.yul\":632:633   */\n      0x00\n        /* \"#utility.yul\":629:630   */\n      dup1\n        /* \"#utility.yul\":622:634   */\n      revert\n        /* \"#utility.yul\":769:895   */\n    tag_27:\n        /* \"#utility.yul\":806:813   */\n      0x00\n        /* \"#utility.yul\":846:888   */\n      0xffffffffffffffffffffffffffffffffffffffff\n        /* \"#utility.yul\":839:844   */\n      dup3\n        /* \"#utility.yul\":835:889   */\n      and\n        /* \"#utility.yul\":824:889   */\n      swap1\n      pop\n        /* \"#utility.yul\":769:895   */\n      swap2\n      swap1\n      pop\n      jump\t// out\n        /* \"#utility.yul\":901:997   */\n    tag_28:\n        /* \"#utility.yul\":938:945   */\n      0x00\n        /* \"#utility.yul\":967:991   */\n      tag_49\n        /* \"#utility.yul\":985:990   */\n      dup3\n        /* \"#utility.yul\":967:991   */\n      tag_27\n      jump\t// in\n    tag_49:\n        /* \"#utility.yul\":956:991   */\n      swap1\n      pop\n        /* \"#utility.yul\":901:997   */\n      swap2\n      swap1\n      pop\n      jump\t// out\n        /* \"#utility.yul\":1003:1125   */\n    tag_29:\n        /* \"#utility.yul\":1076:1100   */\n      tag_51\n        /* \"#utility.yul\":1094:1099   */\n      dup2\n        /* \"#utility.yul\":1076:1100   */\n      tag_28\n      jump\t// in\n    tag_51:\n        /* \"#utility.yul\":1069:1074   */\n      dup2\n        /* \"#utility.yul\":1066:1101   */\n      eq\n        /* \"#utility.yul\":1056:1119   */\n      tag_52\n      jumpi\n        /* \"#utility.yul\":1115:1116   */\n      0x00\n        /* \"#utility.yul\":1112:1113   */\n      dup1\n        /* \"#utility.yul\":1105:1117   */\n      revert\n        /* \"#utility.yul\":1056:1119   */\n    tag_52:\n        /* \"#utility.yul\":1003:1125   */\n      pop\n      jump\t// out\n        /* \"#utility.yul\":1131:1270   */\n    tag_30:\n        /* \"#utility.yul\":1177:1182   */\n      0x00\n        /* \"#utility.yul\":1215:1221   */\n      dup2\n        /* \"#utility.yul\":1202:1222   */\n      calldataload\n        /* \"#utility.yul\":1193:1222   */\n      swap1\n      pop\n        /* \"#utility.yul\":1231:1264   */\n      tag_54\n        /* \"#utility.yul\":1258:1263   */\n      dup2\n        /* \"#utility.yul\":1231:1264   */\n      tag_29\n      jump\t// in\n    tag_54:\n        /* \"#utility.yul\":1131:1270   */\n      swap3\n      swap2\n      pop\n      pop\n      jump\t// out\n        /* \"#utility.yul\":1276:1605   */\n    tag_11:\n        /* \"#utility.yul\":1335:1341   */\n      0x00\n        /* \"#utility.yul\":1384:1386   */\n      0x20\n        /* \"#utility.yul\":1372:1381   */\n      dup3\n        /* \"#utility.yul\":1363:1370   */\n      dup5\n        /* \"#utility.yul\":1359:1382   */\n      sub\n        /* \"#utility.yul\":1355:1387   */\n      slt\n        /* \"#utility.yul\":1352:1471   */\n      iszero\n      tag_56\n      jumpi\n        /* \"#utility.yul\":1390:1469   */\n      tag_57\n      tag_25\n      jump\t// in\n    tag_57:\n        /* \"#utility.yul\":1352:1471   */\n    tag_56:\n        /* \"#utility.yul\":1510:1511   */\n      0x00\n        /* \"#utility.yul\":1535:1588   */\n      tag_58\n        /* \"#utility.yul\":1580:1587   */\n      dup5\n        /* \"#utility.yul\":1571:1577   */\n      dup3\n        /* \"#utility.yul\":1560:1569   */\n      dup6\n        /* \"#utility.yul\":1556:1578   */\n      add\n        /* \"#utility.yul\":1535:1588   */\n      tag_30\n      jump\t// in\n    tag_58:\n        /* \"#utility.yul\":1525:1588   */\n      swap2\n      pop\n        /* \"#utility.yul\":1481:1598   */\n      pop\n        /* \"#utility.yul\":1276:1605   */\n      swap3\n      swap2\n      pop\n      pop\n      jump\t// out\n        /* \"#utility.yul\":1611:1709   */\n    tag_31:\n        /* \"#utility.yul\":1662:1668   */\n      0x00\n        /* \"#utility.yul\":1696:1701   */\n      dup2\n        /* \"#utility.yul\":1690:1702   */\n      mload\n        /* \"#utility.yul\":1680:1702   */\n      swap1\n      pop\n        /* \"#utility.yul\":1611:1709   */\n      swap2\n      swap1\n      pop\n      jump\t// out\n        /* \"#utility.yul\":1715:1862   */\n    tag_32:\n        /* \"#utility.yul\":1816:1827   */\n      0x00\n        /* \"#utility.yul\":1853:1856   */\n      dup2\n        /* \"#utility.yul\":1838:1856   */\n      swap1\n      pop\n        /* \"#utility.yul\":1715:1862   */\n      swap3\n      swap2\n      pop\n      pop\n      jump\t// out\n        /* \"#utility.yul\":1868:2007   */\n    tag_33:\n        /* \"#utility.yul\":1957:1963   */\n      dup3\n        /* \"#utility.yul\":1952:1955   */\n      dup2\n        /* \"#utility.yul\":1947:1950   */\n      dup4\n        /* \"#utility.yul\":1941:1964   */\n      mcopy\n        /* \"#utility.yul\":1998:1999   */\n      0x00\n        /* \"#utility.yul\":1989:1995   */\n      dup4\n        /* \"#utility.yul\":1984:1987   */\n      dup4\n        /* \"#utility.yul\":1980:1996   */\n      add\n        /* \"#utility.yul\":1973:2000   */\n      mstore\n        /* \"#utility.yul\":1868:2007   */\n      pop\n      pop\n      pop\n      jump\t// out\n        /* \"#utility.yul\":2013:2399   */\n    tag_34:\n        /* \"#utility.yul\":2117:2120   */\n      0x00\n        /* \"#utility.yul\":2145:2183   */\n      tag_63\n        /* \"#utility.yul\":2177:2182   */\n      dup3\n        /* \"#utility.yul\":2145:2183   */\n      tag_31\n      jump\t// in\n    tag_63:\n        /* \"#utility.yul\":2199:2287   */\n      tag_64\n        /* \"#utility.yul\":2280:2286   */\n      dup2\n        /* \"#utility.yul\":2275:2278   */\n      dup6\n        /* \"#utility.yul\":2199:2287   */\n      tag_32\n      jump\t// in\n    tag_64:\n        /* \"#utility.yul\":2192:2287   */\n      swap4\n      pop\n        /* \"#utility.yul\":2296:2361   */\n      tag_65\n        /* \"#utility.yul\":2354:2360   */\n      dup2\n        /* \"#utility.yul\":2349:2352   */\n      dup6\n        /* \"#utility.yul\":2342:2346   */\n      0x20\n        /* \"#utility.yul\":2335:2340   */\n      dup7\n        /* \"#utility.yul\":2331:2347   */\n      add\n        /* \"#utility.yul\":2296:2361   */\n      tag_33\n      jump\t// in\n    tag_65:\n        /* \"#utility.yul\":2386:2392   */\n      dup1\n        /* \"#utility.yul\":2381:2384   */\n      dup5\n        /* \"#utility.yul\":2377:2393   */\n      add\n        /* \"#utility.yul\":2370:2393   */\n      swap2\n      pop\n        /* \"#utility.yul\":2121:2399   */\n      pop\n        /* \"#utility.yul\":2013:2399   */\n      swap3\n      swap2\n      pop\n      pop\n      jump\t// out\n        /* \"#utility.yul\":2405:2676   */\n    tag_15:\n        /* \"#utility.yul\":2535:2538   */\n      0x00\n        /* \"#utility.yul\":2557:2650   */\n      tag_67\n        /* \"#utility.yul\":2646:2649   */\n      dup3\n        /* \"#utility.yul\":2637:2643   */\n      dup5\n        /* \"#utility.yul\":2557:2650   */\n      tag_34\n      jump\t// in\n    tag_67:\n        /* \"#utility.yul\":2550:2650   */\n      swap2\n      pop\n        /* \"#utility.yul\":2667:2670   */\n      dup2\n        /* \"#utility.yul\":2660:2670   */\n      swap1\n      pop\n        /* \"#utility.yul\":2405:2676   */\n      swap3\n      swap2\n      pop\n      pop\n      jump\t// out\n        /* \"#utility.yul\":2682:2851   */\n    tag_35:\n        /* \"#utility.yul\":2766:2777   */\n      0x00\n        /* \"#utility.yul\":2800:2806   */\n      dup3\n        /* \"#utility.yul\":2795:2798   */\n      dup3\n        /* \"#utility.yul\":2788:2807   */\n      mstore\n        /* \"#utility.yul\":2840:2844   */\n      0x20\n        /* \"#utility.yul\":2835:2838   */\n      dup3\n        /* \"#utility.yul\":2831:2845   */\n      add\n        /* \"#utility.yul\":2816:2845   */\n      swap1\n      pop\n        /* \"#utility.yul\":2682:2851   */\n      swap3\n      swap2\n      pop\n      pop\n      jump\t// out\n        /* \"#utility.yul\":2857:3016   */\n    tag_36:\n        /* \"#utility.yul\":2997:3008   */\n      0x63616c6c206661696c0000000000000000000000000000000000000000000000\n        /* \"#utility.yul\":2993:2994   */\n      0x00\n        /* \"#utility.yul\":2985:2991   */\n      dup3\n        /* \"#utility.yul\":2981:2995   */\n      add\n        /* \"#utility.yul\":2974:3009   */\n      mstore\n        /* \"#utility.yul\":2857:3016   */\n      pop\n      jump\t// out\n        /* \"#utility.yul\":3022:3387   */\n    tag_37:\n        /* \"#utility.yul\":3164:3167   */\n      0x00\n        /* \"#utility.yul\":3185:3251   */\n      tag_71\n        /* \"#utility.yul\":3249:3250   */\n      0x09\n        /* \"#utility.yul\":3244:3247   */\n      dup4\n        /* \"#utility.yul\":3185:3251   */\n      tag_35\n      jump\t// in\n    tag_71:\n        /* \"#utility.yul\":3178:3251   */\n      swap2\n      pop\n        /* \"#utility.yul\":3260:3353   */\n      tag_72\n        /* \"#utility.yul\":3349:3352   */\n      dup3\n        /* \"#utility.yul\":3260:3353   */\n      tag_36\n      jump\t// in\n    tag_72:\n        /* \"#utility.yul\":3378:3380   */\n      0x20\n        /* \"#utility.yul\":3373:3376   */\n      dup3\n        /* \"#utility.yul\":3369:3381   */\n      add\n        /* \"#utility.yul\":3362:3381   */\n      swap1\n      pop\n        /* \"#utility.yul\":3022:3387   */\n      swap2\n      swap1\n      pop\n      jump\t// out\n        /* \"#utility.yul\":3393:3812   */\n    tag_21:\n        /* \"#utility.yul\":3559:3563   */\n      0x00\n        /* \"#utility.yul\":3597:3599   */\n      0x20\n        /* \"#utility.yul\":3586:3595   */\n      dup3\n        /* \"#utility.yul\":3582:3600   */\n      add\n        /* \"#utility.yul\":3574:3600   */\n      swap1\n      pop\n        /* \"#utility.yul\":3646:3655   */\n      dup2\n        /* \"#utility.yul\":3640:3644   */\n      dup2\n        /* \"#utility.yul\":3636:3656   */\n      sub\n        /* \"#utility.yul\":3632:3633   */\n      0x00\n        /* \"#utility.yul\":3621:3630   */\n      dup4\n        /* \"#utility.yul\":3617:3634   */\n      add\n        /* \"#utility.yul\":3610:3657   */\n      mstore\n        /* \"#utility.yul\":3674:3805   */\n      tag_74\n        /* \"#utility.yul\":3800:3804   */\n      dup2\n        /* \"#utility.yul\":3674:3805   */\n      tag_37\n      jump\t// in\n    tag_74:\n        /* \"#utility.yul\":3666:3805   */\n      swap1\n      pop\n        /* \"#utility.yul\":3393:3812   */\n      swap2\n      swap1\n      pop\n      jump\t// out\n\n    auxdata: 0xa26469706673582212200136ed80c9f4760cc680c91b41f1b0881c3ff84316c846374b58fc1b3614458b64736f6c63430008190033\n}\n",
				"bytecode": {
					"linkReferences": {},
					"object": "6080604052348015600e575f80fd5b506103c58061001c5f395ff3fe608060405260043610610028575f3560e01c806356d88e271461002c5780636ba87a5314610056575b5f80fd5b348015610037575f80fd5b50610040610072565b60405161004d919061020d565b60405180910390f35b610070600480360381019061006b9190610284565b610077565b005b5f5481565b5f6040516024016040516020818303038152906040527f15667403000000000000000000000000000000000000000000000000000000007bffffffffffffffffffffffffffffffffffffffffffffffffffffffff19166020820180517bffffffffffffffffffffffffffffffffffffffffffffffffffffffff838183161783525050505090505f6040518060400160405280601281526020017f3130303030303030303030303030303030300000000000000000000000000000815250905080515f819055505f8373ffffffffffffffffffffffffffffffffffffffff1667016345785d8a00008460405161016c9190610301565b5f6040518083038185875af1925050503d805f81146101a6576040519150601f19603f3d011682016040523d82523d5f602084013e6101ab565b606091505b50509050806101ef576040517f08c379a00000000000000000000000000000000000000000000000000000000081526004016101e690610371565b60405180910390fd5b50505050565b5f819050919050565b610207816101f5565b82525050565b5f6020820190506102205f8301846101fe565b92915050565b5f80fd5b5f73ffffffffffffffffffffffffffffffffffffffff82169050919050565b5f6102538261022a565b9050919050565b61026381610249565b811461026d575f80fd5b50565b5f8135905061027e8161025a565b92915050565b5f6020828403121561029957610298610226565b5b5f6102a684828501610270565b91505092915050565b5f81519050919050565b5f81905092915050565b8281835e5f83830152505050565b5f6102db826102af565b6102e581856102b9565b93506102f58185602086016102c3565b80840191505092915050565b5f61030c82846102d1565b915081905092915050565b5f82825260208201905092915050565b7f63616c6c206661696c00000000000000000000000000000000000000000000005f82015250565b5f61035b600983610317565b915061036682610327565b602082019050919050565b5f6020820190508181035f8301526103888161034f565b905091905056fea26469706673582212200136ed80c9f4760cc680c91b41f1b0881c3ff84316c846374b58fc1b3614458b64736f6c63430008190033",
					"opcodes": "PUSH1 0x80 PUSH1 0x40 MSTORE CALLVALUE DUP1 ISZERO PUSH1 0xE JUMPI PUSH0 DUP1 REVERT JUMPDEST POP PUSH2 0x3C5 DUP1 PUSH2 0x1C PUSH0 CODECOPY PUSH0 RETURN INVALID PUSH1 0x80 PUSH1 0x40 MSTORE PUSH1 0x4 CALLDATASIZE LT PUSH2 0x28 JUMPI PUSH0 CALLDATALOAD PUSH1 0xE0 SHR DUP1 PUSH4 0x56D88E27 EQ PUSH2 0x2C JUMPI DUP1 PUSH4 0x6BA87A53 EQ PUSH2 0x56 JUMPI JUMPDEST PUSH0 DUP1 REVERT JUMPDEST CALLVALUE DUP1 ISZERO PUSH2 0x37 JUMPI PUSH0 DUP1 REVERT JUMPDEST POP PUSH2 0x40 PUSH2 0x72 JUMP JUMPDEST PUSH1 0x40 MLOAD PUSH2 0x4D SWAP2 SWAP1 PUSH2 0x20D JUMP JUMPDEST PUSH1 0x40 MLOAD DUP1 SWAP2 SUB SWAP1 RETURN JUMPDEST PUSH2 0x70 PUSH1 0x4 DUP1 CALLDATASIZE SUB DUP2 ADD SWAP1 PUSH2 0x6B SWAP2 SWAP1 PUSH2 0x284 JUMP JUMPDEST PUSH2 0x77 JUMP JUMPDEST STOP JUMPDEST PUSH0 SLOAD DUP2 JUMP JUMPDEST PUSH0 PUSH1 0x40 MLOAD PUSH1 0x24 ADD PUSH1 0x40 MLOAD PUSH1 0x20 DUP2 DUP4 SUB SUB DUP2 MSTORE SWAP1 PUSH1 0x40 MSTORE PUSH32 0x1566740300000000000000000000000000000000000000000000000000000000 PUSH28 0xFFFFFFFFFFFFFFFFFFFFFFFFFFFFFFFFFFFFFFFFFFFFFFFFFFFFFFFF NOT AND PUSH1 0x20 DUP3 ADD DUP1 MLOAD PUSH28 0xFFFFFFFFFFFFFFFFFFFFFFFFFFFFFFFFFFFFFFFFFFFFFFFFFFFFFFFF DUP4 DUP2 DUP4 AND OR DUP4 MSTORE POP POP POP POP SWAP1 POP PUSH0 PUSH1 0x40 MLOAD DUP1 PUSH1 0x40 ADD PUSH1 0x40 MSTORE DUP1 PUSH1 0x12 DUP2 MSTORE PUSH1 0x20 ADD PUSH32 0x3130303030303030303030303030303030300000000000000000000000000000 DUP2 MSTORE POP SWAP1 POP DUP1 MLOAD PUSH0 DUP2 SWAP1 SSTORE POP PUSH0 DUP4 PUSH20 0xFFFFFFFFFFFFFFFFFFFFFFFFFFFFFFFFFFFFFFFF AND PUSH8 0x16345785D8A0000 DUP5 PUSH1 0x40 MLOAD PUSH2 0x16C SWAP2 SWAP1 PUSH2 0x301 JUMP JUMPDEST PUSH0 PUSH1 0x40 MLOAD DUP1 DUP4 SUB DUP2 DUP6 DUP8 GAS CALL SWAP3 POP POP POP RETURNDATASIZE DUP1 PUSH0 DUP2 EQ PUSH2 0x1A6 JUMPI PUSH1 0x40 MLOAD SWAP2 POP PUSH1 0x1F NOT PUSH1 0x3F RETURNDATASIZE ADD AND DUP3 ADD PUSH1 0x40 MSTORE RETURNDATASIZE DUP3 MSTORE RETURNDATASIZE PUSH0 PUSH1 0x20 DUP5 ADD RETURNDATACOPY PUSH2 0x1AB JUMP JUMPDEST PUSH1 0x60 SWAP2 POP JUMPDEST POP POP SWAP1 POP DUP1 PUSH2 0x1EF JUMPI PUSH1 0x40 MLOAD PUSH32 0x8C379A000000000000000000000000000000000000000000000000000000000 DUP2 MSTORE PUSH1 0x4 ADD PUSH2 0x1E6 SWAP1 PUSH2 0x371 JUMP JUMPDEST PUSH1 0x40 MLOAD DUP1 SWAP2 SUB SWAP1 REVERT JUMPDEST POP POP POP POP JUMP JUMPDEST PUSH0 DUP2 SWAP1 POP SWAP2 SWAP1 POP JUMP JUMPDEST PUSH2 0x207 DUP2 PUSH2 0x1F5 JUMP JUMPDEST DUP3 MSTORE POP POP JUMP JUMPDEST PUSH0 PUSH1 0x20 DUP3 ADD SWAP1 POP PUSH2 0x220 PUSH0 DUP4 ADD DUP5 PUSH2 0x1FE JUMP JUMPDEST SWAP3 SWAP2 POP POP JUMP JUMPDEST PUSH0 DUP1 REVERT JUMPDEST PUSH0 PUSH20 0xFFFFFFFFFFFFFFFFFFFFFFFFFFFFFFFFFFFFFFFF DUP3 AND SWAP1 POP SWAP2 SWAP1 POP JUMP JUMPDEST PUSH0 PUSH2 0x253 DUP3 PUSH2 0x22A JUMP JUMPDEST SWAP1 POP SWAP2 SWAP1 POP JUMP JUMPDEST PUSH2 0x263 DUP2 PUSH2 0x249 JUMP JUMPDEST DUP2 EQ PUSH2 0x26D JUMPI PUSH0 DUP1 REVERT JUMPDEST POP JUMP JUMPDEST PUSH0 DUP2 CALLDATALOAD SWAP1 POP PUSH2 0x27E DUP2 PUSH2 0x25A JUMP JUMPDEST SWAP3 SWAP2 POP POP JUMP JUMPDEST PUSH0 PUSH1 0x20 DUP3 DUP5 SUB SLT ISZERO PUSH2 0x299 JUMPI PUSH2 0x298 PUSH2 0x226 JUMP JUMPDEST JUMPDEST PUSH0 PUSH2 0x2A6 DUP5 DUP3 DUP6 ADD PUSH2 0x270 JUMP JUMPDEST SWAP2 POP POP SWAP3 SWAP2 POP POP JUMP JUMPDEST PUSH0 DUP2 MLOAD SWAP1 POP SWAP2 SWAP1 POP JUMP JUMPDEST PUSH0 DUP2 SWAP1 POP SWAP3 SWAP2 POP POP JUMP JUMPDEST DUP3 DUP2 DUP4 MCOPY PUSH0 DUP4 DUP4 ADD MSTORE POP POP POP JUMP JUMPDEST PUSH0 PUSH2 0x2DB DUP3 PUSH2 0x2AF JUMP JUMPDEST PUSH2 0x2E5 DUP2 DUP6 PUSH2 0x2B9 JUMP JUMPDEST SWAP4 POP PUSH2 0x2F5 DUP2 DUP6 PUSH1 0x20 DUP7 ADD PUSH2 0x2C3 JUMP JUMPDEST DUP1 DUP5 ADD SWAP2 POP POP SWAP3 SWAP2 POP POP JUMP JUMPDEST PUSH0 PUSH2 0x30C DUP3 DUP5 PUSH2 0x2D1 JUMP JUMPDEST SWAP2 POP DUP2 SWAP1 POP SWAP3 SWAP2 POP POP JUMP JUMPDEST PUSH0 DUP3 DUP3 MSTORE PUSH1 0x20 DUP3 ADD SWAP1 POP SWAP3 SWAP2 POP POP JUMP JUMPDEST PUSH32 0x63616C6C206661696C0000000000000000000000000000000000000000000000 PUSH0 DUP3 ADD MSTORE POP JUMP JUMPDEST PUSH0 PUSH2 0x35B PUSH1 0x9 DUP4 PUSH2 0x317 JUMP JUMPDEST SWAP2 POP PUSH2 0x366 DUP3 PUSH2 0x327 JUMP JUMPDEST PUSH1 0x20 DUP3 ADD SWAP1 POP SWAP2 SWAP1 POP JUMP JUMPDEST PUSH0 PUSH1 0x20 DUP3 ADD SWAP1 POP DUP2 DUP2 SUB PUSH0 DUP4 ADD MSTORE PUSH2 0x388 DUP2 PUSH2 0x34F JUMP JUMPDEST SWAP1 POP SWAP2 SWAP1 POP JUMP INVALID LOG2 PUSH5 0x6970667358 0x22 SLT KECCAK256 ADD CALLDATASIZE 0xED DUP1 0xC9 DELEGATECALL PUSH23 0xCC680C91B41F1B0881C3FF84316C846374B58FC1B3614 GASLIMIT DUP12 PUSH5 0x736F6C6343 STOP ADDMOD NOT STOP CALLER "
				},
				"gasEstimates": {
					"creation": {
						"codeDepositCost": "193000",
						"executionCost": "236",
						"totalCost": "193236"
					},
					"external": {
						"callFallback(address)": "infinite",
						"len()": "2402"
					}
				},
				"methodIdentifiers": {
					"callFallback(address)": "6ba87a53",
					"len()": "56d88e27"
				}
			},
			"storageLayout": {
				"storage": [
					{
						"astId": 18,
						"contract": "EthSaving/fallback.sol:ContractB",
						"label": "len",
						"offset": 0,
						"slot": "0",
						"type": "t_uint256"
					}
				],
				"types": {
					"t_uint256": {
						"encoding": "inplace",
						"label": "uint256",
						"numberOfBytes": "32"
					}
				}
			},
			"userdoc": {
				"kind": "user",
				"methods": {},
				"version": 1
			}
		}
	}
}