{
	"data": {
		"bytecode": {
			"linkReferences": {},
			"object": "6080604052348015600e575f80fd5b5060d880601a5f395ff3fe608060405260043610601e575f3560e01c8063890eba6814603e576024565b36602457005b60015f806101000a81548160ff0219169083151502179055005b3480156048575f80fd5b50604f6063565b604051605a9190608b565b60405180910390f35b5f8054906101000a900460ff1681565b5f8115159050919050565b6085816073565b82525050565b5f602082019050609c5f830184607e565b9291505056fea2646970667358221220e614bcd0adf59673250afd54fbf335f758c540a872f664d6f00e4f3981e48e2264736f6c63430008190033",
			"opcodes": "PUSH1 0x80 PUSH1 0x40 MSTORE CALLVALUE DUP1 ISZERO PUSH1 0xE JUMPI PUSH0 DUP1 REVERT JUMPDEST POP PUSH1 0xD8 DUP1 PUSH1 0x1A PUSH0 CODECOPY PUSH0 RETURN INVALID PUSH1 0x80 PUSH1 0x40 MSTORE PUSH1 0x4 CALLDATASIZE LT PUSH1 0x1E JUMPI PUSH0 CALLDATALOAD PUSH1 0xE0 SHR DUP1 PUSH4 0x890EBA68 EQ PUSH1 0x3E JUMPI PUSH1 0x24 JUMP JUMPDEST CALLDATASIZE PUSH1 0x24 JUMPI STOP JUMPDEST PUSH1 0x1 PUSH0 DUP1 PUSH2 0x100 EXP DUP2 SLOAD DUP2 PUSH1 0xFF MUL NOT AND SWAP1 DUP4 ISZERO ISZERO MUL OR SWAP1 SSTORE STOP JUMPDEST CALLVALUE DUP1 ISZERO PUSH1 0x48 JUMPI PUSH0 DUP1 REVERT JUMPDEST POP PUSH1 0x4F PUSH1 0x63 JUMP JUMPDEST PUSH1 0x40 MLOAD PUSH1 0x5A SWAP2 SWAP1 PUSH1 0x8B JUMP JUMPDEST PUSH1 0x40 MLOAD DUP1 SWAP2 SUB SWAP1 RETURN JUMPDEST PUSH0 DUP1 SLOAD SWAP1 PUSH2 0x100 EXP SWAP1 DIV PUSH1 0xFF AND DUP2 JUMP JUMPDEST PUSH0 DUP2 ISZERO ISZERO SWAP1 POP SWAP2 SWAP1 POP JUMP JUMPDEST PUSH1 0x85 DUP2 PUSH1 0x73 JUMP JUMPDEST DUP3 MSTORE POP POP JUMP JUMPDEST PUSH0 PUSH1 0x20 DUP3 ADD SWAP1 POP PUSH1 0x9C PUSH0 DUP4 ADD DUP5 PUSH1 0x7E JUMP JUMPDEST SWAP3 SWAP2 POP POP JUMP INVALID LOG2 PUSH5 0x6970667358 0x22 SLT KECCAK256 0xE6 EQ 0xBC 0xD0 0xAD CREATE2 SWAP7 PUSH20 0x250AFD54FBF335F758C540A872F664D6F00E4F39 DUP2 0xE4 DUP15 0x22 PUSH5 0x736F6C6343 STOP ADDMOD NOT STOP CALLER "
		},
		"gasEstimates": {
			"creation": {
				"codeDepositCost": "43200",
				"executionCost": "91",
				"totalCost": "43291"
			},
			"external": {
				"": "24348",
				"flag()": "2441"
			}
		},
		"methodIdentifiers": {
			"flag()": "890eba68"
		}
	},
	"abi": [
		{
			"stateMutability": "payable",
			"type": "fallback"
		},
		{
			"inputs": [],
			"name": "flag",
			"outputs": [
				{
					"internalType": "bool",
					"name": "",
					"type": "bool"
				}
			],
			"stateMutability": "view",
			"type": "function"
		},
		{
			"stateMutability": "payable",
			"type": "receive"
		}
	]
}