{
	"data": {
		"bytecode": {
			"linkReferences": {},
			"object": "6080604052607b5f553480156012575f5ffd5b5061037a806100205f395ff3fe608060405234801561000f575f5ffd5b5060043610610055575f3560e01c806320987767146100595780632b813bc0146100755780632fbebd381461007f5780634e70b1dc1461009b578063b8bd717f146100b9575b5f5ffd5b610073600480360381019061006e91906101d8565b6100d5565b005b61007d61011c565b005b610099600480360381019061009491906101d8565b610130565b005b6100a3610155565b6040516100b09190610212565b60405180910390f35b6100d360048036038101906100ce91906101d8565b61015a565b005b600a811115610119576040517f08c379a000000000000000000000000000000000000000000000000000000000815260040161011090610285565b60405180910390fd5b50565b607b5f541461012e5761012d6102a3565b5b565b5f5f815480929190610141906102fd565b9190505550600a8110610152575f5ffd5b50565b5f5481565b600a81111561019e576040517f08c379a000000000000000000000000000000000000000000000000000000000815260040161019590610285565b60405180910390fd5b50565b5f5ffd5b5f819050919050565b6101b7816101a5565b81146101c1575f5ffd5b50565b5f813590506101d2816101ae565b92915050565b5f602082840312156101ed576101ec6101a1565b5b5f6101fa848285016101c4565b91505092915050565b61020c816101a5565b82525050565b5f6020820190506102255f830184610203565b92915050565b5f82825260208201905092915050565b7f4572726f72436f6e3a205f6900000000000000000000000000000000000000005f82015250565b5f61026f600c8361022b565b915061027a8261023b565b602082019050919050565b5f6020820190508181035f83015261029c81610263565b9050919050565b7f4e487b71000000000000000000000000000000000000000000000000000000005f52600160045260245ffd5b7f4e487b71000000000000000000000000000000000000000000000000000000005f52601160045260245ffd5b5f610307826101a5565b91507fffffffffffffffffffffffffffffffffffffffffffffffffffffffffffffffff8203610339576103386102d0565b5b60018201905091905056fea2646970667358221220cfac05e0285be2e6e959ef3f384531705d6445eecc19ff1bf5891886158f22da64736f6c634300081e0033",
			"opcodes": "PUSH1 0x80 PUSH1 0x40 MSTORE PUSH1 0x7B PUSH0 SSTORE CALLVALUE DUP1 ISZERO PUSH1 0x12 JUMPI PUSH0 PUSH0 REVERT JUMPDEST POP PUSH2 0x37A DUP1 PUSH2 0x20 PUSH0 CODECOPY PUSH0 RETURN INVALID PUSH1 0x80 PUSH1 0x40 MSTORE CALLVALUE DUP1 ISZERO PUSH2 0xF JUMPI PUSH0 PUSH0 REVERT JUMPDEST POP PUSH1 0x4 CALLDATASIZE LT PUSH2 0x55 JUMPI PUSH0 CALLDATALOAD PUSH1 0xE0 SHR DUP1 PUSH4 0x20987767 EQ PUSH2 0x59 JUMPI DUP1 PUSH4 0x2B813BC0 EQ PUSH2 0x75 JUMPI DUP1 PUSH4 0x2FBEBD38 EQ PUSH2 0x7F JUMPI DUP1 PUSH4 0x4E70B1DC EQ PUSH2 0x9B JUMPI DUP1 PUSH4 0xB8BD717F EQ PUSH2 0xB9 JUMPI JUMPDEST PUSH0 PUSH0 REVERT JUMPDEST PUSH2 0x73 PUSH1 0x4 DUP1 CALLDATASIZE SUB DUP2 ADD SWAP1 PUSH2 0x6E SWAP2 SWAP1 PUSH2 0x1D8 JUMP JUMPDEST PUSH2 0xD5 JUMP JUMPDEST STOP JUMPDEST PUSH2 0x7D PUSH2 0x11C JUMP JUMPDEST STOP JUMPDEST PUSH2 0x99 PUSH1 0x4 DUP1 CALLDATASIZE SUB DUP2 ADD SWAP1 PUSH2 0x94 SWAP2 SWAP1 PUSH2 0x1D8 JUMP JUMPDEST PUSH2 0x130 JUMP JUMPDEST STOP JUMPDEST PUSH2 0xA3 PUSH2 0x155 JUMP JUMPDEST PUSH1 0x40 MLOAD PUSH2 0xB0 SWAP2 SWAP1 PUSH2 0x212 JUMP JUMPDEST PUSH1 0x40 MLOAD DUP1 SWAP2 SUB SWAP1 RETURN JUMPDEST PUSH2 0xD3 PUSH1 0x4 DUP1 CALLDATASIZE SUB DUP2 ADD SWAP1 PUSH2 0xCE SWAP2 SWAP1 PUSH2 0x1D8 JUMP JUMPDEST PUSH2 0x15A JUMP JUMPDEST STOP JUMPDEST PUSH1 0xA DUP2 GT ISZERO PUSH2 0x119 JUMPI PUSH1 0x40 MLOAD PUSH32 0x8C379A000000000000000000000000000000000000000000000000000000000 DUP2 MSTORE PUSH1 0x4 ADD PUSH2 0x110 SWAP1 PUSH2 0x285 JUMP JUMPDEST PUSH1 0x40 MLOAD DUP1 SWAP2 SUB SWAP1 REVERT JUMPDEST POP JUMP JUMPDEST PUSH1 0x7B PUSH0 SLOAD EQ PUSH2 0x12E JUMPI PUSH2 0x12D PUSH2 0x2A3 JUMP JUMPDEST JUMPDEST JUMP JUMPDEST PUSH0 PUSH0 DUP2 SLOAD DUP1 SWAP3 SWAP2 SWAP1 PUSH2 0x141 SWAP1 PUSH2 0x2FD JUMP JUMPDEST SWAP2 SWAP1 POP SSTORE POP PUSH1 0xA DUP2 LT PUSH2 0x152 JUMPI PUSH0 PUSH0 REVERT JUMPDEST POP JUMP JUMPDEST PUSH0 SLOAD DUP2 JUMP JUMPDEST PUSH1 0xA DUP2 GT ISZERO PUSH2 0x19E JUMPI PUSH1 0x40 MLOAD PUSH32 0x8C379A000000000000000000000000000000000000000000000000000000000 DUP2 MSTORE PUSH1 0x4 ADD PUSH2 0x195 SWAP1 PUSH2 0x285 JUMP JUMPDEST PUSH1 0x40 MLOAD DUP1 SWAP2 SUB SWAP1 REVERT JUMPDEST POP JUMP JUMPDEST PUSH0 PUSH0 REVERT JUMPDEST PUSH0 DUP2 SWAP1 POP SWAP2 SWAP1 POP JUMP JUMPDEST PUSH2 0x1B7 DUP2 PUSH2 0x1A5 JUMP JUMPDEST DUP2 EQ PUSH2 0x1C1 JUMPI PUSH0 PUSH0 REVERT JUMPDEST POP JUMP JUMPDEST PUSH0 DUP2 CALLDATALOAD SWAP1 POP PUSH2 0x1D2 DUP2 PUSH2 0x1AE JUMP JUMPDEST SWAP3 SWAP2 POP POP JUMP JUMPDEST PUSH0 PUSH1 0x20 DUP3 DUP5 SUB SLT ISZERO PUSH2 0x1ED JUMPI PUSH2 0x1EC PUSH2 0x1A1 JUMP JUMPDEST JUMPDEST PUSH0 PUSH2 0x1FA DUP5 DUP3 DUP6 ADD PUSH2 0x1C4 JUMP JUMPDEST SWAP2 POP POP SWAP3 SWAP2 POP POP JUMP JUMPDEST PUSH2 0x20C DUP2 PUSH2 0x1A5 JUMP JUMPDEST DUP3 MSTORE POP POP JUMP JUMPDEST PUSH0 PUSH1 0x20 DUP3 ADD SWAP1 POP PUSH2 0x225 PUSH0 DUP4 ADD DUP5 PUSH2 0x203 JUMP JUMPDEST SWAP3 SWAP2 POP POP JUMP JUMPDEST PUSH0 DUP3 DUP3 MSTORE PUSH1 0x20 DUP3 ADD SWAP1 POP SWAP3 SWAP2 POP POP JUMP JUMPDEST PUSH32 0x4572726F72436F6E3A205F690000000000000000000000000000000000000000 PUSH0 DUP3 ADD MSTORE POP JUMP JUMPDEST PUSH0 PUSH2 0x26F PUSH1 0xC DUP4 PUSH2 0x22B JUMP JUMPDEST SWAP2 POP PUSH2 0x27A DUP3 PUSH2 0x23B JUMP JUMPDEST PUSH1 0x20 DUP3 ADD SWAP1 POP SWAP2 SWAP1 POP JUMP JUMPDEST PUSH0 PUSH1 0x20 DUP3 ADD SWAP1 POP DUP2 DUP2 SUB PUSH0 DUP4 ADD MSTORE PUSH2 0x29C DUP2 PUSH2 0x263 JUMP JUMPDEST SWAP1 POP SWAP2 SWAP1 POP JUMP JUMPDEST PUSH32 0x4E487B7100000000000000000000000000000000000000000000000000000000 PUSH0 MSTORE PUSH1 0x1 PUSH1 0x4 MSTORE PUSH1 0x24 PUSH0 REVERT JUMPDEST PUSH32 0x4E487B7100000000000000000000000000000000000000000000000000000000 PUSH0 MSTORE PUSH1 0x11 PUSH1 0x4 MSTORE PUSH1 0x24 PUSH0 REVERT JUMPDEST PUSH0 PUSH2 0x307 DUP3 PUSH2 0x1A5 JUMP JUMPDEST SWAP2 POP PUSH32 0xFFFFFFFFFFFFFFFFFFFFFFFFFFFFFFFFFFFFFFFFFFFFFFFFFFFFFFFFFFFFFFFF DUP3 SUB PUSH2 0x339 JUMPI PUSH2 0x338 PUSH2 0x2D0 JUMP JUMPDEST JUMPDEST PUSH1 0x1 DUP3 ADD SWAP1 POP SWAP2 SWAP1 POP JUMP INVALID LOG2 PUSH5 0x6970667358 0x22 SLT KECCAK256 0xCF 0xAC SDIV RJUMP 0x285B 0xE2 DUPN 0xE9 MSIZE 0xEF EXTCODEHASH CODESIZE GASLIMIT BALANCE PUSH17 0x5D6445EECC19FF1BF5891886158F22DA64 PUSH20 0x6F6C634300081E00330000000000000000000000 "
		},
		"gasEstimates": {
			"creation": {
				"codeDepositCost": "178000",
				"executionCost": "22323",
				"totalCost": "200323"
			},
			"external": {
				"foo(uint256)": "infinite",
				"num()": "2468",
				"testAssert()": "2292",
				"testRequire(uint256)": "775",
				"testRevert(uint256)": "687"
			}
		},
		"methodIdentifiers": {
			"foo(uint256)": "2fbebd38",
			"num()": "4e70b1dc",
			"testAssert()": "2b813bc0",
			"testRequire(uint256)": "b8bd717f",
			"testRevert(uint256)": "20987767"
		}
	},
	"abi": [
		{
			"inputs": [
				{
					"internalType": "uint256",
					"name": "_i",
					"type": "uint256"
				}
			],
			"name": "foo",
			"outputs": [],
			"stateMutability": "nonpayable",
			"type": "function"
		},
		{
			"inputs": [],
			"name": "num",
			"outputs": [
				{
					"internalType": "uint256",
					"name": "",
					"type": "uint256"
				}
			],
			"stateMutability": "view",
			"type": "function"
		},
		{
			"inputs": [],
			"name": "testAssert",
			"outputs": [],
			"stateMutability": "view",
			"type": "function"
		},
		{
			"inputs": [
				{
					"internalType": "uint256",
					"name": "_i",
					"type": "uint256"
				}
			],
			"name": "testRequire",
			"outputs": [],
			"stateMutability": "pure",
			"type": "function"
		},
		{
			"inputs": [
				{
					"internalType": "uint256",
					"name": "_i",
					"type": "uint256"
				}
			],
			"name": "testRevert",
			"outputs": [],
			"stateMutability": "pure",
			"type": "function"
		}
	]
}