{
	"data": {
		"bytecode": {
			"linkReferences": {},
			"object": "6080604052348015600e575f80fd5b5061044a8061001c5f395ff3fe608060405234801561000f575f80fd5b506004361061004a575f3560e01c80635a3e8b321461004e578063c29855781461006c578063cab7f5211461008a578063febb0f7e14610094575b5f80fd5b6100566100b2565b6040516100639190610261565b60405180910390f35b610074610134565b60405161008191906102b4565b60405180910390f35b610092610142565b005b61009c61021d565b6040516100a991906102b4565b60405180910390f35b5f63c298557860e01b63c298557860e01b7bffffffffffffffffffffffffffffffffffffffffffffffffffffffff1916146100f0576100ef6102cd565b5b63febb0f7e60e01b63febb0f7e60e01b7bffffffffffffffffffffffffffffffffffffffffffffffffffffffff19161461012d5761012c6102cd565b5b6001905090565b5f61013d61021d565b905090565b5f63c298557860e01b90505f3090505f8173ffffffffffffffffffffffffffffffffffffffff168360405160200161017a919061031a565b6040516020818303038152906040526040516101969190610386565b5f604051808303815f865af19150503d805f81146101cf576040519150601f19603f3d011682016040523d82523d5f602084013e6101d4565b606091505b5050905080610218576040517f08c379a000000000000000000000000000000000000000000000000000000000815260040161020f906103f6565b60405180910390fd5b505050565b5f80357fffffffff0000000000000000000000000000000000000000000000000000000016905090565b5f8115159050919050565b61025b81610247565b82525050565b5f6020820190506102745f830184610252565b92915050565b5f7fffffffff0000000000000000000000000000000000000000000000000000000082169050919050565b6102ae8161027a565b82525050565b5f6020820190506102c75f8301846102a5565b92915050565b7f4e487b71000000000000000000000000000000000000000000000000000000005f52600160045260245ffd5b5f819050919050565b61031461030f8261027a565b6102fa565b82525050565b5f6103258284610303565b60048201915081905092915050565b5f81519050919050565b5f81905092915050565b8281835e5f83830152505050565b5f61036082610334565b61036a818561033e565b935061037a818560208601610348565b80840191505092915050565b5f6103918284610356565b915081905092915050565b5f82825260208201905092915050565b7f63616c6c206661696c65640000000000000000000000000000000000000000005f82015250565b5f6103e0600b8361039c565b91506103eb826103ac565b602082019050919050565b5f6020820190508181035f83015261040d816103d4565b905091905056fea2646970667358221220b85ee8ac282b6ce89245495aaa03e8d5746810547e2e76b263e2378e765bccca64736f6c63430008190033",
			"opcodes": "PUSH1 0x80 PUSH1 0x40 MSTORE CALLVALUE DUP1 ISZERO PUSH1 0xE JUMPI PUSH0 DUP1 REVERT JUMPDEST POP PUSH2 0x44A DUP1 PUSH2 0x1C PUSH0 CODECOPY PUSH0 RETURN INVALID PUSH1 0x80 PUSH1 0x40 MSTORE CALLVALUE DUP1 ISZERO PUSH2 0xF JUMPI PUSH0 DUP1 REVERT JUMPDEST POP PUSH1 0x4 CALLDATASIZE LT PUSH2 0x4A JUMPI PUSH0 CALLDATALOAD PUSH1 0xE0 SHR DUP1 PUSH4 0x5A3E8B32 EQ PUSH2 0x4E JUMPI DUP1 PUSH4 0xC2985578 EQ PUSH2 0x6C JUMPI DUP1 PUSH4 0xCAB7F521 EQ PUSH2 0x8A JUMPI DUP1 PUSH4 0xFEBB0F7E EQ PUSH2 0x94 JUMPI JUMPDEST PUSH0 DUP1 REVERT JUMPDEST PUSH2 0x56 PUSH2 0xB2 JUMP JUMPDEST PUSH1 0x40 MLOAD PUSH2 0x63 SWAP2 SWAP1 PUSH2 0x261 JUMP JUMPDEST PUSH1 0x40 MLOAD DUP1 SWAP2 SUB SWAP1 RETURN JUMPDEST PUSH2 0x74 PUSH2 0x134 JUMP JUMPDEST PUSH1 0x40 MLOAD PUSH2 0x81 SWAP2 SWAP1 PUSH2 0x2B4 JUMP JUMPDEST PUSH1 0x40 MLOAD DUP1 SWAP2 SUB SWAP1 RETURN JUMPDEST PUSH2 0x92 PUSH2 0x142 JUMP JUMPDEST STOP JUMPDEST PUSH2 0x9C PUSH2 0x21D JUMP JUMPDEST PUSH1 0x40 MLOAD PUSH2 0xA9 SWAP2 SWAP1 PUSH2 0x2B4 JUMP JUMPDEST PUSH1 0x40 MLOAD DUP1 SWAP2 SUB SWAP1 RETURN JUMPDEST PUSH0 PUSH4 0xC2985578 PUSH1 0xE0 SHL PUSH4 0xC2985578 PUSH1 0xE0 SHL PUSH28 0xFFFFFFFFFFFFFFFFFFFFFFFFFFFFFFFFFFFFFFFFFFFFFFFFFFFFFFFF NOT AND EQ PUSH2 0xF0 JUMPI PUSH2 0xEF PUSH2 0x2CD JUMP JUMPDEST JUMPDEST PUSH4 0xFEBB0F7E PUSH1 0xE0 SHL PUSH4 0xFEBB0F7E PUSH1 0xE0 SHL PUSH28 0xFFFFFFFFFFFFFFFFFFFFFFFFFFFFFFFFFFFFFFFFFFFFFFFFFFFFFFFF NOT AND EQ PUSH2 0x12D JUMPI PUSH2 0x12C PUSH2 0x2CD JUMP JUMPDEST JUMPDEST PUSH1 0x1 SWAP1 POP SWAP1 JUMP JUMPDEST PUSH0 PUSH2 0x13D PUSH2 0x21D JUMP JUMPDEST SWAP1 POP SWAP1 JUMP JUMPDEST PUSH0 PUSH4 0xC2985578 PUSH1 0xE0 SHL SWAP1 POP PUSH0 ADDRESS SWAP1 POP PUSH0 DUP2 PUSH20 0xFFFFFFFFFFFFFFFFFFFFFFFFFFFFFFFFFFFFFFFF AND DUP4 PUSH1 0x40 MLOAD PUSH1 0x20 ADD PUSH2 0x17A SWAP2 SWAP1 PUSH2 0x31A JUMP JUMPDEST PUSH1 0x40 MLOAD PUSH1 0x20 DUP2 DUP4 SUB SUB DUP2 MSTORE SWAP1 PUSH1 0x40 MSTORE PUSH1 0x40 MLOAD PUSH2 0x196 SWAP2 SWAP1 PUSH2 0x386 JUMP JUMPDEST PUSH0 PUSH1 0x40 MLOAD DUP1 DUP4 SUB DUP2 PUSH0 DUP7 GAS CALL SWAP2 POP POP RETURNDATASIZE DUP1 PUSH0 DUP2 EQ PUSH2 0x1CF JUMPI PUSH1 0x40 MLOAD SWAP2 POP PUSH1 0x1F NOT PUSH1 0x3F RETURNDATASIZE ADD AND DUP3 ADD PUSH1 0x40 MSTORE RETURNDATASIZE DUP3 MSTORE RETURNDATASIZE PUSH0 PUSH1 0x20 DUP5 ADD RETURNDATACOPY PUSH2 0x1D4 JUMP JUMPDEST PUSH1 0x60 SWAP2 POP JUMPDEST POP POP SWAP1 POP DUP1 PUSH2 0x218 JUMPI PUSH1 0x40 MLOAD PUSH32 0x8C379A000000000000000000000000000000000000000000000000000000000 DUP2 MSTORE PUSH1 0x4 ADD PUSH2 0x20F SWAP1 PUSH2 0x3F6 JUMP JUMPDEST PUSH1 0x40 MLOAD DUP1 SWAP2 SUB SWAP1 REVERT JUMPDEST POP POP POP JUMP JUMPDEST PUSH0 DUP1 CALLDATALOAD PUSH32 0xFFFFFFFF00000000000000000000000000000000000000000000000000000000 AND SWAP1 POP SWAP1 JUMP JUMPDEST PUSH0 DUP2 ISZERO ISZERO SWAP1 POP SWAP2 SWAP1 POP JUMP JUMPDEST PUSH2 0x25B DUP2 PUSH2 0x247 JUMP JUMPDEST DUP3 MSTORE POP POP JUMP JUMPDEST PUSH0 PUSH1 0x20 DUP3 ADD SWAP1 POP PUSH2 0x274 PUSH0 DUP4 ADD DUP5 PUSH2 0x252 JUMP JUMPDEST SWAP3 SWAP2 POP POP JUMP JUMPDEST PUSH0 PUSH32 0xFFFFFFFF00000000000000000000000000000000000000000000000000000000 DUP3 AND SWAP1 POP SWAP2 SWAP1 POP JUMP JUMPDEST PUSH2 0x2AE DUP2 PUSH2 0x27A JUMP JUMPDEST DUP3 MSTORE POP POP JUMP JUMPDEST PUSH0 PUSH1 0x20 DUP3 ADD SWAP1 POP PUSH2 0x2C7 PUSH0 DUP4 ADD DUP5 PUSH2 0x2A5 JUMP JUMPDEST SWAP3 SWAP2 POP POP JUMP JUMPDEST PUSH32 0x4E487B7100000000000000000000000000000000000000000000000000000000 PUSH0 MSTORE PUSH1 0x1 PUSH1 0x4 MSTORE PUSH1 0x24 PUSH0 REVERT JUMPDEST PUSH0 DUP2 SWAP1 POP SWAP2 SWAP1 POP JUMP JUMPDEST PUSH2 0x314 PUSH2 0x30F DUP3 PUSH2 0x27A JUMP JUMPDEST PUSH2 0x2FA JUMP JUMPDEST DUP3 MSTORE POP POP JUMP JUMPDEST PUSH0 PUSH2 0x325 DUP3 DUP5 PUSH2 0x303 JUMP JUMPDEST PUSH1 0x4 DUP3 ADD SWAP2 POP DUP2 SWAP1 POP SWAP3 SWAP2 POP POP JUMP JUMPDEST PUSH0 DUP2 MLOAD SWAP1 POP SWAP2 SWAP1 POP JUMP JUMPDEST PUSH0 DUP2 SWAP1 POP SWAP3 SWAP2 POP POP JUMP JUMPDEST DUP3 DUP2 DUP4 MCOPY PUSH0 DUP4 DUP4 ADD MSTORE POP POP POP JUMP JUMPDEST PUSH0 PUSH2 0x360 DUP3 PUSH2 0x334 JUMP JUMPDEST PUSH2 0x36A DUP2 DUP6 PUSH2 0x33E JUMP JUMPDEST SWAP4 POP PUSH2 0x37A DUP2 DUP6 PUSH1 0x20 DUP7 ADD PUSH2 0x348 JUMP JUMPDEST DUP1 DUP5 ADD SWAP2 POP POP SWAP3 SWAP2 POP POP JUMP JUMPDEST PUSH0 PUSH2 0x391 DUP3 DUP5 PUSH2 0x356 JUMP JUMPDEST SWAP2 POP DUP2 SWAP1 POP SWAP3 SWAP2 POP POP JUMP JUMPDEST PUSH0 DUP3 DUP3 MSTORE PUSH1 0x20 DUP3 ADD SWAP1 POP SWAP3 SWAP2 POP POP JUMP JUMPDEST PUSH32 0x63616C6C206661696C6564000000000000000000000000000000000000000000 PUSH0 DUP3 ADD MSTORE POP JUMP JUMPDEST PUSH0 PUSH2 0x3E0 PUSH1 0xB DUP4 PUSH2 0x39C JUMP JUMPDEST SWAP2 POP PUSH2 0x3EB DUP3 PUSH2 0x3AC JUMP JUMPDEST PUSH1 0x20 DUP3 ADD SWAP1 POP SWAP2 SWAP1 POP JUMP JUMPDEST PUSH0 PUSH1 0x20 DUP3 ADD SWAP1 POP DUP2 DUP2 SUB PUSH0 DUP4 ADD MSTORE PUSH2 0x40D DUP2 PUSH2 0x3D4 JUMP JUMPDEST SWAP1 POP SWAP2 SWAP1 POP JUMP INVALID LOG2 PUSH5 0x6970667358 0x22 SLT KECCAK256 0xB8 MCOPY 0xE8 0xAC 0x28 0x2B PUSH13 0xE89245495AAA03E8D574681054 PUSH31 0x2E76B263E2378E765BCCCA64736F6C63430008190033000000000000000000 "
		},
		"gasEstimates": {
			"creation": {
				"codeDepositCost": "219600",
				"executionCost": "261",
				"totalCost": "219861"
			},
			"external": {
				"bar()": "391",
				"foo()": "381",
				"invoke()": "infinite",
				"testSelectors()": "404"
			}
		},
		"methodIdentifiers": {
			"bar()": "febb0f7e",
			"foo()": "c2985578",
			"invoke()": "cab7f521",
			"testSelectors()": "5a3e8b32"
		}
	},
	"abi": [
		{
			"inputs": [],
			"name": "bar",
			"outputs": [
				{
					"internalType": "bytes4",
					"name": "",
					"type": "bytes4"
				}
			],
			"stateMutability": "pure",
			"type": "function"
		},
		{
			"inputs": [],
			"name": "foo",
			"outputs": [
				{
					"internalType": "bytes4",
					"name": "",
					"type": "bytes4"
				}
			],
			"stateMutability": "pure",
			"type": "function"
		},
		{
			"inputs": [],
			"name": "invoke",
			"outputs": [],
			"stateMutability": "nonpayable",
			"type": "function"
		},
		{
			"inputs": [],
			"name": "testSelectors",
			"outputs": [
				{
					"internalType": "bool",
					"name": "",
					"type": "bool"
				}
			],
			"stateMutability": "pure",
			"type": "function"
		}
	]
}