{
	"data": {
		"bytecode": {
			"linkReferences": {},
			"object": "6080604052348015600e575f5ffd5b506101a98061001c5f395ff3fe608060405234801561000f575f5ffd5b5060043610610029575f3560e01c8063bb4e3f4d1461002d575b5f5ffd5b610047600480360381019061004291906100ac565b61005d565b60405161005491906100f9565b60405180910390f35b5f818361006a919061013f565b905092915050565b5f5ffd5b5f60ff82169050919050565b61008b81610076565b8114610095575f5ffd5b50565b5f813590506100a681610082565b92915050565b5f5f604083850312156100c2576100c1610072565b5b5f6100cf85828601610098565b92505060206100e085828601610098565b9150509250929050565b6100f381610076565b82525050565b5f60208201905061010c5f8301846100ea565b92915050565b7f4e487b71000000000000000000000000000000000000000000000000000000005f52601160045260245ffd5b5f61014982610076565b915061015483610076565b9250828201905060ff81111561016d5761016c610112565b5b9291505056fea2646970667358221220caa6f4de94e14bd138ab08fc508057430a6288de570e5d1f18f357e0669ee18364736f6c634300081e0033",
			"opcodes": "PUSH1 0x80 PUSH1 0x40 MSTORE CALLVALUE DUP1 ISZERO PUSH1 0xE JUMPI PUSH0 PUSH0 REVERT JUMPDEST POP PUSH2 0x1A9 DUP1 PUSH2 0x1C PUSH0 CODECOPY PUSH0 RETURN INVALID PUSH1 0x80 PUSH1 0x40 MSTORE CALLVALUE DUP1 ISZERO PUSH2 0xF JUMPI PUSH0 PUSH0 REVERT JUMPDEST POP PUSH1 0x4 CALLDATASIZE LT PUSH2 0x29 JUMPI PUSH0 CALLDATALOAD PUSH1 0xE0 SHR DUP1 PUSH4 0xBB4E3F4D EQ PUSH2 0x2D JUMPI JUMPDEST PUSH0 PUSH0 REVERT JUMPDEST PUSH2 0x47 PUSH1 0x4 DUP1 CALLDATASIZE SUB DUP2 ADD SWAP1 PUSH2 0x42 SWAP2 SWAP1 PUSH2 0xAC JUMP JUMPDEST PUSH2 0x5D JUMP JUMPDEST PUSH1 0x40 MLOAD PUSH2 0x54 SWAP2 SWAP1 PUSH2 0xF9 JUMP JUMPDEST PUSH1 0x40 MLOAD DUP1 SWAP2 SUB SWAP1 RETURN JUMPDEST PUSH0 DUP2 DUP4 PUSH2 0x6A SWAP2 SWAP1 PUSH2 0x13F JUMP JUMPDEST SWAP1 POP SWAP3 SWAP2 POP POP JUMP JUMPDEST PUSH0 PUSH0 REVERT JUMPDEST PUSH0 PUSH1 0xFF DUP3 AND SWAP1 POP SWAP2 SWAP1 POP JUMP JUMPDEST PUSH2 0x8B DUP2 PUSH2 0x76 JUMP JUMPDEST DUP2 EQ PUSH2 0x95 JUMPI PUSH0 PUSH0 REVERT JUMPDEST POP JUMP JUMPDEST PUSH0 DUP2 CALLDATALOAD SWAP1 POP PUSH2 0xA6 DUP2 PUSH2 0x82 JUMP JUMPDEST SWAP3 SWAP2 POP POP JUMP JUMPDEST PUSH0 PUSH0 PUSH1 0x40 DUP4 DUP6 SUB SLT ISZERO PUSH2 0xC2 JUMPI PUSH2 0xC1 PUSH2 0x72 JUMP JUMPDEST JUMPDEST PUSH0 PUSH2 0xCF DUP6 DUP3 DUP7 ADD PUSH2 0x98 JUMP JUMPDEST SWAP3 POP POP PUSH1 0x20 PUSH2 0xE0 DUP6 DUP3 DUP7 ADD PUSH2 0x98 JUMP JUMPDEST SWAP2 POP POP SWAP3 POP SWAP3 SWAP1 POP JUMP JUMPDEST PUSH2 0xF3 DUP2 PUSH2 0x76 JUMP JUMPDEST DUP3 MSTORE POP POP JUMP JUMPDEST PUSH0 PUSH1 0x20 DUP3 ADD SWAP1 POP PUSH2 0x10C PUSH0 DUP4 ADD DUP5 PUSH2 0xEA JUMP JUMPDEST SWAP3 SWAP2 POP POP JUMP JUMPDEST PUSH32 0x4E487B7100000000000000000000000000000000000000000000000000000000 PUSH0 MSTORE PUSH1 0x11 PUSH1 0x4 MSTORE PUSH1 0x24 PUSH0 REVERT JUMPDEST PUSH0 PUSH2 0x149 DUP3 PUSH2 0x76 JUMP JUMPDEST SWAP2 POP PUSH2 0x154 DUP4 PUSH2 0x76 JUMP JUMPDEST SWAP3 POP DUP3 DUP3 ADD SWAP1 POP PUSH1 0xFF DUP2 GT ISZERO PUSH2 0x16D JUMPI PUSH2 0x16C PUSH2 0x112 JUMP JUMPDEST JUMPDEST SWAP3 SWAP2 POP POP JUMP INVALID LOG2 PUSH5 0x6970667358 0x22 SLT KECCAK256 0xCA 0xA6 DELEGATECALL 0xDE SWAP5 RJUMPI 0x4BD1 CODESIZE 0xAB ADDMOD 0xFC POP DUP1 JUMPI NUMBER EXP PUSH3 0x88DE57 0xE TSTORE 0x1F XOR RETURN JUMPI RJUMP 0x669E RJUMPI 0x8364 PUSH20 0x6F6C634300081E00330000000000000000000000 "
		},
		"gasEstimates": {
			"creation": {
				"codeDepositCost": "85000",
				"executionCost": "133",
				"totalCost": "85133"
			},
			"external": {
				"add(uint8,uint8)": "infinite"
			}
		},
		"methodIdentifiers": {
			"add(uint8,uint8)": "bb4e3f4d"
		}
	},
	"abi": [
		{
			"inputs": [
				{
					"internalType": "uint8",
					"name": "x",
					"type": "uint8"
				},
				{
					"internalType": "uint8",
					"name": "y",
					"type": "uint8"
				}
			],
			"name": "add",
			"outputs": [
				{
					"internalType": "uint8",
					"name": "",
					"type": "uint8"
				}
			],
			"stateMutability": "pure",
			"type": "function"
		}
	]
}